:0200000280007C
:1000000070DD07200D7008000970080009700800F5
:10001000097008000970080009700800000000005D
:10002000000000000000000000000000713908001E
:100030000970080000000000113A0800553A080055
:1000400009700800097008000970080009700800AC
:10005000097008000970080009700800097008009C
:10006000B93208000970080000000000B16E0800F5
:10007000C56E0800D96E0800ED6E08000000000093
:1000800000000000097008000970080009700800ED
:100090000970080009700800F12D0800012E080001
:1000A00009700800000000000970080009700800CD
:1000B000097008000970080009700800097008003C
:1000C000097008000970080009700800097008002C
:1000D000097008000970080009700800097008001C
:1000E000097008000970080009700800097008000C
:1000F0000970080010B5054C237833B9044B13B1CF
:100100000448AFF300800123237010BD280B0720A3
:100110000000000034E608000C4B43B10C4810B559
:100120000C49AFF300800C48036823B910BD0A489E
:10013000036833B97047094B002BF7D0BDE8104076
:100140001847064B002BF5D0184700BF00000000F1
:1001500034E608002C0B072034E6080000000000FD
:1001600030B583B0002201210846194CA047194B35
:100170001860032200210120A047174B1860174C7C
:10018000A047174B1860A047164B1860164B0193F9
:100190000024009423464FF4967214491448154DD8
:1001A000A847154B01930223009323464FF4967200
:1001B00012491348A847134B019301230093234688
:1001C0004FF4967210491148A84703B030BD00BFE4
:1001D000D9400800540B0720500B07205536080063
:1001E000580B0720440B0720480B072058D708005E
:1001F00045060800E14B08004C0B072064D70800B7
:10020000BD0208005C0B072070D7080045090800F4
:1002100000B583B000230193094B186868B101AAA7
:100220000021084B9847019B3BB14FF08052064B91
:100230001A60BFF34F8FBFF36F8F03B05DF804FBFD
:100240004C0B0720895E080004ED00E000B583B088
:10025000002301930A4B98470A4B186810B101A973
:10026000094B9847019B3BB14FF08052074B1A60F6
:10027000BFF34F8FBFF36F8F03B05DF804FB00BF78
:1002800041070800500B07209D43080004ED00E0E3
:10029000074B1B78834209D010B50549087002232B
:1002A000002204480068044CA04710BD704700BFFE
:1002B000600B0720540B0720754108002DE9F04121
:1002C00082B06848684DA847684B9847702228213B
:1002D0006748684CA047684E70222C213046A047E2
:1002E00070222D213046A04770222E213046A04793
:1002F0006248A847624B18684FF0FF330093012310
:10030000002203215F4CA04701465F48A847012017
:100310005E4B9847DFF8CC8127465D4E0CE05D4888
:10032000514B98470520594B984715E015F4A05FAD
:1003300024D10A20584B98470024009423460122D8
:100340004FF4E051D8F80000B84705462146306820
:10035000524B98470128E2D0514B1B78013B042BAC
:100360007CD801A252F823F02D0308008B0308006B
:10037000A9030800D10308001704080049483A4BB4
:1003800098470220414B9847D3E7474B98470028AE
:10039000D2D0464B9847464B98474648324B9847F1
:1003A00003203A4B9847C7E74FF0FF320121002066
:1003B000414B9847414B984715F4806FBCD0404B58
:1003C00098474048284B98470420304B9847B3E75C
:1003D0004FF0FF3201210020374B9847374B9847A9
:1003E000394B984715F4006F0AD10028A4D0304B40
:1003F000984736481C4B98470320244B98479BE767
:100400002F4B98472A4B98473148174B9847032062
:100410001E4B984790E72F4B9847144B98470A205C
:100420001D4B984715F4805F86D004202A4B9847CF
:1004300018B12A480C4B98477EE70520264B984771
:100440000028F6D10620244B98470028F1D12448F3
:10045000054B984701200D4B98476DE705200B4B46
:10046000984769E784D708006963080041070800D6
:1004700011020800452208004D020800A0D708001C
:10048000580B072079360800CCD7080091020800E5
:10049000500B072010D808007927080015460800DF
:1004A000600B072030D8080061070800690B0800BE
:1004B000B910080068D80800F55D08005D0C080058
:1004C0006912080084D808008D120800DCD80800E2
:1004D000B0D80800190C0800C123080040D9080052
:1004E00004D90800440B072010B50446104B984768
:1004F00080232360636843F001036360636843F013
:1005000010036360636823F080036360002120466A
:10051000084B9847636823F002036360636823F025
:100520000403636000212046034B984710BD00BFC1
:10053000413408005D340800733408002DE9F041AF
:1005400004460D46164615491846154B984707466A
:1005500000231A4629682046DFF85C80C04708223D
:10056000296820460F4B9847FAB2296820460E4B5F
:1005700098470822296820460C4B9847720829683A
:1005800020460B4B984786F0010202F001022968D1
:100590002046084B9847BDE8F08100BF00BD01052B
:1005A0001B3508000735080031350800C134080044
:1005B00085340800A3340800573508001AB110B478
:1005C0000C46114406E00020704714F8013BC3605C
:1005D000A1420BD043F69923026912F0020FF4D125
:1005E000013BF9D16FF0020010BC70470020FBE71F
:1005F0003AB170B415460C460D44FF2640F2012175
:1006000012E000207047C66043F69923026931EA80
:10061000020204D0013BF9D16FF002000EE08368C2
:1006200004F8013BA5420BD043F69923026912F06E
:10063000020FE8D1013BF9D16FF0020070BC7047A6
:100640000020FBE770B53048304B98470121304B14
:100650001868304B9847304C304D17E00120A847C0
:100660003046A0470028F9D101212D48274B984753
:100670004FF480612B4B1868264B98470120A04708
:1006800080B90220A04730BB0A20A8470020A0471D
:100690000028F3D01420A8470020A0470028EDD060
:1006A0000026DDE71420A8470120A0470028E8D055
:1006B000012601E03046A8473046A0470028F9D17E
:1006C00002211948114B98474FF40061154B1868E7
:1006D000104B9847D5E71420A8470220A0470028D0
:1006E000D2D0022601E00120A8473046A0470028CA
:1006F000F9D103210D48054B98474FF48051094B20
:100700001868044B9847BFE774D90800696308006C
:10071000580B0720B937080055270800792708002B
:1007200094D90800440B0720B4D90800D4D9080094
:1007300008B501210020014B984708BDDD230800C2
:1007400008B500210846014B984708BDDD23080085
:1007500008B50420014B984708BD00BFC12308001D
:100760002DE9F04F83B0534B1B78002B38D1002577
:1007700029460020504CA04729460120A047294681
:100780000220A04701224B4B1A704C4B98474C4B10
:1007900098474C4D4C4F4D4E0024DFF85891DFF8F0
:1007A00048A1DFF8148108E05AF824103078C047D7
:1007B000013401350136032C12D000232B7017F8B9
:1007C000010BC8470028EFD0414B185D414B9847BB
:1007D000414B53F824103078C04701232B70E7E7D2
:1007E0003E4B984740B9374C384E00250127DFF87B
:1007F000D890DFF8008121E039483A4B984700262D
:10080000314600202C4DA8472E4C0027277031463A
:100810000120A847677031460220A847A770254BE2
:100820001F7035E0304B53F825103078224B984735
:100830005746013501340136032D1FD02378002B94
:10084000F7D119F80500C04782460028EAD02946AA
:100850002648244B98473378002101931846DFF847
:1008600058A0D0471A4B585D1A4B98471A4B53F86B
:1008700025100198D04701232370DAE7114B1B782C
:100880008BB1104B5B7883B10E4B9B787BB11FB95A
:10089000384603B0BDE8F08F0022064B1A700F20D7
:1008A000134B9847F4E71F46F2E71F46F0E71F4651
:1008B000EEE700BF610B07202D1B0800D9190800C7
:1008C00031070800640B072004DA0800F4D9080097
:1008D00014DA080085250800F8D908005107080037
:1008E00018DA08006963080008DA080034DA08003A
:1008F000A5220800C123080010B500210120044CE6
:10090000A04700210220A04700210320A04710BDDE
:10091000DD23080008B5012804D0022807D00328E9
:1009200009D008BD01210846054B984708BD0121A3
:10093000034B984708BD0121014B9847F1E700BFE1
:10094000DD2308002DE9F04383B000248DF8074033
:1009500039483A4B98470221394B1868394B984728
:10096000FF25DFF8F480384FDFF8F09023E0052E04
:1009700015D8DFE806F00311404B505B132C04D967
:10098000324B984735460AE000240220C84703202E
:10099000C847002503E000240320C84701250A209A
:1009A0002B4B9847631C2B4CA4FB0324640904EBDA
:1009B0008404A3EBC40400220DF10701D8F8000061
:1009C000B8479DF80760B542D1D0204B98479DF8B5
:1009D0000750052D2ED801A353F825F089090800EA
:1009E00097090800F50908000B0A0800150A080015
:1009F0002B0A08000024132C03D9144B9847022516
:100A0000CDE70220C8470225C9E700240120C847D6
:100A10000325C4E70024132C03D90C4B9847042565
:100A2000BDE70120C8470425B9E700240320C847D3
:100A30000525B4E70024B2E74CDA08006963080032
:100A4000580B0720B9370800F5470800F9080800D7
:100A500079270800CDCCCCCC540B07201509080011
:100A60000B6803604B6843608B68836070470000CD
:100A700038B5054601460B480B4CA04729460B48A4
:100A8000A0470B4B00221A605A609A600023094A63
:100A90001360094A1360094A13600122084B1A7057
:100AA00038BD00BF7C0B0720610A0800D00B07206F
:100AB000C40B0720BC0B0720C00B0720E00B07204E
:100AC000880B07202DE9F843154D00244FF0665898
:100AD000144FDFF8709015E0134B9847134B98476D
:100AE000134E4146B0473946B047124B53F82410D5
:100AF000B0474946104B9847104B43F82400013447
:100B0000032C0AD015F8010B0128E5D90C4B53F83A
:100B100024200A4B43F82420F1E70120BDE8F883A4
:100B20007CDA0800DB0FC940BD240800D98E08001C
:100B3000818F08006CDA0800E9900800680B072034
:100B4000D00B072000003C4238B500252946002084
:100B5000044CA04729460120A04729460220A0476F
:100B600038BD00BF2D1B080070B54FF07E53174AEB
:100B70001360174A13600024164B1C604FF081422B
:100B8000154B1A60154A164B1A604FF07D52154BE3
:100B90001A600023144A1360144A1360144A136045
:100BA000144A1370144B9847144E15493046154D8E
:100BB000A84731461448A847144B1C605C609C60F1
:100BC0000123134A1370134A137070BD3C010720B0
:100BD00038010720780B072044010720CDCCCC3DFD
:100BE0004001072048010720BC0B0720C00B07204D
:100BF000E00B0720DC0B0720C50A08007C0B072050
:100C0000680B0720610A0800D00B0720C40B0720DF
:100C1000740B0720880B072008B50023084A1370BF
:100C2000084A1370084A1360084A1360084A1360A0
:100C3000084B00221A605A609A60074B984708BD1B
:100C4000740B0720880B0720BC0B0720C00B072064
:100C5000E00B0720C40B0720490B08002DE9F04FDB
:100C60008BB0874B9847874B1B7813B1864B1B780B
:100C700023B9864B98470BB0BDE8F08F013B042B9E
:100C800000F26181DFE813F00500160092003C01DC
:100C900052017F497F48804B9847804B00221A6061
:100CA0005A609A607E4FDFF844A20024DFF8409239
:100CB0007C4D5EE17C4B1868002870D07B4DA847C6
:100CC0000746784C7A49A04706467A4B1868A847E9
:100CD0003946794B984782464FF07E594FF00008CD
:100CE0004A464146754FB84705460146744B9847FA
:100CF00001467448744B9847834629462846A047C6
:100D000001465846A04702904A4641465046B847D9
:100D100005466E4930466E4B9847002843D16D49D1
:100D20002846A04701466C48674B98470546314620
:100D30003046A047014628465F4B98470390002461
:100D4000DFF8B0B1DFF894A1DFF87C91DFF84481DF
:100D5000544E524F5BF8245029465AF82400C84795
:100D600001900299B0472946554B984748F824000E
:100D700003990198B04747F824000134032CE9D1C6
:100D80004C4B1B68484A1268934204D201334949CC
:100D90000B609A4286D85148514B984782E74F489A
:100DA0004F4B98477EE700230393C8E70023049343
:100DB000059306930793089309933B4B1C681CB952
:100DC0004648474B98476DE7384D3A4B1868A84757
:100DD00006462046A84701463046374B98474FF015
:100DE0007E520021354B984704460146344B9847C4
:100DF00001463448344B984706462A4D2146204642
:100E0000A84701463046A84783460024DFF8E8A0FB
:100E1000DFF8E890DFF8B0802F46294E5AF82450CA
:100E2000294659F82400C0475946B8472946B047D3
:100E300004AB43F824000134032CEFD107A9184672
:100E4000284B984718B92848254B98472AE707A9FF
:100E50001048114B9847114B00221A605A609A6053
:100E6000144B1B68104A1268934205D20133114992
:100E70000B609A423FF616AF1848194B984711E796
:100E8000C50A0800740B0720880B0720490B0800CF
:100E90007C0B0720D00B0720610A0800C40B072039
:100EA00078DA0800818F0800C00B0720D18E080077
:100EB0006F12833ABC0B0720E99008001523080045
:100EC000718D0800000040406D8D0800BD378635EB
:100ED000D1920800000040410000C040980B07205C
:100EE000710A080081150800680B07207CDA0800E9
:100EF000F9920800B00B0720A40B07208C0B0720E9
:100F000040494148414B9847414B00221A605A6082
:100F10009A60404B1B682BB1013B3E4A1360002B8B
:100F20007FF4C0AE01223C4B1A70BBE6354936480F
:100F3000364B9847364B00221A605A609A6001225D
:100F4000354B1A70AEE6304A00231360536093604D
:100F50002F4A136053609360A4E64FF0000B28E023
:100F6000002138782D4B984701340137032C3FF48A
:100F700082AEA6002A4B53F82410234B53F82400CA
:100F8000284B98470190284BD3F80080274BD3F883
:100F900000B02BF000402649C8470028DDD0254B83
:100FA00019681B4B53F82400A8475946224B984711
:100FB0008346224B19680198A8475946204B984709
:100FC0008346019B23F000401E4B1968C84710B1AF
:100FD0001D4BD3F8008008F10041424658461B4B98
:100FE00098471AF8013B012BBAD8194A1949174BEF
:100FF0009847194BF158A84701463878074B98474E
:10100000B2E700BF7C0B0720D00B0720610A080065
:10101000C40B0720E00B0720880B07202D1B0800BE
:10102000680B07206D8D0800440107203801072058
:10103000BD378635780B0720E99008003C01072072
:10104000718D080040010720480107201523080082
:1010500000EC1F41000020C180DA080008B50D4BEC
:10106000186059609A6019460B480C4B98470C4B16
:1010700000221A605A609A6000230A4A13600A4AE2
:1010800013600A4A13600123094A1370094A137056
:1010900008BD00BF7C0B0720D00B0720610A0800A9
:1010A000C40B0720BC0B0720C00B0720E00B072058
:1010B000740B0720880B072008B5044B9847044B96
:1010C0009A6859681868034B984708BDC50A080014
:1010D000680B07205D10080070B586B01D460390B0
:1010E000049105920023009301930293184B9847B3
:1010F000044610B9204606B070BD164B98471649F5
:101100001648174B984704460028F3D0694603A8B1
:10111000144B984704460028ECD010491248134E4F
:10112000B04769461248B04703A91248B0470022A9
:10113000114B1A60954208BF0125104B1D60104BE2
:101140001A6001220F4B1A7003220F4B1A70D1E75D
:101150006D150800C50A0800A40B0720680B0720BE
:10116000A116080081150800B00B0720610A0800CD
:10117000980B07208C0B0720BC0B0720C00B072007
:10118000E00B0720740B0720880B072030B585B0D3
:101190001C460190029103920D4B98470D490E4851
:1011A0000E4DA84701A90E48A84700220D4B1A6012
:1011B000944208BF01240C4B1C600C4B1A600120A8
:1011C0000B4B187002220B4B1A7005B030BD00BFDC
:1011D000C50A0800680B0720B00B0720610A080049
:1011E000980B0720BC0B0720C00B0720E00B072043
:1011F000740B0720880B072070B505460C46164671
:101200000A4B984738B135B13346AA6869682868EF
:10121000074CA04770BD34B13346A26861682068AE
:10122000044CA04770BD002070BD00BF6D150800C4
:10123000D91008008D110800084B1B7853B1084ADB
:1012400012784AB1002808BF0120064A1060042124
:10125000034A1170184670470023FBE7740B072000
:10126000880B0720E00B07200022014B1A70704703
:10127000DC0B0720044B18780238C0B202288CBF60
:1012800000200120704700BF880B072010B52D4BB0
:10129000984700284BD104462B4B1B78052B41D88F
:1012A000DFE803F0030F17222D354FF4966227492C
:1012B0002748284B984700283CD00122224B1A701F
:1012C00036E04FF49670244B984702221E4B1A705A
:1012D0002EE04FF4E162214921481E4B984758B354
:1012E0000322194B1A7023E04FF4E1621D491E4896
:1012F000184B984710B30422134B1A7018E04FF4A0
:101300009670154B984705220F4B1A7010E04FF45A
:101310009662164916480F4B984788B106220A4B29
:101320001A7005E00022084B1A70012400E0002426
:10133000204610BD0124FBE70124F9E70124F7E76B
:101340000124F5E775120800DC0B07208CDA080091
:10135000BCDA0800F91108003912080098DA080010
:10136000C8DA0800A4DA0800D4DA0800B0DA080005
:10137000E0DA0800F0B110B504460F4900680F4BE1
:10138000984788B10C4960680C4B984770B10A497E
:10139000A0680A4B984758B10749E068074B98473F
:1013A000003018BF012010BD002010BD002010BD6E
:1013B000002010BD00207047BD378635F992080027
:1013C0002DE9F04F83B00C9C002C00F0AF809846C4
:1013D00092460D4604465B4B9847002800F0A980D2
:1013E00028F000405849594B9847002840F0A48005
:1013F000D4F8009009F100430193554E61685046BE
:10140000B0470090A768D4F80CB0524C2946284643
:10141000A0478246009B19461846A0474E4D0146FC
:101420005046A847824641464046A047014650469E
:10143000A847824639463846A04701465046A84745
:10144000824659465846A04701465046B047824614
:1014500049464846A04701465046B0478146414666
:101460004046A847DFF8F8A001464846D0478146E5
:1014700000990198B0474146D04780460146A047B1
:10148000834641460198A0474946A84782465946A7
:101490003846A0473946A8473946A0470546514631
:1014A0005046A04701462846B04704460021274B36
:1014B0009847002843D12046284B98470546254E9B
:1014C00041464846B047224C0146019F3846A04756
:1014D0002946A0478246204D4FF07E515846A847E6
:1014E000014650461E4B9847824601463846A04763
:1014F000044651464046B0474946A84700F10040DF
:101500002146184B98470446514638460F4B98479A
:1015100048B115492046104B98470C9B1860002095
:1015200003B0BDE8F08F0C9B1C60F9E74FF0FF3073
:10153000F6E74FF0FF30F3E74FF0FF30F0E74FF002
:10154000FF30EDE775130800BD378635BD92080002
:101550006D8D0800818F0800718D0800ED72080004
:10156000E9900800E9720800DB0F494008B502481D
:10157000024B984708BD00BFECDA0800751308005D
:101580002DE9F04F87B000230593049303930028BF
:1015900071D00446002970D00D463A483A4B98471E
:1015A000064618B9304607B0BDE8F08FA3686268F8
:1015B000216805A800903348344FB84708B1002689
:1015C000F0E7D4F80090D4F80480D4F808B0304F95
:1015D0004FF03F414046B84782462E494846B847FB
:1015E000014650462C4B984782464FF03F414846B3
:1015F000B847814627494046B84701464846274BE9
:10160000984704AB00935B46524601461D481F4F66
:10161000B84708B10026C5E7D4F800806768D4F859
:1016200008A01B4C4FF03F413846A047814619495E
:101630004046A04701464846184B984781464FF020
:101640003F414046A047804612493846A0470146E0
:101650004046114B984703AB009353464A46014618
:1016600008480A4CA04750B9059B2B60049B6B604F
:10167000039BAB6096E7002694E7002692E70026DE
:1016800090E700BFECDA080075130800C1130800EA
:10169000818F0800D7B35D3F6D8D0800718D080004
:1016A0002DE9F04F8FB0002800F07C81044600291E
:1016B00000F07B818B468B488B4B9847009000282D
:1016C00000F07881D4F80080D4F804A0D4F8089011
:1016D0004046864FB847864C0021A047854E0021E2
:1016E000B04705464046DFF82082C0470490504688
:1016F000B8470021A0470021B0474FF07C51A047D8
:1017000005907D49A04701905046C0470690484645
:10171000B8470021A0470021B0474FF07C51A047B7
:10172000074600F100407449A04782464846C0473A
:10173000804605992846B047814639462846B04735
:101740000390CDF81C904946CDF808A05046A0471C
:10175000064603990198A04701463046674B9847D3
:10176000824620F000406649664B9847002840F0CA
:101770001F8100210498A047064600210698A04733
:10178000814600214046A0470890314606963046E3
:10179000A047064629462846A047DFF858810D96FF
:1017A0003146C0470990554E49460698B0470A90C1
:1017B00008990698B0470B900A990398A04704909F
:1017C0000B990798A04701460498B0470490019AE6
:1017D00011461046A0470C90DDF814E071467046A3
:1017E000A04701460C98C047059049464846A04787
:1017F00001460598C0470999B0470C90029B1946CD
:101800001846A047814639463846A0470146484613
:10181000C0470746DDF820E071467046A047014604
:101820003846C0470999B04707460C990398A04726
:10183000814639460798A04701464846B04700F11F
:1018400000404FF07C51A04703900B990198A047AE
:1018500081460A990298A04701464846B04705903C
:101860000C990298A047814639460198A047014645
:101870004846B0474FF07C51A04701905146504632
:10188000A0478146049F39463846A0470746059A37
:1018900011461046A04701463846C0474946C04752
:1018A000029005F100405146A04701460198B0471B
:1018B000054603990498A047074629460598A0477E
:1018C00001463846C0470746069B03F10040514693
:1018D000A0475146A04701463846B0470146C04799
:1018E000074613E0ECDA080075130800F5710800EC
:1018F000818F0800718D0800D7B3DD3F6D8D080022
:10190000BD378635BD9208006D7208000146A047BC
:10191000069029462846A0470546039B19461846C7
:10192000A04701462846C047054649460D98A047AE
:1019300001462846C04705464FF08141DDF8088042
:101940004046A04701462846A04701460698B047B2
:10195000044600211B4B984700282FD120461A4BE4
:1019600098471A4D01463846A847194E4FF03F4157
:10197000B047184C4146A0470746CBF8080001463F
:101980000498B0470399A8475146A047CBF80000F8
:1019900039460598B0470199A8475146A047CBF86A
:1019A000040007E00023009304E00023009301E01B
:1019B0000023009300980FB0BDE8F08F0023009340
:1019C000F8E700BFBD920800ED720800718D0800B5
:1019D000818F0800E990080070B583220021084635
:1019E000084EB0470020084DA8470020074CA047EC
:1019F000832200210120B0470120A8470120A047F1
:101A000070BD00BF31240800392508008525080075
:101A100038B525200C4B98470C4C08230C4A0D492F
:101A200020460D4DA84701234FF4401200212046C7
:101A30000A4DA84700212046094B9847002211462D
:101A40002046084B984738BDE96F080000000C405D
:101A500040420F00007A030AD13308002334080003
:101A60000534080015340800032800D9704708B56C
:101A70000021024B185C024B984708BDFCDA0800B5
:101A8000D91D0800032800D9704708B50121024B71
:101A9000185C024B984708BDFCDA0800D91D080005
:101AA00038B5032803D96FF07F04204638BD0546BA
:101AB000C1F30B0444F4E044044B98472046044B24
:101AC000984704462846034B9847EEE7691A0800F2
:101AD00095260800851A08002DE9F8430E4B984713
:101AE0000E4C04F104090126DFF83C800C4F14F879
:101AF000015B31462846C04731462846B8474C4529
:101B0000F5D100242646074D3146E0B2A8470134FE
:101B1000042CF9D1BDE8F883F9250800FCDA0800A7
:101B2000D91D0800A11A0800F91C080070B582B080
:101B3000064608460A4D0B4C2A4621460A4B984752
:101B40000A4B009300232A462146094CA047094B23
:101B5000984781B23046084B984702B070BD00BF2D
:101B600000EC1F41000020C11523080000F07F4554
:101B7000CD22080085930800A11A080030B45D4BFF
:101B80001C1FFC332146002241F8042F9942FBD14F
:101B9000584B39221A645C225A6459229A6458229A
:101BA000DA6457221A6556225A6555229A656722C9
:101BB000DA6568221A660B229A660A22DA663B22E6
:101BC0005A662C221A672D225A6711229A6712220E
:101BD000DA6710221A6018225A6017229A601622B9
:101BE000DA6006221A6104225A6103229A610222F3
:101BF000DA6131221A6232225A6233229A62342224
:101C0000DA623A22C3F880200E22C3F884200F2221
:101C1000C3F888206022C3F88C206122C3F890208A
:101C20006222C3F894206322C3F898206622C3F886
:101C30009C206922C3F8A0200722C3F8A4206A22AE
:101C4000C3F8A8204122C3F8AC204222C3F8B02038
:101C50004322C3F8B4204422C3F8B8204522C3F875
:101C6000BC204622C3F8C0204722C3F8C420482223
:101C7000C3F8C8204922C3F8CC201322C3F8D020CF
:101C80001422C3F8D4205322C3F8D8205222C3F818
:101C9000DC205122C3F8E0205022C3F8E4204F2278
:101CA000C3F8E8204E22C3F8EC204D22C3F8F02000
:101CB0004C22C3F8F420012554F8043F03F01F021E
:101CC00005FA02F25B0903F5001303F207735B02E6
:101CD0001A605A61C3F8A0205A635A665A655A625C
:101CE000C3F88020186F20EA02021A678C42E3D101
:101CF00030BC7047E40B07203F2817D80E4B53F831
:101D00002020530903F5001303F207735B02012936
:101D10000DD021B902F01F0001218140596102F06C
:101D20001F02012101FA02F2C3F8A020704702F05D
:101D30001F0081401961F2E7E40B07203F2800D91A
:101D40007047174B53F8203003F01F0001228240E8
:101D50005B0903F5001303F207735B0211F0080F30
:101D600014BF5A661A6611F0200F14BF1A655A651F
:101D700011F0C00F14BF1A625A6211F0800F14BF25
:101D8000C3F88420C3F8802011F0010F04D1196F2B
:101D900021EA02021A67D3E7196F0A431A677047EC
:101DA000E40B07203F2811D80A4B53F82020530991
:101DB00003F5001303F207735B0202F01F02012117
:101DC00001FA02F2D96B0A4201D11A6370475A63D1
:101DD000704700BFE40B07203F280FD80B4B53F888
:101DE0002020530903F5001303F207735B0231B996
:101DF00002F01F02012101FA02F25A63704702F059
:101E00001F02012101FA02F21A637047E40B072056
:101E10003F2813D80A4B53F82020530903F5001329
:101E200003F207735B02D96B02F01F02012303FA6E
:101E300002F20A4214BF1846002070470020704783
:101E4000E40B07203F289ABF024B53F820000020E4
:101E5000704700BFE40B0720012846D838B5254B52
:101E600003EB4013DB680BB1012038BD0446214A67
:101E70004301D018D35803F01F01012202FA01F1E7
:101E80005B0903F5001303F207735B0259604368B3
:101E900003F01F018A405B0903F5001303F2077387
:101EA0005B025A606420144B984700B3114B03EB5C
:101EB00044130A2199610F215977186164225A61EC
:101EC00003221A770B4D194610310C4B0C48002C8D
:101ED00018BF18460B4B984705EB4414E0600A4ABC
:101EE0000A490B4B9847012038BD0020704700205D
:101EF00038BD00BFE80C07202D3C08000000094059
:101F000000C00840C92C080000BD0105801A060069
:101F100081350800012801D9FF2070472DE9F04FD5
:101F200083B040B1012802D00025019506E01D25AF
:101F30001C23019302E01F251E2301930021019F12
:101F40003846554EB04708213846544CA04700212A
:101F50002846B04708212846A0475148514B98478A
:101F60002846514B984768B900213846B0470821A8
:101F70003846A04700212846B04708212846A047F8
:101F800002204EE00198484B984730B94FF0280A9C
:101F9000DFF80491DFF804B109E0002041E0019886
:101FA000414B9847002850D1BAF1010A3CD000219A
:101FB0002846C84700212846D84701212846C84757
:101FC0007820384CA04700212846C84708212846D9
:101FD000D8477820A047354A137801331370284634
:101FE000314B98470028DAD11424DFF8B4802D4F04
:101FF0002D4E4046B8472846B0470028CFD1013C77
:10200000F7D10021019C2046234EB04708212046ED
:10201000224CA04700212846B04708212846A04767
:10202000042003B0BDE8F08F0021019C20461A4E29
:10203000B04708212046194CA04700212846B04748
:1020400008212846A0470320EBE70021DDF80480A3
:102050004046114CA04700214046104EB047012198
:102060004046A04778200F4FB84700214046A04780
:1020700008214046B0477820B84700214046A04795
:1020800008214046B04700212846A047082128469D
:10209000B0470120C5E700BFF91C08003D1D08003E
:1020A000C027090001000720111E0800E40C0720CA
:1020B0002DE9F041164B1C7814B12046BDE8F081A3
:1020C0000020144CA0470120A047134D40220021BE
:1020D0002846124B98471F20114EB04768601E20BB
:1020E000B04728600027EF603846DFF83880C047E7
:1020F00004461D20B04768621C20B0472862EF628A
:102100000120C047002808BF0446014B1C70D4E7DB
:10211000E50C0720151F0800E80C0720C19A0800ED
:10212000451E0800591E080070B108B5006800F08F
:102130001F03400900F5001000F2077001219940CB
:102140004002024B984708BD704700BF756C0800FD
:1021500070B108B5006800F01F03400900F50010D9
:1021600000F20770012199404002024B984708BDD8
:10217000704700BF796C08002DE9F04F83B001F083
:102180001F040125A5404C0904F5001404F207744E
:10219000640225606561C4F8A05065666565656286
:1021A000C4F88050266F26EA050626671E4EB44204
:1021B00011D009D91D4B9C4231D003F500739C42CC
:1021C00030D10E26B04608E0A6F500739C4229D116
:1021D0000B26B04601E00C26B04691468A4683465F
:1021E0004046134B98470420124B98470746C0F8C7
:1021F00000A0114B9847CDF800B04B462A46414607
:1022000020460E4CA0470E4A9319F02183F8001384
:102210000123B3401360384603B0BDE8F08F0D26AC
:10222000B046DAE70027F6E700100E4000120E4035
:10223000E96F08002194080051210800416E080050
:1022400000E100E038B5044615460846044B9847BF
:102250002A4601462046034B9847034B984738BD12
:10226000451E080079210800292108002DE9F843BE
:10227000094C04F104094FF00108084F084E14F806
:10228000015B41462846B84700212846B0474C45E7
:10229000F5D1BDE8F88300BF00DB0800F91C080099
:1022A000D91D0800F8B50746064D0024064E47FA2A
:1022B00004F101F0010115F8010BB0470134042CC1
:1022C000F5D1F8BD00DB0800D91D08002DE9F0416B
:1022D000884617461D460B4CA047064629460698D9
:1022E000A04701463046084B9847064641463846C7
:1022F000A04701463046054B98472946044B98476E
:10230000BDE8F0816D8D0800818F0800E99008001C
:10231000718D080070B505460C461646064B984769
:1023200030B931462846054B984718B9284670BD44
:10233000204670BD304670BDBD920800F99208007D
:102340002DE9F8431A4E751E07364FF00009DFF8E5
:102350006C80012715F8014F49462046C04704F01C
:102360001F0207FA02F2630903F5001303F2077371
:102370005B025A665A655A62C3F88020196F21EAD7
:1023800002021A67AE42E5D10A4E741E07364FF0BC
:102390000109DFF82880084F14F8015F49462846F4
:1023A000C04700212846B847B442F5D1BDE8F883BC
:1023B00004DB08000CDB0800D91D0800F91C08002C
:1023C000072801D90020704708B5024B185C024B62
:1023D000984708BD04DB0800111E0800072800D933
:1023E000704708B5024B185C024B984708BD00BF08
:1023F0000CDB0800D91D0800012800D9704708B57A
:102400000021024B185C024B984708BD14DB080002
:10241000D91D0800012800D9704708B50121024BD9
:10242000185C024B984708BD14DB0800D91D080052
:10243000012800D970470129FCD870B5154604461B
:1024400000290CBF88269026054B98473046054E3C
:10245000B0472846B0472046034B984770BD00BFA1
:10246000F9230800792608001524080030B583B048
:10247000FF238DF80730012803D99DF8070003B02A
:1024800030BD0129F9D8044600290CBF4825502544
:10249000064B98472846064B98470DF10700054B19
:1024A00098472046044B9847E7E700BFF923080008
:1024B00079260800CD26080015240800F0B583B061
:1024C00000238DF80730012803D90025284603B0E2
:1024D000F0BD06460B4B984760200B4B98470424F1
:1024E00000250A4F0DF10700B8479DF8073043EA71
:1024F0000525631E13F0FF04F4D13046044B9847C2
:10250000E4E700BFF923080079260800CD2608007B
:102510001524080010B504460121054B984740F0EA
:102520000402D2B201212046024B984710BD00BFE1
:102530006D2408003124080010B504460121044B25
:10254000984700F0FB0201212046024B984710BD3E
:102550006D24080031240800012800D9704738B5DF
:102560000D460446044B98472846044B984720469E
:10257000034B984738BD00BFF923080079260800AF
:102580001524080008B52021014B984708BD00BF5D
:102590005925080070B5124B984701213920114D7B
:1025A000A84701213920104CA04701213B20A84712
:1025B00001213B20A047A122002108460B4EB04735
:1025C00000200B4DA84700200A4CA047A122002163
:1025D0000120B0470120A8470120A04770BD00BFDF
:1025E000F9250800F91C0800D91D0800312408004D
:1025F00015250800852508000B4B1B7803B1704793
:1026000030B583B0094C2046094B98470022009210
:10261000084B09492046094DA84701232360024A77
:10262000137003B030BD00BF280D072000800040AC
:10263000E904080000093D002C0D07203D050800B5
:10264000024B1869C0F34020704700BF0080004073
:1026500038B50A4601460548054B98470546054CDE
:10266000A0470028FCD0284638BD00BF00800040AD
:10267000BD0508004126080000B583B002AB03F891
:10268000010D01211846024B984703B05DF804FB89
:102690005126080000B583B0030A8DF804308DF888
:1026A0000500022101A8024B984703B05DF804FB26
:1026B0005126080008B50A4601460248024B9847D1
:1026C00008BD00BF00800040F105080010B582B0D1
:1026D000044602A8FF2300F8013D0121034B98475F
:1026E0009DF80730237002B010BD00BFB52608006A
:1026F00008B501211920034B984700211920024BEE
:10270000984708BDF91C0800D91D080008B5192014
:10271000014B984708BD00BFA51D08002DE9F843EF
:10272000094C04F104094FF00008084F084E14F852
:10273000015B41462846B84708212846B0474C452A
:10274000F5D1BDE8F88300BF18DB0800F91C0800CC
:102750003D1D0800032801D90020704708B5044B2F
:10276000185C044B984780F00100C0B208BD00BF60
:1027700018DB0800111E080008B5014B984708BD7A
:10278000BD52080010B40C4669B103689A420CD0DF
:10279000034600200130844203D053F8101F9142B9
:1027A000F8D110BC70470846FBE70020F9E7002A83
:1027B00010DD0B7883420FD04B1C11448B420FD09D
:1027C00010B413F8014B844208D08B42F9D1002099
:1027D00010BC704700207047012070470120F7E7C8
:1027E00000207047F8B506460C46154610F0010F5C
:1027F0001DD116F0040F37D10023236016F0080F07
:1028000056D0002D54D00322002101202A4B984796
:102810002860002843D000231A461946274CA047B9
:10282000286800283BD00021254B9847F8BD03229B
:1028300000210120204B9847606060B100231A46B8
:1028400019461E4FB847606828B100231A4619463A
:102850001A4FB847CDE74FF0A00383F31188BFF3B9
:102860006F8FBFF34F8FFEE7032200210120124B31
:102870009847206050B100231A4619460F4FB847B9
:10288000206818B100210E4B9847B7E74FF0A0031E
:1028900083F31188BFF36F8FBFF34F8FFEE74FF0C5
:1028A000A00383F31188BFF36F8FBFF34F8FFEE751
:1028B00000232B60F8BD00BFD94008007541080017
:1028C000154608000F2908D94FF0A00383F311889B
:1028D000BFF36F8FBFF34F8FFEE7092908D84FF082
:1028E000A00383F31188BFF36F8FBFF34F8FFEE711
:1028F000002813DB30B4450900F01F0301229A4081
:102900000A4C05F1600344F823200B01DBB220449C
:1029100080F8003344F8252030BC704700F00F00E9
:102920000B01DBB2024A1354704700BF00E100E024
:1029300014ED00E02DE9F041064690461F468569FA
:102940008D421FD08D4232BF4C1B4468641BBC4279
:1029500007D31ED000231A4619463069114CA047F0
:102960003C462246B16940460F4B98472544736860
:102970009D4210D20D4B9847B5610D4B98472046AC
:10298000BDE8F081C36813B94468641BDFE7002425
:10299000DDE73C46E5E7054B98473368B361044BF8
:1029A0009847ECE775410800D5990800953908006B
:1029B000D93908004368BBB130B583B00D46044631
:1029C00068460C4B9847296860680B4B984768B17C
:1029D00029466846094B9847012802D0002003B0D9
:1029E00030BD00202860FAE7002070476FF0020039
:1029F000F5E700BFF5560800154608004D570800DA
:102A0000F0B583B00F4616461C46089B9DF824502F
:102A1000B3B1036000211846134B98470097019605
:102A200095B902212046114B98470022694620465D
:102A30000F4B9847012120460E4B984703B0F0BD3D
:102A40000368002BEAD0E5E74FF400712046074BFE
:102A50009847002269462046074B98474FF48071FB
:102A60002046044B9847E9E7154608002D6A080000
:102A7000096A0800216A0800F169080009B100200C
:102A80007047006848B108B51146054B98470128C2
:102A90000CBF00206FF0020008BD0020704700BF8F
:102AA000154608002DE9F04182B007460023019346
:102AB00003017B4AD55828467A4B98470646284654
:102AC000794B9847064016F4005F35D14FF0000867
:102AD00016F4805F7CD116F4507F02D1B8F1000F5C
:102AE0001DD06F4B03EB071340F2022158686F4B68
:102AF000984716F4807F04BF02232B604FF40051E7
:102B000028466B4CA0474FF480512846A047694B9C
:102B100003EBC707786810B101A9674B9847019B81
:102B20003BB14FF08052654B1A60BFF34F8FBFF33C
:102B30006F8F02B0BDE8F081594B03EB07134FF4E0
:102B400000715868594B98474FF400512846584B2C
:102B5000984700242B6A13F0040F06D10134B4F116
:102B6000FF3FF7D14FF0010801E04FF000080223CA
:102B70002B60534B03EBC70253F8373052681344B2
:102B800013F8013C6B632B6A13F0010F0CD1013475
:102B9000B4F1FF3FF7D1474B03EBC7035868002858
:102BA0007AD04FF0010804E0424B03EBC7035868AA
:102BB00010B101A9404B9847B4F1FF3F88D03D4B7D
:102BC00053F83700002883D001A93B4B98477FE793
:102BD000334B03EB071302215868344B98474FF4EB
:102BE00080512846324B984700242B6A13F0020F7D
:102BF00003D10134B4F1FF3FF7D102232B60304BF6
:102C000053F8372003EBC7035968286B531803F8B0
:102C1000020C2B6A13F0020F1BD10134B4F1FF3FF9
:102C2000F7D1244B03EBC703586800283FF453AF98
:102C300001A9214B9847B4F1FF3F3FF44CAF214B22
:102C400053F8370000283FF446AF01A91A4B9847C4
:102C500041E7B4F1FF3F0ED02B6B0A4402F8013C70
:102C600000242B6A13F0010F0FD10134B4F1FF3FA0
:102C7000F7D14FF001080F4B03EBC703586800284A
:102C80003FF429AF4FF0FF34D2E70A4B03EBC70301
:102C900058680028CCD1CEE74FF0010818E700BFF4
:102CA0001CDB080043360800473608002D6A080080
:102CB0003D360800500D07209D43080004ED00E05C
:102CC000400D0720300D07202DE9F04F83B004465A
:102CD0000D4602AF032307F8043D024602213548A2
:102CE000354B9847064601223946287B334B984797
:102CF000012E59DC00285BD04FEAC609304B03EBAC
:102D0000090808222F4940462F4B984740B14FF001
:102D1000A00383F31188BFF36F8FBFF34F8FFEE7DC
:102D20002A4B9944082227494846274B984740B1E7
:102D30004FF0A00383F31188BFF36F8FBFF34F8F62
:102D4000FEE7DFF870A037010AEB070BDBF808009D
:102D50001F4B984740F20221DBF804001D4B9847B7
:102D60005AF807704FF0FF3138461B4B98473846EA
:102D70001A4B98472B7B032B02D13846184B9847A8
:102D80004A464146687B174B98474FF45071384686
:102D9000154B9847074B03EB0616A96896F90C00EC
:102DA000124B9847204600E0002003B0BDE8F08FAA
:102DB0000020FAE71CDB080085270800AF27080081
:102DC000500D07203CDB080075990800300D0720E6
:102DD000E96F08002D6A08003D3608004B360800F0
:102DE00073350800E527080039360800C5280800B3
:102DF00008B50020014B984708BD00BFA52A080070
:102E000008B50120014B984708BD00BFA52A08005E
:102E100070B5C0EBC002304B03EB82039A699B682C
:102E20009A4214D151B9C0EBC0012B4A02EB810286
:102E30000021D160526893421CD82EE0C0EBC00143
:102E4000254A02EB81025168C91AD16008E09A4212
:102E500019D9C0EBC004204901EB8401D21ACA6021
:102E6000C0EBC0011C4A02EB8102D1680B445268DE
:102E7000934211D94FF0A00383F31188BFF36F8FF2
:102E8000BFF34F8FFEE7C0EBC001134A02EB810294
:102E90005168C91AD160E3E731B9000109210F4B2C
:102EA00018580F4B984770BD0C4D04012B195E68E4
:102EB000C0EBC000084901EB800100220831304618
:102EC000084B984701213046074B9847092128595C
:102ED000064B984770BD00BF600D072044DB08001B
:102EE0008F6A0800096A0800216A08008B6A0800D6
:102EF0002DE9F04782B00546884616464FF0010995
:102F000002AF07F8049D024649465948594B984775
:102F100004464A463946307B574B9847002C00F30D
:102F2000A380002800F0A280C4EBC402534B03EB43
:102F300082039B6943B14FF0A00383F31188BFF371
:102F40006F8FBFF34F8FFEE728464D4B98472846BB
:102F50004C4B9847464F07EB0417D7F8049040F2C4
:102F600002214846484B9847B868484B9847337BFE
:102F7000012B03D141462846454B98474FF0FF317E
:102F80002846444B98470022434901EBC401707B1B
:102F9000424B98473368002B5ED000214FF0FF3042
:102FA0003F4B9847C4EBC402344B03EB82031861D8
:102FB00040B94FF0A00383F31188BFF36F8FBFF3C5
:102FC0004F8FFEE7DFF8B4A0C4EBC4084FEA8808CF
:102FD0000AEB08073368BB607368FB603946002260
:102FE000083148462F4B98473368BB61BA684AF8A6
:102FF0000820736813447B60737B13F0020F0DD0BD
:103000000120294B9847786140B94FF0A00383F322
:103010001188BFF36F8FBFF34F8FFEE7092128465A
:10302000224B984701214846214B9847104F2401D5
:103030003B19B16893F90C001E4B9847E0213859B1
:103040001A4B984728461C4B984728461B4B9847D5
:10305000284602B0BDE8F087C4EBC402074B03EB7F
:10306000820301229A61E1E70020F2E70020F0E705
:1030700044DB080085270800AF270800600D072003
:10308000796A0800856A08002D6A0800E96F08005F
:103090003D6A08008F6A08007C0D0720E5270800BC
:1030A00041410800096A0800714308008B6A080062
:1030B000216A0800C5280800736A08007F6A0800B2
:1030C0002DE9F04184B005460E46174603930246AB
:1030D00001211748174B9847B0F1000825DC164C22
:1030E00004EBC80403A92046144B9847034618B1C3
:1030F000184604B0BDE8F0810D4B03EB0818D8F872
:103100000430012201920A9A00923A463146204642
:103110000B4EB047102128460A4B9847039A0A994C
:103120002046094B98470346E2E76FF00703DFE7C5
:1031300044DB0800852708007C0D0720B52908001E
:10314000012A08008B6A08007D2A08002DE9F04F4B
:1031500087B08B4690460393024601214B484C4B67
:103160009847C0EBC0024B4B03EB82039B694BB10A
:103170000446012B0FD0002816DD0025284607B095
:10318000BDE8F08F4FF0A00383F31188BFF36F8F7A
:10319000BFF34F8FFEE74FF0A00383F31188BFF317
:1031A0006F8FBFF34F8FFEE73A49C0EBC0039B0020
:1031B000CA185268CB58D31A434551D304A8364B8A
:1031C0009847C4EBC402334B03EB820358690028D1
:1031D00048D00399314B9847012810D103A904A87E
:1031E0002F4B984701283DD1C4EBC404294800EB7C
:1031F000840000231A46194640692A4CA04700253E
:10320000BCE701210298284B984718E0A84519D936
:1032100003A904A8224B9847A0B903993069D04765
:103220007B681968A8EB05030BEB05020198C847FA
:103230002D18EBD01D4B9847F368002BE1D01C4BA9
:103240009847E3E7C4EBC404124B03EB84035869CB
:10325000002893D000231A461946124CA0478DE748
:1032600000258BE70294C4EBC4030A4A02EB8303F4
:1032700001930025C4EBC40302EB8306DFF81CA016
:10328000024F07EB0417DFF82C90C6E744DB080079
:1032900085270800600D0720F55608001546080030
:1032A0004D57080075410800112E08009539080097
:1032B000D93908003529080030B583B000230193BF
:1032C000394D2846394B984704462846384B98478D
:1032D000044014F0100F32D114F0080F1BD0354BFE
:1032E0009B69002B3DD0012B44D0324A9368D168B2
:1032F0000B4493605268934202D32E4B1A689A6033
:10330000002108462C4B98472A4B186900283AD0D0
:1033100001A92A4B9847002C37D1264B186910B1C8
:1033200001A9264B9847019B3BB14FF08052244B9B
:103330001A60BFF34F8FBFF36F8F03B030BD102102
:103340002846204B9847204B586810B101A91B4BC9
:1033500098471D4B18680028BED001A9174B984705
:10336000BAE74FF0A00383F31188BFF36F8FBFF369
:103370004F8FFEE74FF0A00383F31188BFF36F8FE9
:10338000BFF34F8FFEE7002CCDD014F0E00FCAD072
:1033900005480E4B98470C4B58680028C3D001A92C
:1033A000064B9847BFE700BF00080E40976A080029
:1033B000936A0800600D0720112E08009D43080045
:1033C00004ED00E08F6A08007C0D07209B6A08006E
:1033D00030B4012404600024446040F20225C0F8A7
:1033E0002051C0F80441C0F8144145685200B1FBB7
:1033F000F2F2013A120292B22B431A434260204683
:1034000030BC7047436823F010034360436819439E
:10341000416070474368D201D2B219430A43426007
:10342000704710B44468090601F0706121430A43F3
:10343000190701F040511143416010BC7047000072
:1034400008B5044B984200D008BD1820024B98479D
:10345000FAE700BF00800040E96F0800436823F4EA
:10346000702343604368090401F4702119434160EB
:103470007047436823F07F434360436843EA016138
:103480004160704732B900EB8100036B23F0010308
:103490000363704700EB8100036B43F00103036398
:1034A000704732B900EB8100036B23F00203036322
:1034B000704700EB8100036B43F002030363704726
:1034C000042A03D06AB1082A16D0704700EB8100A5
:1034D000036B23F008030363036B43F004030363EC
:1034E000704700EB8100036B23F008030363036B59
:1034F00023F004030363704700EB8100036B43F088
:1035000008030363E1E700EB81010B6B23F0F00399
:103510000B630B6B1A430A637047431E1944B1FBDC
:10352000F0F0431EFE2B94BF00B24FF0FF30704707
:1035300072B110B4144600EB81010B6B23F47F438E
:103540000B630A6B42EA04220A63002010BC704736
:103550004FF0FF30704710B400EB8101086B80B270
:1035600008630C6B44EA036343EA02430B6310BC39
:10357000704708230360202303600423036070471F
:103580002A4B994249D8A3F57A5399422BD910B4C2
:10359000274CA4FB0234A40B043C264B0B449B0099
:1035A000B2FBF3F2043AFF2C39D90021013164084F
:1035B000FF2C0DD90729F9D113029BB2090401F49C
:1035C000E0210B43E4B223430361002010BC7047A9
:1035D000FF2AF1D90629EFD801315208FF2AEBD989
:1035E0000629F9D9E8E74900B2FBF1F2043AFF2ACB
:1035F00011D9002301335208FF2A01D9072BF9D131
:10360000110289B21B0403F4E0230B43D2B21A4324
:103610000261002070470023F2E701207047FF2A73
:1036200088BF0021D8D80021C6E700BF801A060055
:10363000F11976050012FD3F416270478162036A0D
:103640007047006A7047C06A704780230360036B4D
:103650007047000010B51C20054B9847044620B168
:10366000002340F8043B034B9847204610BD00BFA1
:103670002D3C08006D3808002DE9F843DDF8209056
:1036800060B1064611F07F4F11D04FF0A00383F3D5
:103690001188BFF36F8FBFF34F8FFEE74FF0A0038A
:1036A00083F31188BFF36F8FBFF34F8FFEE741B9EC
:1036B0004FF0A00383F31188BFF36F8FBFF34F8FD9
:1036C000FEE7984617460C46334B984758B9B9F170
:1036D000000F08D04FF0A00383F31188BFF36F8F62
:1036E000BFF34F8FFEE72D4B98473568B8F1000FB9
:1036F0000DD12C4214BF0123002373B117B125EA69
:1037000004043460264B98472846BDE8F88334EA21
:1037100005030CBF01230023EFE7B9F1000FF1D03F
:10372000002F0CBF00214FF08071B8F1000F01D0C5
:1037300041F080614A462143301D1A4B9847184B8F
:10374000984738B94FF08052174B1A60BFF34F8F2C
:10375000BFF36F8F154B9847054610F0007F10D1CF
:10376000134B98473568B8F1000F0ED12C4214BFA7
:10377000012300231BB117B125EA040434600D4B6B
:10378000984725F07F40BDE8F88334EA05030CBF75
:1037900001230023EEE700BFAD5908003D4F0800AC
:1037A000215108004D54080004ED00E0C15D0800FF
:1037B00095390800D939080070B12DE9F041044667
:1037C00011F07F4F11D04FF0A00383F31188BFF3A6
:1037D0006F8FBFF34F8FFEE74FF0A00383F3118885
:1037E000BFF36F8FBFF34F8FFEE70D4600F10C065E
:1037F0001B4B9847206923682B432360864224D0C3
:103800000025DFF8648009E0216833EA01010CBF7C
:10381000012100210EE03846BE4217D047680268F9
:1038200022F07F4312F0806FEED121680B4214BF6B
:10383000012100210029EED012F0807F18BF1D4326
:10384000216841F00071C047E5E70025236823EABD
:1038500005032360034B98472068BDE8F08100BF53
:103860003D4F0800215108001156080000F10803DF
:1038700043604FF0FF328260C36003610023036046
:10388000704700230361704730B40D68B5F1FF3F06
:1038900002D000F1080202E0026904E01A4653680F
:1038A0001C68A542FAD253684B6099608A605160E7
:1038B000086103680133036030BC704703694268E4
:1038C000816891608268416851605A68904204BF83
:1038D00082685A60002202611A68013A1A60186808
:1038E0007047000082B0002301930D4B1B68B3F1B9
:1038F000FF3F08D04FF0A00383F31188BFF36F8F11
:10390000BFF34F8FFEE74FF0A00383F31188BFF39F
:103910006F8FBFF34F8F019B002BFCD002B070471D
:103920004C01072006480068006880F3088862B6EA
:1039300061B6BFF34F8FBFF36F8F00DF00BF000092
:1039400008ED00E04FF0807340F8043C21F00101E5
:1039500040F8081C034B40F80C3C40F8202C403841
:10396000704700BFE53808000000000000000000BC
:10397000074B19680868B0E8F00F80F30988BFF3B7
:103980006F8F4FF0000080F311884EF00D0E7047DE
:10399000ACAD07204FF0A00383F31188BFF36F8F06
:1039A000BFF34F8F0A4A136801331360012B0DD107
:1039B000084B1B6813F0FF0F08D04FF0A00383F3F0
:1039C0001188BFF36F8FBFF34F8FFEE7704700BFC3
:1039D0004C01072004ED00E0094B1B6843B94FF090
:1039E000A00383F31188BFF36F8FBFF34F8FFEE700
:1039F000013B034A13600BB983F31188704700BF82
:103A00004C01072000000000000000000000000042
:103A1000EFF30980BFF36F8F0D4B1A6820E9F00FA9
:103A200010602DE908404FF0A00080F3118801F0EC
:103A300071FC4FF0000080F31188BDE80840196860
:103A40000868B0E8F00F80F30988BFF36F8F704704
:103A5000ACAD072008B54FF0A00383F31188BFF386
:103A60006F8FBFF34F8F054B984718B14FF08052BF
:103A7000034B1A60002383F3118808BD6D4F0800C3
:103A800004ED00E0054B00221A6005490A60054973
:103A9000054A116007221A60704700BF10E000E07D
:103AA00018E000E01F48010014E000E010B582B00B
:103AB000294B1A78D2B20192FF221A701B78DBB21E
:103AC0008DF803309DF8033003F0A003234A1370F0
:103AD0000722234B1A609DF8033013F0800F12D099
:103AE000062300E00B469DF803205200D2B28DF869
:103AF00003209DF80320591E12F0800FF2D1184ABE
:103B00001360032B08D04FF0A00383F31188BFF399
:103B10006F8FBFF34F8FFEE71B0203F4E063104A81
:103B20001360019BDBB20C4A13700E4B1A6842F40F
:103B300070021A601A6842F070421A600A4B984785
:103B400000240A4B1C600A4B98470A4B98470A4BC3
:103B50009847204602B010BD00E400E0840D072025
:103B6000880D072020ED00E0853A08004C01072071
:103B70002539080015530800E5380800EFF30583E0
:103B80000F2B0FD9104A9B5CDBB2104A12789A4275
:103B900008D94FF0A00383F31188BFF36F8FBFF3F1
:103BA0004F8FFEE70A4B1B6803F4E063094A126873
:103BB000934208D94FF0A00383F31188BFF36F8FAE
:103BC000BFF34F8FFEE77047F0E300E0840D07205E
:103BD0000CED00E0880D072010B4124B1A688242E9
:103BE0001AD35C681919884203D14168214459608D
:103BF000184641684418A24212D10B4C2468A242D4
:103C00000CD052680A4442601A68126802609842F6
:103C100018BF186010BC70471346DFE70260F6E774
:103C20000260F4E7A4AD07208C0D0720F8B5044628
:103C30004C4B98474C4B1B68F3B14C4B1E682642CB
:103C400040F08680002C00F0868004F108039C423E
:103C500080F0818013F0070F05D023F007020832AF
:103C6000934278D21346002B72D0414A1768BB4268
:103C70006ED8404A146827E03F4A12F0070F1ED062
:103C8000D11D21F0070102F520435B1A0A4639488D
:103C90000260002141601344083B23F007033248CF
:103CA000036059601960991A51601360334B1960B1
:103CB0002F4B19604FF000422C4B1A60BDE74FF4B8
:103CC0002043E4E722460C4661688B4202D9216812
:103CD0000029F7D1244909688C4239D01568216838
:103CE00011606268D21A102A10D9E01810F0070F7C
:103CF00008D04FF0A00383F31188BFF36F8FBFF399
:103D00004F8FFEE7426063601D4B98476268BF1AA1
:103D100017490F60194909688F423CBF17490F6066
:103D200008351643666000232360164A1368013382
:103D30001360154B984785B115F0070F10D04FF061
:103D4000A00383F31188BFF36F8FBFF34F8FFEE79C
:103D50000D4B984701E00C4B98470C4B98470025BA
:103D60002846F8BD3D4F08008C0D072090AD072078
:103D700094AD0720A4AD0720900D072098AD072033
:103D8000D93B08009CAD072021510800916608002E
:103D9000002833D010B5044650F8043C184A126885
:103DA000134208D14FF0A00383F31188BFF36F8F44
:103DB000BFF34F8FFEE750F8081C41B14FF0A0034E
:103DC00083F31188BFF36F8FBFF34F8FFEE723EAB2
:103DD000020340F8043C0B4B98470B4A54F8043C50
:103DE00011680B441360A4F10800084B9847084A77
:103DF000136801331360074B984710BD704700BF2D
:103E000090AD07203D4F080094AD0720D93B080036
:103E1000A0AD07202151080010B50446044B984777
:103E2000A46B044B9847B4FA84F0400910BD00BF5E
:103E300095390800D939080070B504461646856BD7
:103E4000026C52B90368002B2AD18068184B98473E
:103E50000023A3600135A56370BD6EB94068154BA2
:103E600098476368226C13446360A268934219D335
:103E7000236863600020EDE7C0680E4B9847236C11
:103E80005B42E2681A44E26021688A4202D2A26878
:103E90001344E360022E07D145B1013D0020D9E76C
:103EA0000020D7E70020D5E70020D3E70020D1E7A6
:103EB000955A0800D599080070B582B00190846CBD
:103EC00064B1A26BE36B9A4211D34FF0A00383F36A
:103ED0001188BFF36F8FBFF34F8FFEE74FF0A00342
:103EE00083F31188BFF36F8FBFF34F8FFEE7A26B91
:103EF000934203D80026304602B070BD94F8455076
:103F00006DB2002201A92046104B98470646B5F134
:103F1000FF3F0AD1636A002BEDD004F124000C4B63
:103F20009847002818BF0126E5E77F2D08D14FF0FC
:103F3000A00383F31188BFF36F8FBFF34F8FFEE7AA
:103F40006B1C5BB284F84530D5E700BF393E0800F2
:103F50001D550800026C72B110B50346C4681444C4
:103F6000C4608068844224BF1868D8600846D96855
:103F7000014B984710BD7047D59908002DE9F041D5
:103F80000546234B984795F8454064B2002C18DD50
:103F9000204EDFF88C80204F08E06B6A8BB105F172
:103FA0002400B84758B9013C64B254B1AB6C002B43
:103FB000F3D02846B0470028F5D0C047F3E7C04704
:103FC000F1E7FF2385F84530144B9847104B98478D
:103FD00095F8444064B2002C12DD2B6983B105F1E1
:103FE00010070D4EDFF8388004E0013C64B23CB1AC
:103FF0002B692BB13846B0470028F6D0C047F4E70C
:10400000FF2385F84430054B9847BDE8F08100BF99
:1040100095390800B93E08001D550800D939080037
:10402000DD57080038B590B10446C26B32B14FF08D
:10403000FF33B3FBF2F3026C934211D24FF0A003B3
:1040400083F31188BFF36F8FBFF34F8FFEE74FF0FD
:10405000A00383F31188BFF36F8FBFF34F8FFEE789
:104060000D46184B98472268216CE36B03FB01F364
:10407000D018A0600020A06362605B1A1344E36064
:10408000FF2384F8443084F8453095B9236963B13F
:1040900004F110000C4B984738B14FF080520B4B95
:1040A0001A60BFF34F8FBFF36F8F094B9847012002
:1040B00038BD04F11000074DA84704F12400A847BB
:1040C000F3E700BF953908001D55080004ED00E036
:1040D000D93908006D380800F8B518B306464FF016
:1040E000FF30B0FBF6F088421CD301FB06F010F164
:1040F000550F17D817460D4654300F4B98470446B6
:1041000070B100F15403002D08BF03460360C6637D
:1041100005640121094B984784F850700023A3647B
:104120002046F8BD4FF0A00383F31188BFF36F8FD3
:10413000BFF34F8FFEE700BF2D3C0800254008006D
:1041400008B1884208D24FF0A00383F31188BFF36F
:104150006F8FBFF34F8FFEE710B50C460222002190
:10416000034B9847034600B18463184610BD00BF57
:10417000D94008002DE9F04F85B0019298B104466E
:10418000D1B1022B24D01E460F466C4B984758BB2A
:10419000019B8BB34FF0A00383F31188BFF36F8FA4
:1041A000BFF34F8FFEE74FF0A00383F31188BFF3F7
:1041B0006F8FBFF34F8FFEE7026C002AE1D04FF004
:1041C000A00383F31188BFF36F8FBFF34F8FFEE718
:1041D000E26B012AD7D04FF0A00383F31188BFF31D
:1041E0006F8FBFF34F8FFEE70025DFF87C81DFF88C
:1041F0007CA1DFF8549135E00025F6E7A56B324647
:10420000394620464E4B9847A36C002B00F0838024
:10421000022E00D15DB920464A4B984738B14FF085
:104220008052494B1A60BFF34F8FBFF36F8F474BDC
:104230009847012005B0BDE8F08F0028F7D04FF077
:104240008052414B1A60BFF34F8FBFF36F8FEEE781
:104250003E4B98470020EDE720463D4B98473D4BAD
:1042600098470125C047A26BE36B9A42C6D3022E42
:1042700047D0019B002BEBD00DB902A8D047334BA0
:104280009847354B9847C04794F844305BB2B3F138
:10429000FF3F04BF002384F8443094F845305BB2FC
:1042A000B3F1FF3F04BF002384F84530274B984704
:1042B00001A902A8294B9847E0B9C047D4F838B003
:1042C000E56B224B9847AB45C6D1019904F110002C
:1042D000234B984720461E4B98471E4B9847002873
:1042E000BFD14FF08053C9F80030BFF34F8FBFF3F9
:1042F0006F8FB6E72046164B9847164B984700201D
:1043000098E7A56B0222394620460D4B9847A36CCF
:10431000002B7FF47FAF636A002B8ED004F1240062
:10432000104B9847002882D04FF08052064B1A60FD
:10433000BFF34F8FBFF36F8F79E700BFAD59080010
:10434000393E0800B93E080004ED00E0D939080004
:104350007D3F0800215108003D4F08004D570800DF
:10436000155408001D5508009539080035570800F8
:1043700038B5024600210120064B9847044638B163
:10438000002181600160C1600B460A46024DA847CA
:10439000204638BDD94008007541080060B170B5AD
:1043A0000446036C8BB14FF0A00383F31188BFF375
:1043B0006F8FBFF34F8FFEE74FF0A00383F3118899
:1043C000BFF36F8FBFF34F8FFEE7036823B30E4633
:1043D0002B4B9847EFF311854FF0A00383F311881F
:1043E000BFF36F8FBFF34F8FA26BE36B9A423BD249
:1043F00094F845305BB20132A263B3F1FF3F22D1A2
:10440000A36CABB120461F4B984778B386B301200D
:10441000306085F3118870BD8368002BD7D04FF0D2
:10442000A00383F31188BFF36F8FBFF34F8FFEE7B5
:10443000636AFBB104F12400134B9847E0B1EEB17D
:1044400001203060E5E77F2B08D14FF0A00383F314
:104450001188BFF36F8FBFF34F8FFEE701335BB25D
:1044600084F845300120D4E70020D2E70120D0E7CE
:104470000120CEE70120CCE70120CAE70120C8E7F0
:104480007D3B0800B93E08001D5508002DE9F047A6
:1044900084B0019280B10446B9B10E46504B9847A2
:1044A000F8B9019B2BB34FF0A00383F31188BFF33E
:1044B0006F8FBFF34F8FFEE74FF0A00383F3118898
:1044C000BFF36F8FBFF34F8FFEE7036C002BE4D079
:1044D0004FF0A00383F31188BFF36F8FBFF34F8FAB
:1044E000FEE70027DFF82481DFF824A1DFF8FC9045
:1044F00029E00027F6E7314620463A4B9847013D30
:10450000A563236963B104F11000374B984738B1B4
:104510004FF08052354B1A60BFF34F8FBFF36F8F50
:10452000334B9847012004B0BDE8F087304B9847E3
:104530000020F8E702A8D0470EE020462D4B984710
:104540002D4B98470127C047A56B002DD3D1019B68
:10455000002BEBD0002FEDD0254B9847274B9847E9
:10456000C04794F844305BB2B3F1FF3F04BF00236F
:1045700084F8443094F845305BB2B3F1FF3F04BF98
:10458000002384F845301A4B984701A902A81C4B18
:104590009847C8B920461B4B98470028CDD00199B1
:1045A00004F12400184B98472046124B9847124BB1
:1045B00098470028C6D14FF08053C9F80030BFF3A8
:1045C0004F8FBFF36F8FBDE720460A4B98470A4BCA
:1045D000984720460B4B98470028B3D00020A2E70D
:1045E000AD590800553F08001D55080004ED00E0D6
:1045F000D93908007D3F0800215108003D4F0800CF
:104600004D570800193E0800155408009539080058
:10461000355708002DE9F04385B0019158B10446A3
:10462000036C8BB14FF0A00383F31188BFF36F8F3E
:10463000BFF34F8FFEE74FF0A00383F31188BFF362
:104640006F8FBFF34F8FFEE75B4B984750B9019BCD
:1046500083B14FF0A00383F31188BFF36F8FBFF3D3
:104660004F8FFEE700252F46544EDFF88491DFF888
:10467000588148E000252F46F6E7013BA3632368F5
:1046800013B94F4B9847A060236963B104F1100040
:104690004C4B984738B14FF080524B4B1A60BFF3E8
:1046A0004F8FBFF36F8F494B98470125284605B0C0
:1046B000BDE8F08345B14FF0A00383F31188BFF349
:1046C0006F8FBFF34F8FFEE7404B9847EEE702A88E
:1046D000C84721E0B047A0683D4B984705463B4B93
:1046E000984740E020463B4B98473B4B984709E0B2
:1046F0002046384B9847384B98472046374B9847C9
:10470000002845D10127B047A36B002BB5D1019BF1
:10471000002BCFD0002FDAD02C4B9847304B984746
:10472000B04794F844305BB2B3F1FF3F04BF0023BD
:1047300084F8443094F845305BB2B3F1FF3F04BFD6
:10474000002384F84530214B984701A902A8254B46
:1047500098470028CCD12046204B98470028C1D04C
:104760002368002BB6D0019904F124001E4B984712
:104770002046184B9847184B98470028C2D14FF055
:104780008053C8F80030BFF34F8FBFF36F8FB9E786
:10479000002D8BD0094B9847636A53B1236B19687E
:1047A000C1F10501A068114B9847084B98470025B7
:1047B0007CE70021F6E700BFAD59080095390800F5
:1047C000D95D08001D55080004ED00E0D939080046
:1047D000CD5908007D3F080021510800193E08000E
:1047E0003D4F08004D570800155408005D5B080058
:1047F000355708002DE9F04385B0019280B1044699
:10480000B9B10D46504B9847F8B9019B23B34FF00F
:10481000A00383F31188BFF36F8FBFF34F8FFEE7C1
:104820004FF0A00383F31188BFF36F8FBFF34F8F57
:10483000FEE7036C002BE4D04FF0A00383F3118854
:10484000BFF36F8FBFF34F8FFEE700263F4FDFF8B8
:104850002891DFF8048129E00026F7E7E668294679
:1048600020463B4B9847E660636A63B104F124003D
:10487000384B984738B14FF08052374B1A60BFF32E
:104880004F8FBFF36F8F354B9847012005B0BDE8C0
:10489000F083324B98470020F8E702A8C8470EE0A3
:1048A00020462F4B98472F4B98470126B847A36BBC
:1048B000002BD3D1019B002BEBD0002EEDD0274B4A
:1048C0009847294B9847B84794F844305BB2B3F106
:1048D000FF3F04BF002384F8443094F845305BB2B6
:1048E000B3F1FF3F04BF002384F845301B4B9847CA
:1048F00001A902A81D4B9847C8B920461C4B9847F0
:104900000028CDD0019904F124001A4B9847204685
:10491000134B9847134B98470028C6D14FF080534C
:10492000C8F80030BFF34F8FBFF36F8FBDE720464D
:104930000B4B98470B4B984720460D4B9847002848
:10494000B3D00020A2E700BFAD5908009539080098
:10495000553F08001D55080004ED00E0D939080056
:104960007D3F0800215108003D4F08004D570800C9
:10497000193E0800155408003557080058B170B4A6
:104980000446C1B1144B5B6898420DD01248002315
:104990001A46064618E04FF0A00383F31188BFF3D0
:1049A0006F8FBFF34F8FFEE700220B4B03EBC20369
:1049B0000BB119605C6070BC70470132082AF7D0F7
:1049C00008304568AC42F0D0002BF6D156F8325092
:1049D000002D08BF0346F0E720B9072070B5044654
:1049E0000D461646114B984794F844305BB2B3F12C
:1049F000FF3F04BF002384F8443094F845305BB295
:104A0000B3F1FF3F04BF002384F84530084B9847BB
:104A1000A36B1BB12046074B984770BD3246294611
:104A200004F12400044B9847F4E700BF95390800CF
:104A3000D93908007D3F0800C1540800074B1B68A6
:104A40001B6833B1054B1B68DB681A68044B1A609E
:104A500070474FF0FF32024B1A607047B0AD07202D
:104A600064AE072070B504460E46244B1D68244BE7
:104A700018680430234B984748B9214B1A682249DB
:104A80000B68D06A0122824023EA02030B60B4F172
:104A9000FF3F13D02C441A4B1B685C60A54224D8FE
:104AA0001A4B1868164B19680431194B9847194B63
:104AB0001B689C423CBF174B1C6070BD002EE9D0A8
:104AC000154A51680E4B1868816018688C68C4607C
:104AD0008C681868043060601868043088601B684F
:104AE0005A6113680133136070BD0C4B1868044B96
:104AF00019680431064B984770BD00BFB0AE07205F
:104B0000ACAD0720BD38080034AE0720B0AD07209B
:104B10008938080064AE072088AE0720B4AD0720AE
:104B200080B5184DDFF87880DFF8789001E0164BFB
:104B300098472B68C3B1154F154EC047FB68DC681A
:104B4000201DB047134A1368013B13602B68013BDB
:104B50002B60114B9847206BDFF84CA0D0472046C4
:104B6000D0472B68002BE8D10C4B1B68012BDED9FA
:104B70004FF08053C9F80030BFF34F8FBFF36F8FF2
:104B8000D5E700BF28AE0720616608009CAE07206D
:104B9000BD38080024AE0720D9390800B8AD072079
:104BA0009539080004ED00E0913D080010B5044679
:104BB000094B98472046094B9847172808D82044A6
:104BC00004F11802202300F8013B9042FBD1182089
:104BD00000232354204410BDE59B0800A19C08003D
:104BE0002DE9F04F83B000900F4601930C9DDDF846
:104BF00034A0960030466E4B984788B380466C20B0
:104C00006B4B9847044640B3C0F830803246A5212C
:104C10004046684B9847D4F8309027B33B7884F8E7
:104C200034303B785BB13B4604F134021837597895
:104C300002F8011F13F8011F09B1BB42F7D100238D
:104C400084F84C30042D12D94FF0A00383F311885F
:104C5000BFF36F8FBFF34F8FFEE74046564B984729
:104C60004FF0FF308FE0002384F83430EAE7E5624C
:104C7000A5650027E76504F104084046DFF884B124
:104C8000D84704F11800D8472461C5F10505A5618E
:104C900064622766676684F86870043E4E44019A31
:104CA000009926F00700454B98472060BAF1000FA5
:104CB00001D0CAF80040424B9847424A136801337A
:104CC0001360414B1B68002B60D13F4B1C60136885
:104CD000012B1FD13D4E30463D4DA84706F1140033
:104CE000A84706F12800A84706F13C00A84706F1AE
:104CF0005000A847374F3846A847374E3046A84798
:104D00003648A8473648A8473648A847364B1F605C
:104D1000364B1E60364A1368013313602365E36A1D
:104D20003449086801229A4002430A60274A03EB8B
:104D3000830302EB83035B68A3609968E160996871
:104D4000C1F80480C3F80880E06A8300191889005C
:104D5000551865615158013103449B00D150264BD1
:104D60009847264B1B68F3B1174B1B68DA6AE36A56
:104D70009A421AD24FF08052214B1A60BFF34F8FE4
:104D8000BFF36F8F012003B0BDE8F08F1B4B1B6892
:104D9000002BBFD10C4B1B68DA6AE36A9A429CBFB6
:104DA000094B1C60B6E70120EDE70120EBE700BFEF
:104DB0002D3C0800C19A0800913D080045390800C3
:104DC0009539080024AE0720ACAD0720B8AD072008
:104DD0006D38080038AE07204CAE072070AE0720B3
:104DE0009CAE072088AE0720B0AD0720B4AD0720E9
:104DF00030AE072034AE0720D939080084AE072032
:104E000004ED00E083380800F8B5E0B104461C4B1F
:104E10001B6898422AD01B4B984765691A4B1F683C
:104E20001A4B1E681A4B9847BD4221D0B54221D07B
:104E3000184B9D4210D0184B9D421FD0002D0CBF27
:104E400004200120F8BD4FF0A00383F31188BFF3C5
:104E50006F8FBFF34F8FFEE7A36A6BB994F868308A
:104E6000DBB2012B0CBF02200320F8BD0020F8BDEF
:104E70000220F8BD0220F8BD0220F8BD0420F8BDD4
:104E8000ACAD072095390800B0AD0720B4AD0720C0
:104E9000D939080088AE07209CAE072010B582B033
:104EA0001B4B0193002300934FF4967219491A4843
:104EB0001A4CA047012806D0B0F1FF3F1ED0184B76
:104EC0001B6802B010BD174B98470128F4D14FF072
:104ED000A00383F31188BFF36F8FBFF34F8F4FF0A1
:104EE000FF32114B1A600122104B1A600022104B46
:104EF0001A60104B9847104B9847E0E74FF0A0031B
:104F000083F31188BFF36F8FBFF34F8FFEE700BFAE
:104F100060AE07207CDB0800214B0800E14B080055
:104F2000500107201563080064AE072084AE0720F7
:104F3000B0AE072081690800AD3A0800024A136844
:104F400001331360704700BF2CAE0720014B186877
:104F5000704700BFB0AE072008B5024B9847024B20
:104F6000186808BD7D3B0800B0AE07202DE9F84F5A
:104F70005F4B1B68002B40F0B3805E4B1C68013414
:104F80001C60C4B95C4B1B681B6843B14FF0A003A5
:104F900083F31188BFF36F8FBFF34F8FFEE7564A3D
:104FA0001168564B186810601960554A1368013330
:104FB0001360544B9847544B1B689C4212D20020FC
:104FC000524B1B68DB6A03EB83039B00504AD358A8
:104FD000022B28BF01204F4B1B68002B18BF01205C
:104FE000BDE8F88F0020444E0546DFF830B14FF0A1
:104FF000010E474ADFF8148136E04FF0FF32424B92
:105000001A60DDE7404B1F60DAE7DF6ADBF800A0DB
:105010000EFA07F949EA0A09CBF8009007EB87076F
:1050200002EB87077F689F60B968D960B968C1F8EB
:1050300004C0C7F808C0D3F82C904FEA890707EBE3
:10504000090C02EB8C0AC3F814A052F82CC00CF126
:10505000010C4F4442F827C0D8F800C0DF6ADCF8E2
:105060002C309F4228BF012033681B68002BC4D01E
:105070003368DB68DB685F68BC42C3D3D3F8149045
:105080009F68D968B960DF689968796003F1040C9A
:10509000D9F80470674504BFDF68C9F804705D6122
:1050A000D9F80070013FC9F80070D3F82890B9F121
:1050B000000FAAD0DF69196AB9601F6AD9697960DF
:1050C00003F1180AD9F80470574504BF1F6AC9F8DC
:1050D00004709D62D9F80070013FC9F8007094E730
:1050E0000D4A1368013313600020BDE8F88F00BF3C
:1050F0002CAE0720B0AE0720B0AD0720B4AD07201E
:1051000068AE07203D4A080064AE0720ACAD07201A
:10511000B8AD0720B4AE07206CAE072034AE072030
:10512000594B1B6843B94FF0A00383F31188BFF3B9
:105130006F8FBFF34F8FFEE72DE9F047534B984732
:10514000514B1A68013A1A601B68002B40F0978097
:105150004F4B1B682BB900244E4B98472046BDE8A7
:10516000F08700234C4D1C464C4801214C4ADFF887
:1051700048A1DFF83CE12F68002F5FD0EB68DB68C7
:10518000D3F828C0DF691E6ABE601F6ADE697E60D0
:1051900003F11808DCF80470474504BF1F6ACCF817
:1051A00004709C62DCF80070013FCCF80070D3F80A
:1051B00014C09F68DE68BE60DF689E687E6003F191
:1051C0000408DCF80470474504BFDF68CCF80470BD
:1051D0005C61DCF80070013FCCF80070DF6AD0F849
:1051E000009001FA07FC4CEA090CC0F800C007EB7C
:1051F000870702EB87077F689F60BE68DE60BE6836
:10520000C6F80480C7F80880D3F82C804FEA8807D6
:1052100007EB080C02EB8C09C3F8149052F82CC071
:105220000CF1010C474442F827C0DAF80070FF6A1D
:10523000DE6ABE429FD3CEF800109CE70BB1194B3B
:105240009847194B1C686CB1184F194E012501E0A5
:10525000013C04D0B8470028FAD03560F8E70022B6
:10526000114B1A60124B1B685BB14FF08052114B0F
:105270001A60BFF34F8FBFF36F8F01246CE70024D8
:105280006AE7002468E700BF2CAE072095390800C4
:1052900024AE0720D939080070AE072034AE0720AD
:1052A000B8AD07203D4A08006CAE07206D4F0800DE
:1052B000B4AE072004ED00E0ACAD072010B5A8B1F6
:1052C00004460F4B1B6843B14FF0A00383F31188D2
:1052D000BFF36F8FBFF34F8FFEE70A4B9847002154
:1052E0002046094B9847094B984738B94FF08052F0
:1052F000074B1A60BFF34F8FBFF36F8F10BD00BF16
:105300002CAE07203D4F0800654A080021510800D7
:1053100004ED00E0364B1B681BB10122354B1A60CF
:10532000704710B50022334B1A60334B9847334B0C
:1053300018601B68324A11688B4207D92F4B1868D6
:10534000304B1A68136E5B1A034413662B4B1A68B2
:105350002B4B1A602B4B1B681B6B1A68B2F1A53FD5
:1053600003D15A68B2F1A53F1BD0264B18681968C3
:105370003431254B9847254B1B68B3FA83F3DBB2D6
:10538000C3F11F0303EB8302920021498A588AB9B3
:105390004FF0A00383F31188BFF36F8FBFF34F8FDC
:1053A000FEE79A68B2F1A53FDFD1DB68B3F1A53F14
:1053B000DBD1E0E7164A9900C81802EB8000446888
:1053C00064684460194402460832944209D003EBF1
:1053D00083030F4A02EB83035B68DA68094B1A60A8
:1053E00010BD60680A4A02EB81025060EFE700BF1F
:1053F0002CAE0720B4AE07209169080020AE07202C
:105400001CAE0720ACAD07206566080034AE07204F
:10541000B8AD072040B94FF0A00383F31188BFF364
:105420006F8FBFF34F8FFEE710B50C46044B196822
:105430001831044B984701212046034B984710BD73
:10544000ACAD072089380800654A080038B560B15E
:1054500003461848006888B94FF0A00383F3118809
:10546000BFF36F8FBFF34F8FFEE74FF0A00383F3BF
:105470001188BFF36F8FBFF34F8FFEE710460E4AC0
:10548000146841F00041A16159681468E161146831
:105490008D6825628D68146818346C60146818343F
:1054A0008C60126893621A6801321A600121034B02
:1054B000984738BD2CAE0720ACAD0720654A0800E0
:1054C000F0B170B50C460346114620465C68114A9F
:1054D0001568EC611568A6682E62A668156818350F
:1054E000756015681835A560126893621A680132F4
:1054F0001A60002918BF4FF0FF30074B984770BD66
:105500004FF0A00383F31188BFF36F8FBFF34F8F6A
:10551000FEE700BFACAD0720654A0800C368DB6842
:10552000002B53D030B49A6AD969186A8860196A16
:10553000D869486003F118005168814204BF196AB4
:105540005160002199621168013911602A4A12687C
:10555000002A44D15A699968D8688860D9689868DF
:105560004860181D5168814204BFD968516000210C
:105570005961116801391160DA6A204C25680121EE
:105580009140294321601E4902EB820201EB820215
:1055900052689A609468DC60946860609060DC6A2D
:1055A000A200101980000D185D61085801302244D6
:1055B00092008850134A1168DA6ACB6A9A4283BF14
:1055C0000120114B1860002030BC70474FF0A00341
:1055D00083F31188BFF36F8FBFF34F8FFEE70B4A42
:1055E0005168D9618C681C628C68606088609A62BE
:1055F000116801311160DDE72CAE072034AE0720C1
:10560000B8AD0720ACAD0720B4AE072070AE0720C0
:10561000334B1B6843B94FF0A00383F31188BFF3EA
:105620006F8FBFF34F8FFEE741F000410160C36809
:10563000002B4CD030B40269416884688C6081686A
:1056400044684C605168884204BF81685160002101
:1056500001611168013911605A699968D8688860D8
:10566000D96898684860181D5168814204BFD9689C
:10567000516000215961116801391160DA6A194CD1
:1056800025680121914029432160174902EB8202DC
:1056900001EB820252689A609468DC6094686060F2
:1056A0009060DC6AA200101980000D185D61085836
:1056B00001302244920088500C4A1168DA6ACB6AA1
:1056C0009A4202D901220A4B1A6030BC70474FF04F
:1056D000A00383F31188BFF36F8FBFF34F8FFEE7F3
:1056E0002CAE072034AE0720B8AD0720ACAD0720A4
:1056F000B4AE072040B94FF0A00383F31188BFF385
:105700006F8FBFF34F8FFEE710B50446054B9847E8
:10571000054B1B682360054B1B686360044B98476F
:1057200010BD00BF9539080068AE0720B0AE072055
:10573000D9390800034B1B680360034B1B684360A7
:10574000704700BF68AE0720B0AE0720D0B170B57B
:10575000054601B30C461C4B98471C4B1A686968F8
:105760002368B3F1FF3F2DD0194800682E688642A8
:1057700001D08A4218D2521A9A421CD300232360C5
:10578000012414E04FF0A00383F31188BFF36F8F5F
:10579000BFF34F8FFEE74FF0A00383F31188BFF3F1
:1057A0006F8FBFF34F8FFEE7002323600124094B67
:1057B0009847204670BD9B1A23602846064B9847A1
:1057C0000024F4E70024F2E795390800B0AE072082
:1057D00068AE0720D9390800355708000122014B6F
:1057E0001A607047B4AE072070B50C4616460546E1
:1057F000D0B1256005F134026260EA6A22612A6B49
:10580000E2612A6DA260AA6D62612A6EA261052B17
:1058100019D0174A1268954209D02373032B09D077
:10582000B6B90023238470BD114A1568E1E700234F
:105830002373F5E70F4B9847AB6A0BB10223237331
:105840000D4B9847ECE728460C4B98472073E7E749
:10585000286B0378A52B08D1431C191A13F8012BC8
:10586000A52AFAD08908218470BD0021FAE700BF7B
:10587000ACAD07203D4F080021510800094E08003B
:105880002DE9F04F83B00B684BB34B685B684B60FE
:1058900001F10808434504BFCB684B6001920C46F8
:1058A0004B68D3F80CB0054600274FF0010ADFF82B
:1058B000349063685B686360984504BFE368636025
:1058C0006368DE68019B524629463046C847013767
:1058D0002435B345EDD1384603B0BDE8F08F00273D
:1058E000F9E700BFE95708002DE9F04706460C46E6
:1058F0001746244B9847244B1B68A34240D8234BA0
:1059000003F15005A3F1140800244FF0010ADFF859
:10591000849004EBC4005246294606EB8000C84739
:105920000444143D4545F4D1194B196804EBC400F7
:10593000022206EB8000174DA8470444164B196855
:1059400004EBC400022206EB8000A847044404EBE9
:10595000C4000422114906EB8000A847044404EB6C
:10596000C40003220E4906EB8000A847044417B187
:105970000C4B984738600C4B98472046BDE8F087A1
:105980000024F8E73D4F080024AE0720B8AD0720FB
:10599000B0AD072081580800B4AD07209CAE0720A9
:1059A00088AE07209169080021510800054B1B684B
:1059B00033B1054B1B68002B0CBF02200020704741
:1059C0000120704784AE07202CAE0720002857D056
:1059D00070B50446C26A2B490968C96A8A4246D230
:1059E0008169002905DB27490968C96AC1F10501F8
:1059F000816102EB8202244901EB820261699142DA
:105A000005D0204A1268D26AE262012070BD251DCD
:105A100028461E4B984738B91D490B68E06A012299
:105A2000824023EA02030B60164B1B68DB6AE362C9
:105A300017490E68012000FA03F232430A60124A45
:105A400003EB830302EB83035B68A3609968E16067
:105A500099684D609D60E56AAB0059198900561838
:105A60006661515801442B449B00D15070BD054ADA
:105A70001268806DD36A98422CBF0020012070BD4F
:105A800000207047ACAD0720B8AD0720BD38080036
:105A900034AE0720002852D070B504462B4B1B684B
:105AA000984208D04FF0A00383F31188BFF36F8FA3
:105AB000BFF34F8FFEE7C36D43B94FF0A00383F3ED
:105AC0001188BFF36F8FBFF34F8FFEE7013BC365B4
:105AD000C16A826D914234D0002B34D1051D284615
