:0200000280007C
:10000000C0DD0720D1770800CD770800CD77080044
:10001000CD770800CD770800CD77080000000000FC
:10002000000000000000000000000000513F080038
:10003000CD77080000000000F13F080035400800BF
:10004000CD770800CD770800CD770800CD77080080
:10005000CD770800CD770800CD770800CD77080070
:1000600079380800CD770800000000007576080098
:10007000897608009D760800B1760800000000002F
:1000800000000000CD770800CD770800CD7708008C
:10009000CD770800CD770800B1330800C1330800E0
:1000A000CD77080000000000CD770800CD7708006C
:1000B000CD770800CD770800CD770800CD77080010
:1000C000CD770800CD770800CD770800CD77080000
:1000D000CD770800CD770800CD770800CD770800F0
:1000E000CD770800CD770800CD770800CD770800E0
:1000F000CD77080010B5054C237833B9044B13B104
:100100000448AFF300800123237010BD180B0720B3
:100110000000000044F108000C4B43B10C4810B53E
:100120000C49AFF300800C48036823B910BD0A489E
:10013000036833B97047094B002BF7D0BDE8104076
:100140001847064B002BF5D0184700BF00000000F1
:1001500044F108001C0B072044F1080000000000D7
:1001600010B582B0002201210846374B9847374B23
:10017000186000284CD0032200210120324B984700
:10018000334B1860002847D0324B9847324B1860E9
:10019000002845D02F4B9847304B1860002843D09B
:1001A0002F4B0193002300934FF496722D492E4854
:1001B0002E4CA04701283BD02D4B019302230093E6
:1001C00000234FF496722B492B48284CA047012856
:1001D00032D02A4B01930123009300234FF49672EF
:1001E00027492848214CA047012829D0264B0193B4
:1001F00001230093254B4FF49672254925481B4C4B
:10020000A047012802D02448244B984702B010BDD3
:100210002348224B9847AEE72248204B9847B3E744
:1002200021481E4B9847B5E720481C4B9847B7E735
:100230001F481A4B9847BFE71E48184B9847C8E716
:100240001D48164B9847D1E7B9460800480B0720D0
:10025000400B0720193C08004C0B0720340B0720EB
:10026000380B072000E00800ED060800C151080027
:100270003C0B072034E0080075030800500B0720F2
:1002800064E0080055110800440B0720C8E008008E
:10029000A0E00800890F0800ACE00800016B08002E
:1002A00060DF080084DF0800B0DF0800D8DF080046
:1002B0000CE0080040E0080078E0080000B583B0DA
:1002C00000230193094B186868B101AA0021084B6B
:1002D0009847019B3BB14FF08052064B1A60BFF329
:1002E0004F8FBFF36F8F03B05DF804FB3C0B07200B
:1002F0002166080004ED00E000B583B000230193FF
:10030000094B186860B101A9084B9847019B3BB1A4
:100310004FF08052064B1A60BFF34F8FBFF36F8FC1
:1003200003B05DF804FB00BF400B07207D490800C7
:1003300004ED00E0074B1B78834209D010B5054956
:1003400008700223002204480068044CA04710BD36
:10035000704700BF540B0720480B07205547080083
:1003600008B50420024B984780F00100C0B208BDD8
:10037000292608002DE9F04186B0654B93E8070077
:1003800006AB03E907006348634CA0470020634DB8
:10039000A84770222A216248624EB04710222E21BF
:1003A0006148B0476148A047614B18684FF0FF3380
:1003B00000930123002203215E4EB04701465E48B0
:1003C000A0470120A8475D4F4FF000080CE05C48B3
:1003D000514B98470520514B984715E015F4A05F05
:1003E00024D10A20574B9847002400942346012229
:1003F0004FF4E0513868B04705462146524B186823
:10040000524B98470128E2D0514B1B78013B042BFB
:1004100079D801A252F823F0DD0308003B0408005C
:100420005D04080087040800C904080049483A4BE5
:1004300098470220394B9847D3E70120414B984712
:10044000454B98470028CFD04046444B98474448F6
:10045000314B98470320314B9847C5E74FF0FF32A7
:10046000012100203F4B984703A83F4B984715F4C4
:10047000806FB9D03D4B98473D48274B98470420A3
:10048000264B9847B0E74FF0FF3201210020354B53
:100490009847384B984715F4006F0BD10028A3D02C
:1004A00040462E4B984734481B4B984703201B4B24
:1004B000984799E74046294B98473048164B98474C
:1004C0000320164B98478FE7414600202C4CA0474D
:1004D00041460120A04741460220A0476420194B15
:1004E000984715F4805F3FF47FAF264B984730B9AB
:1004F0002548094B98470120084B984774E7234843
:10050000054B984770E70520044B98476CE700BF00
:10051000CCE00800D8E00800016B080035030800B3
:10052000BD02080071240800F9020800F4E0080088
:100530004C0B07203D3C080020E10800340B07204D
:1005400064E10800E9290800400B0720F54B08008A
:10055000540B072084E10800750B0800A113080064
:10056000BCE108008D6508007112080069130800DD
:10057000D8E10800551A080030E2080004E208003B
:100580008D1C08006103080058E2080094E208008E
:1005900010B50446104B984780232360636843F0EE
:1005A00001036360636843F010036360636823F0D2
:1005B0008003636000212046084B9847636823F05E
:1005C00002036360636823F0040363600021204634
:1005D000034B984710BD00BF013A08001D3A0800C0
:1005E000333A08002DE9F04104460D4616461549F8
:1005F0001846154B9847074600231A462968204697
:10060000DFF85C80C0470822296820460F4B9847D6
:10061000FAB2296820460E4B9847082229682046DE
:100620000C4B98477208296820460B4B984786F078
:10063000010202F0010229682046084B9847BDE8F4
:10064000F08100BF00BD0105DB3A0800C73A080091
:10065000F13A0800813A0800453A0800633A080078
:10066000173B08001AB110B40C46114406E00020F4
:10067000704714F8013BC360A1420BD043F69923A5
:10068000026912F0020FF4D1013BF9D16FF00200C0
:1006900010BC70470020FBE73AB170B415460C4619
:1006A0000D44FF2640F2012112E000207047C66091
:1006B00043F69923026931EA020204D0013BF9D1E1
:1006C0006FF002000EE0836804F8013BA5420BD0F6
:1006D00043F69923026912F0020FE8D1013BF9D1E8
:1006E0006FF0020070BC70470020FBE770B5304827
:1006F000304B98470121304B1868304B9847304CAD
:10070000304D17E00120A8473046A0470028F9D116
:1007100001212D48274B98474FF480612B4B1868D7
:10072000264B98470120A04780B90220A04730BB44
:100730000A20A8470020A0470028F3D01420A8478B
:100740000020A0470028EDD00026DDE71420A847B0
:100750000120A0470028E8D0012601E03046A84744
:100760003046A0470028F9D102211948114B98477B
:100770004FF40061154B1868104B9847D5E71420CB
:10078000A8470220A0470028D2D0022601E001207D
:10079000A8473046A0470028F9D103210D48054B52
:1007A00098474FF48051094B1868044B9847BFE7AE
:1007B000C8E20800016B08004C0B07207D3D0800D3
:1007C000C5290800E9290800E8E20800340B0720E1
:1007D00008E3080028E308002DE9F0470546124C1D
:1007E0001249A047124F134E3968B047804638600F
:1007F000114F39682846114B98470C49104B9847C0
:100800000021A047814600212846A04782460021BA
:100810004046A04701465046B04701464846B047CB
:100820003D60BDE8F08700BF459708006F12833A2E
:10083000580B072035950800600B072031950800FC
:10084000AD98080008B50021024B98470021024BE3
:10085000984708BD45970800AD9808002DE9F04F6E
:1008600085B0834603910023894A13709A4635E088
:1008700009F10040874C3946A0474146864B9847CE
:10088000054601460198854B98470299844B984745
:100890008449A04701462846834B9847044683492C
:1008A000834B9847002800F0EF8082492046824B16
:1008B0009847002800F0EA8080492046774B984707
:1008C000039B43F82A00724A137801335FFA83FAD4
:1008D00082F800A0BAF1020F00F2CC80784B53F8F6
:1008E0002A402046774B98470546DBF800702046A3
:1008F000754B98478046DBF8049000F10040674C48
:100900003946A0470646494601952846A047644D0A
:1009100001463046A8470290DBF808603946019846
:10092000A047074649464046A04701463846A847E3
:100930006649A847804602980146A0470146644898
:10094000544B9847044600215B4B9847002840F0E1
:10095000938041465F484F4B984705460146504BB0
:100960009847074620F000405B49534B98470028C2
:1009700040F08680DFF8209129463046C847019034
:10098000444D56492046A8470290444C41464046B3
:10099000A04701460298A847804631463046A04706
:1009A00001464046A8473E4E4D49B0473946C847E4
:1009B0000746DDF8049049464846A0474FF07E516F
:1009C000B0478046434902973846A84707464946FC
:1009D000CDF804904846B0473946A04781460146C5
:1009E000A047064639463846A0473C49A84707462F
:1009F0004FF081414046A04701463846A047014696
:100A00003046A847044600212B4B9847002839D18F
:100A10002046344B98470746214E41464046B04752
:100A2000804649463846A84741461B4B98470446EE
:100A300001460198194B98470299B0471949A847B0
:100A400001462046184B984704461849184B9847CA
:100A500000283FF40DAF17492046174B9847002850
:100A60003FF406AF154920460C4B9847039B43F8CB
:100A70002A0028E7012000E0002005B0BDE8F08F43
:100A80000020FAE70020F8E70020F6E70020F4E76E
:100A90005C0B072031950800AD98080045970800C9
:100AA0003595080000005243AD7A0800C2B8B2BFC5
:100AB000BD9A0800C2B8323F819A080000003C424B
:100AC00048E30800B9790800317A080000002042A4
:100AD00080B4934800004843CCBC8C2B00442C4786
:100AE00000401C47B17A080038B5114B98470446BE
:100AF000C0F347000F4B984721460F480F4CA047C3
:100B000001200F4DA84701460E48A0470220A847E4
:100B100001460D48A0470320A84701460B48A047BF
:100B20000420A84701460A48A0470A48A04738BD04
:100B3000ED250800D1240800FCE30800016B080043
:100B40002926080014E4080028E408003CE4080012
:100B500050E40800E8E90800022801D901207047A4
:100B600008B5024B185C024B984708BD64E30800C7
:100B7000292608002DE9F8430022884B1A70884B7B
:100B80009847884B1C78002C33D10023834A13707C
:100B90000027854E854D3946F05CA8477F4A13787B
:100BA00000218348C1548348C1540133DBB2137020
:100BB000022BF0D90D46804B1970804B1970012221
:100BC000784B1A707E4B9847744B1D7028467D4EAB
:100BD0001D467D4FB04718BB2B7857F82310724A3B
:100BE000D05C724B984728780130C0B22870022838
:100BF000F0D9764B984708BB6F4B1B78002B34D04D
:100C00006E4B1B78002B40F0058101226B4B1A7054
:100C10000020624B18701C4600264FF07C5599E06E
:100C20005E4B1B780021604AD05C604B9847684857
:100C3000684B984700225B4B1A7071E06648654B21
:100C400098470023554A13700026574D574C31469C
:100C5000E85CA047514A13780133DBB21370022BD2
:100C6000F5D900244F4B1C705AE00122524B1A70E8
:100C70005A485B4B98470020484B18704C4DDFF8A2
:100C80009081584F4FF07C561C464FF0000923E0EE
:100C900023784D4A52F82310434AD05C434B98477F
:100CA0000022454B1A7011E04C4B53F820004E4B7C
:100CB000984731464D4B9847424639464C4B9847EA
:100CC00023780146384AD05C384B98472078013069
:100CD000C0B22070022819D82B5C002BE4D1394B0C
:100CE00098470028D4D0237849462F4AD05C2F4B10
:100CF000984723783F4AD05C3F4B984721783F483C
:100D0000344B984723780122EA54DFE72A4B1B78BB
:100D10004BB92A4B1B78002B40F08E80274B1C7858
:100D20002046BDE8F8833648364B9847224B18706A
:100D3000EFE72378344A52F823101B4AD05C1B4B50
:100D4000984700221D4B1A7020780130C0B22070E5
:100D50000228DED8174B1B5C002BF5D1194B9847A6
:100D60000028E6D0217829481A4B9847DFF83880C8
:100D70002378314618F803000C4FB84723781D4AF2
:100D8000D05C1D4B98472378294618F80300B847D4
:100D900023780121074AD154D6E700BF6B0B072007
:100DA000E90A0800640B072060E308008D1C0800B6
:100DB000780B0720680B0720660B0720650B0720C0
:100DC000E51A0800590B080054E308006103080005
:100DD0006CE30800016B0800A8E308006C0B072017
:100DE0001D1B0800000020C1D90708003595080028
:100DF0004125080068E30800ED270800CCE308005F
:100E000070E40800711208007CE40800E4E30800C4
:100E100000EC1F4100220F4B1A700F4B1B78ABB137
:100E200001220C4B1A700C4B5B787BB10A4B9B7800
:100E30004BB10322074B1A700022084B1A700F2087
:100E4000074B98476AE70222024B1A700022054BB3
:100E50001A7063E76B0B0720680B0720640B0720F1
:100E6000D1240800650B07202DE9F84306460D46FE
:100E70003B4B9847044610B92046BDE8F8833046FE
:100E8000384B9847384B1860384B1D70002863D09A
:100E9000374B1B68002B4BD07522344B1978354BE0
:100EA0009847A0F17003DBB2012B51D9732814BF0E
:100EB0004FF000084FF001082B4B1868002849D06C
:100EC0002A4E80236B2231782B4DA8472B48DFF820
:100ED000B490C847244F01236B2231783868A84763
:100EE0004EF66020C8470023192231783868A84799
:100EF00002231A2231783868A84710231B22317840
:100F00003868A84708231C2231783868A84702238C
:100F10001D2231783868A847002337223178386895
:100F2000A8474EF66020C84704EA0804E4B2A3E7E5
:100F3000002210210120124B98470D4B186068B118
:100F4000094B18680028A7D14FF000084446EBE78A
:100F5000A046B1E70024E7E700248DE700248BE7F3
:100F6000DD220800C91F08007C0B0720380107207C
:100F7000800B07200D210800C5200800C0270900AC
:100F8000B9460800010007202DE9F04B8CB004465B
:100F9000474B98470B907CB120786178454B984738
:100FA00068B1454B1B688BB1444B1B6873B1DFF8CC
:100FB0005081DFF850B12FE068210020EEE7404873
:100FC000404B98470020404B9847EAE73F483D4B4D
:100FD000984700203C4B9847E9E700223C4B1A60B9
:100FE0003C4D3D490598A8473C4CA04781463A49AD
:100FF0000498A847A0470746039E37490698A84784
:10100000A04700904B463A46314635482D4CA04704
:1010100001210BA8334B984798F80010264B18680D
:101020000E23009307AB3B222F4CA0479DF81C30AA
:101030009DF81D4044EA032424B29DF81E309DF81B
:101040001F6046EA032636B29DF828309DF82950E5
:1010500045EA03252DB2164B98470390234F2046AF
:10106000B8471C4C4FF06451A0472149A047049059
:101070003046B8474FF06451A0471D49A04705903E
:101080002846B8471B491C4B98475946A04706902D
:101090000223002203A909480068184CA0470C4B02
:1010A0001B680133632B98D8094A1360B0E700BF6F
:1010B00031560800690E08007C0B0720800B0720C2
:1010C00088E40800016B0800E95308009CE408006C
:1010D000840B07204597080000007A44FD9A080019
:1010E000B4E40800A1590800E12008009D9608001A
:1010F0000AE81C4133330342AD9808005547080005
:101100003801072035FA8E3C10B500210120044C2F
:10111000A04700210220A04700210320A04710BDC6
:101120004526080008B5012804D0022807D0032866
:1011300009D008BD01210846054B984708BD01218B
:10114000034B984708BD0121014B9847F1E700BFC9
:10115000452608002DE9F04383B000248DF80740B0
:1011600039483A4B98470221394B1868394B984710
:10117000FF25DFF8F480384FDFF8F09023E0052EEC
:1011800015D8DFE806F00311404B505B132C04D94F
:10119000324B984735460AE000240220C847032016
:1011A000C847002503E000240320C8470125631C2D
:1011B0002B4CA4FB0324640904EB8404A3EBC404B8
:1011C0000A20284B984700220DF10701D8F80000AB
:1011D000B8479DF80760B542D1D0204B98479DF89D
:1011E0000750052D2ED801A353F825F099110800BA
:1011F000A7110800051208001B120800251208009C
:101200003B1208000024132C03D9144B98470225E5
:10121000CDE70220C8470225C9E700240120C847BE
:101220000325C4E70024132C03D90C4B984704254D
:10123000BDE70120C8470425B9E700240320C847BB
:101240000525B4E70024B2E7ECE40800016B0800D0
:101250004C0B07207D3D0800D54D08000911080002
:10126000CDCCCCCCE9290800480B0720251108007B
:101270002DE9F84F8246294D00242C702848294B2F
:1012800098472C704FF0010BDFF8D490DFF8D48032
:10129000254E1CE0254B46F827304FF0000B1F4D24
:1012A0002C78234A234956F82400234B9847234A95
:1012B00042F824002B7852F82310214AD05C214BAD
:1012C00098472C780134E4B22C70022C22D827469F
:1012D0001D4D49465AF82400A8474146A847104BDF
:1012E00053F82410194B9847054620F00040184940
:1012F000184B984740B100212846174B98470028C3
:10130000C8D04FF07D53C6E72846144B984746F89F
:101310002400C4E75846BDE8F88F00BFBC0B072087
:10132000CC0B07201D1B0800C00B0720000040BF8E
:1013300000EC1F41000020C1412508001C0C0720C3
:101340000CE508008D1C0800459708003195080041
:10135000CDCCCC3DBD9A0800A99A0800D907080059
:1013600035FA8E3C00003C420022074B1A600023F5
:10137000064A1380064A1370064A1370064A137011
:10138000064A1370704700BFA80B0720A00B072068
:10139000E40B0720280C0720AD0B0720AC0B07201F
:1013A0002DE9F84F8246254B1B78BBB12448254BCD
:1013B0009847254B1C68254B19682046244B9847B5
:1013C0005146244B984700282BD123492046234BD4
:1013D00098471D4B18600020BDE8F88F204E30461E
:1013E000204B98473446164D0C36DFF884B0DFF8B2
:1013F00084901D4FDFF88080494654F8040BD8478D
:101400004146B84745F8040BB442F5D10322174BC7
:101410001A700D4B1A680D4B1A600122074B1A7097
:10142000C4E70022054B1A700B4920460B4B984726
:10143000054B18600120BDE8F88F00BFAD0B0720F9
:10144000B00B072071120800A80B0720E80B07203B
:1014500031950800A99A08006F12833A3595080063
:10146000CC0B07201D1B080045970800BC0B07206C
:10147000AD98080000003C42E12E65422DE9F0479E
:101480000E4E30460E4B984734460E4D0C36DFF864
:1014900040A0DFF840900C4FDFF83C80494654F8FC
:1014A000040BD0474146B84745F8040BB442F5D188
:1014B0000322064B1A70BDE8F08700BFCC0B072053
:1014C0001D1B0800B00B072045970800BC0B072028
:1014D000AD98080000003C42E12E654238B51A4B39
:1014E0001B78B3B10C46194B1D68194B1968284677
:1014F000184B98472146184B9847D0B91748184BB6
:101500009847124C17492068174B984720600020D5
:1015100038BD011C18BF01210420144B9847144BFF
:1015200098470A4B1A680A4B1A600122064B1A7038
:10153000E4E70022044B1A700A4928460A4B9847F0
:10154000024B1860012038BDAC0B0720A80B072008
:10155000E80B072031950800A99A0800B00B072076
:10156000711208006F12833A35950800452608006D
:101570007D1408002DE9F04F8BB006460D46144649
:10158000184602930022764B1A700021754B98473B
:10159000002840F028827448744B9847744B1B789D
:1015A000A3B1744C744B1968744B1868A047744B02
:1015B0001860744B1968A047734B18600025684B7E
:1015C0001D70DFF82CA2DFF82CB294E06B4B1A6888
:1015D000694B1A600796089509946C4907A86C4BEB
:1015E0009847002847D06B4C029D29462846A047C3
:1015F0002946A047684B9847CDE900010024DFF851
:1016000068B1DFF8C4A1DFF88491DFF86881634F27
:10161000634E5BF824104AF8241059F82400C047A0
:1016200047F824005C4B984700225E4B5E4DA8476C
:10163000DDE900235D4DA8475D4B9847554D029964
:10164000A8474FF07A51A84746F824000134032CEC
:10165000DFD12C464FF07A51029D2846A047554BCA
:1016600018604FF07D512846A047464B1860012274
:101670003F4B1A7095E701244F4B1C704F48504B5D
:10168000984700223A4B1A702046A9E100234AF8F5
:1016900025304BF825300022474B1A70304C257806
:1016A000484F494B53F825105BF82500B8472E4B9F
:1016B00053F825102F4B9847444B98478046257880
:1016C0005AF82500424B9847424E01464046B847DB
:1016D00046F825002578404A404956F82500404BF9
:1016E0009847404B43F8250025780135EDB2257029
:1016F000022D00F25D812E46214B1C680021204600
:10170000184B98470028C1D1254B53F825900299D2
:101710004846354B984707460090264B19682046A7
:10172000104B9847002867D01A4D4FF0814138463A
:10173000A8472146A8474AF8260021462046A84740
:101740002146A847044629493846A847014620466D
:10175000A8474BF826000022174B1A709EE700BFDF
:10176000BC0B0720959A0800CC0B07201D1B080016
:10177000E40B072031950800E80B0720A80B072091
:10178000F40B0720F00B0720A40B0720D80B072031
:101790005D08080045970800BD8F0800F80B07207A
:1017A000880B07200000404065900800B9920800AF
:1017B00089940800EC0B0720280C072010E508008E
:1017C000016B080035950800100C0720D9070800A8
:1017D00045080800C00B072000EC1F41000020C195
:1017E000412508001C0C0720AD980800ABAA2A3F31
:1017F000940B0720040C07207C4B196820467C4B77
:101800009847002860D07B4D4FF081410098A84751
:101810002146A84701464846774B98474AF8260094
:1018200021462046A8470390DFF8F8814846C04784
:10183000724F0022724BB847CDE904010398C047AC
:1018400002460B46DDE90401B847CDE904016D49C4
:101850000098A847074603992046A84701463846FE
:10186000A847C04702460B46DDE90401664FB8476A
:10187000CDE900014FF078514846A8470299A847A2
:101880002146A847C047614C02460B46DDE90001EE
:10189000A047CDE900015E494846A8470746029B9C
:1018A00019461846A84701463846A847C047024689
:1018B0000B46DDE90001A047564B98474BF8260040
:1018C0000022554B1A70E9E621460298534B98477F
:1018D00000285ED0524BD3F80080524C009F38460F
:1018E000A047464D0022504BA847CDE90001404695
:1018F000A04702460B46DDE90001A847CDE90001FB
:1019000009F10040A04702460B46DDE900013F4CCB
:10191000A047404B98474AF82600364C414640467F
:10192000A04705464FF07C514846A04700F10040D3
:101930002946A047009033493846A0470746294624
:101940004046A04701463846A047384D014600981A
:10195000A84707464FF078514846A0470299A0474C
:101960004146A04701463846A84707463049484601
:10197000A047804602980146A04701464046A0473E
:1019800001463846A8474BF826000022224B1A7021
:1019900084E600234AF82530264B53F825304BF8CF
:1019A000253001221C4B1A700022234B1A7075E659
:1019B00000232370214E224D224C56F82310E85C60
:1019C000A047214A13780133DBB21370022BF4D9FC
:1019D0001E4C1F492068154B984720600E4B187805
:1019E0000BB0BDE8F08F0020FAE700BFF00B072036
:1019F000959A080045970800319508006590080001
:101A00000000E03FABAA2A3FFD8C0800018D0800D2
:101A1000ABAA2A3C89940800280C0720A99A080040
:101A2000A40B0720BD8F080000001040359508006A
:101A3000ABAAEA3DF80B0720E40B07201C0C07209B
:101A40000CE508008D1C0800BC0B0720A80B072024
:101A50006F12833A10B51E4B1B88C3EBC3011D4A9E
:101A600012F82120032A2ED8DFE802F002151E28E2
:101A7000184AD800C11A02EB810108460B69CA68EE
:101A800089684068144CA04720B1114A138801337B
:101A90001380002010BDC3EBC3030E4A02EB830387
:101AA00058690E4B9847EFE70A4AD900C81A02EB6B
:101AB00080004169007E0A4B9847E5E70022044B0D
:101AC0001A80012010BD0022014B1A80012010BD98
:101AD000A00B072048E5080075150800A1130800B1
:101AE000DD1408002DE9F0410024DFF82C80084FB8
:101AF000084EE5B2832200212846C0472846B84751
:101B00002846B0470134042CF3D1BDE8F08100BF72
:101B1000A1270800ED270800992608002DE9F041CB
:101B2000074600240C4B1C70DFF840800B4E0C4D18
:101B300018F80400B0470B4B984729460A4B9847C2
:101B400047F82400044B1C780134E4B21C70022CCA
:101B5000EED9BDE8F08100BF290C07202527080039
:101B6000DB0F493B9D960800459708000CE60800EE
:101B700038B525200C4B98470C4C08230C4A0D49CE
:101B800020460D4DA84701234FF440120021204666
:101B90000A4DA84700212046094B984700221146CC
:101BA0002046084B984738BDAD77080000000C4030
:101BB00040420F00007A030A91390800E339080017
:101BC000C5390800D5390800032800D9704708B581
:101BD0000021024B185C024B984708BD10E6080034
:101BE000491F0800032800D9704708B50121024B9E
:101BF000185C024B984708BD10E60800491F080012
:101C000038B5032803D96FF07F04204638BD054658
:101C1000C1F30B0444F4E044044B98472046044BC2
:101C2000984704462846034B9847EEE7C91B08002F
:101C300005290800E51B08002DE9F8430E4B9847DD
:101C40000E4C04F104090126DFF83C800C4F14F817
:101C5000015B31462846C04731462846B8474C45C7
:101C6000F5D100242646074D3146E0B2A84701349D
:101C7000042CF9D1BDE8F8836928080010E60800B3
:101C8000491F0800011C0800691E080070B582B0D9
:101C9000064608460A4D0B4C2A4621460A4B9847F1
:101CA0000A4B009300232A462146094CA047094BC2
:101CB000984781B23046084B984702B070BD00BFCC
:101CC00000EC1F41000020C14125080000F07F45C5
:101CD000F9240800499B0800011C080030B4614B3E
:101CE0001C1F03F582732146002241F8042F9942FC
:101CF000FBD15C4B39221A645C225A6459229A64E3
:101D00005822DA6457221A6556225A6555229A6576
:101D10006722DA6568221A660B229A660A22DA6658
:101D200064221A6765225A673B225A662C229A67F8
:101D30002D22DA671122C3F880201222C3F88420F2
:101D400010221A6018225A6017229A601622DA604E
:101D500006221A6104225A6103229A610222DA6180
:101D600031221A6232225A6233229A623422DA62B1
:101D70003A22C3F888200E22C3F88C200F22C3F821
:101D800090206022C3F894206122C3F89820622238
:101D9000C3F89C206322C3F8A0206622C3F8A420C5
:101DA0006922C3F8A8200722C3F8AC206A22C3F82E
:101DB000B0204122C3F8B4204222C3F8B820432205
:101DC000C3F8BC204422C3F8C0204522C3F8C42075
:101DD0004622C3F8C8204722C3F8CC204822C3F8C3
:101DE000D0204922C3F8D4201322C3F8D8201422CB
:101DF000C3F8DC205322C3F8E0205222C3F8E420C9
:101E00005122C3F8E8205022C3F8EC204F22C3F837
:101E1000F0204E22C3F8F4204D22C3F8F8204C22C3
:101E2000C3F8FC20012554F8043F03F01F0205FA13
:101E300002F25B0903F5001303F207735B021A60F9
:101E40005A61C3F8A0205A635A665A655A62C3F8A9
:101E50008020186F20EA02021A678C42E3D130BC5E
:101E6000704700BF2C0C0720412817D80E4B53F8A1
:101E70002020530903F5001303F207735B020129C5
:101E80000DD021B902F01F0001218140596102F0FB
:101E90001F02012101FA02F2C3F8A020704702F0EC
:101EA0001F0081401961F2E72C0C0720412800D95E
:101EB0007047174B53F8203003F01F000122824077
:101EC0005B0903F5001303F207735B0211F0080FBF
:101ED00014BF5A661A6611F0200F14BF1A655A65AE
:101EE00011F0C00F14BF1A625A6211F0800F14BFB4
:101EF000C3F88420C3F8802011F0010F04D1196FBA
:101F000021EA02021A67D3E7196F0A431A6770477A
:101F10002C0C0720412811D80A4B53F820205309D4
:101F200003F5001303F207735B0202F01F020121A5
:101F300001FA02F2D96B0A4201D11A6370475A635F
:101F4000704700BF2C0C072041280FD80B4B53F8CB
:101F50002020530903F5001303F207735B0231B924
:101F600002F01F02012101FA02F25A63704702F0E7
:101F70001F02012101FA02F21A6370472C0C07209C
:101F8000412813D80A4B53F82020530903F50013B6
:101F900003F207735B02D96B02F01F02012303FAFD
:101FA00002F20A4214BF1846002070470020704712
:101FB0002C0C072041289ABF024B53F82000002028
:101FC000704700BF2C0C072001289ABF024B03EB7F
:101FD00040100020704700BF380D0720012846D868
:101FE00038B5254B03EB4013DB680BB1012038BD3E
:101FF0000446214A4301D018D35803F01F0101229F
:1020000002FA01F15B0903F5001303F207735B02A7
:102010005960436803F01F018A405B0903F5001310
:1020200003F207735B025A606420144B984700B3B5
:10203000114B03EB44130A2199610F215977186161
:1020400064225A6103221A770B4D194610310C4B4A
:102050000C48002C18BF18460B4B984705EB44144E
:10206000E0600A4A0A490B4B9847012038BD00201E
:102070007047002038BD00BF380D07200D42080012
:102080000000094000C00840392F080000BD0105CC
:10209000801A0600413B080010B586B08DF8141078
:1020A0008DF804200122029203939DF820300493BE
:1020B0000023C82201A9C068014CA04706B010BD8A
:1020C0006130080010B584B004AC04F8013D012370
:1020D00000932346014CA04704B010BD992008008E
:1020E00010B586B08DF814108DF8042001220292EC
:1020F00003939DF8203004930023C82201A9C068EF
:10210000014CA04706B010BDDD31080010B586B007
:1021100000238DF803308DF814108DF8042001226F
:1021200002920DF1030103910492C82201A9C06833
:10213000024CA0479DF8030006B010BDDD31080039
:10214000012801D9FF2070472DE9F04F83B040B13D
:10215000012802D00025019506E01F251E230193CA
:1021600002E02125202301930021019F3846554E8E
:10217000B04708213846544CA04700212846B047B4
:1021800008212846A0475148514B98472846514BB3
:10219000984768B900213846B04708213846A0471B
:1021A00000212846B04708212846A04702204EE0DB
:1021B0000198484B984730B94FF0280ADFF804914E
:1021C000DFF804B109E0002041E00198414B984755
:1021D000002850D1BAF1010A3CD000212846C84756
:1021E00000212846D84701212846C8477820384C86
:1021F000A04700212846C84708212846D84778200C
:10220000A047354A1378013313702846314B98475D
:102210000028DAD11424DFF8B4802D4F2D4E40462B
:10222000B8472846B0470028CFD1013CF7D100215C
:10223000019C2046234EB04708212046224CA0474F
:1022400000212846B04708212846A047042003B0B3
:10225000BDE8F08F0021019C20461A4EB0470821AE
:102260002046194CA04700212846B047082128469F
:10227000A0470320EBE70021DDF804804046114C25
:10228000A04700214046104EB04701214046A047DC
:1022900078200F4FB84700214046A047082140460C
:1022A000B0477820B84700214046A0470821404663
:1022B000B04700212846A04708212846B047012002
:1022C000C5E700BF691E0800AD1E0800C027090051
:1022D00001000720811F0800340D07202DE9F0417F
:1022E000164B1C7814B12046BDE8F0810020144C38
:1022F000A0470120A047134D402200212846124B41
:1023000098472120114EB04768602020B0472860D0
:102310000027EF603846DFF83880C04704461F20AA
:10232000B04768621E20B0472862EF620120C047B4
:10233000002808BF0446014B1C70D4E7350D072068
:1023400041210800380D072085A20800B51F0800AC
:10235000DD1F080070B108B5006800F01F034009D8
:1023600000F5001000F20770012199404002024B75
:10237000984708BD704700BF3974080070B108B5B0
:10238000006800F01F03400900F5001000F207701C
:10239000012199404002024B984708BD704700BF99
:1023A0003D7408002DE9F04F83B001F01F040125B2
:1023B000A5404C0904F5001404F20774640225607A
:1023C0006561C4F8A050656665656562C4F88050B3
:1023D000266F26EA050626671E4EB44211D009D99B
:1023E0001D4B9C4231D003F500739C4230D10E2628
:1023F000B04608E0A6F500739C4229D10B26B046F2
:1024000001E00C26B04691468A4683464046134B6F
:1024100098470420124B98470746C0F800A0114B7C
:102420009847CDF800B04B462A46414620460E4C10
:10243000A0470E4A9319F02183F800130123B340FB
:102440001360384603B0BDE8F08F0D26B046DAE7DA
:102450000027F6E700100E4000120E40AD7708008E
:10246000E59B08007D2308000576080000E100E0F8
:1024700038B5044615460846044B98472A46014697
:102480002046034B9847034B984738BDB51F0800BB
:10249000A5230800552308002DE9F843094C04F151
:1024A00004094FF00108084F084E14F8015B41463B
:1024B0002846B84700212846B0474C45F5D1BDE82D
:1024C000F88300BF14E60800691E0800491F0800D1
:1024D000F8B50746064D0024064E47FA04F101F010
:1024E000010115F8010BB0470134042CF5D1F8BDFA
:1024F00014E60800491F08002DE9F04188461746F8
:102500001D460B4CA047064629460698A0470146A3
:102510003046084B9847064641463846A047014694
:102520003046054B98472946044B9847BDE8F08153
:102530003195080045970800AD98080035950800CA
:1025400070B505460C461646064B984730B93146DD
:102550002846054B984718B9284670BD204670BDDF
:10256000304670BD819A0800BD9A08002DE9F843F5
:102570001A4E751E07364FF00009DFF86C800127F0
:1025800015F8014F49462046C04704F01F0207FADC
:1025900002F2630903F5001303F207735B025A6644
:1025A0005A655A62C3F88020196F21EA02021A673D
:1025B000AE42E5D10A4E741E07364FF00109DFF82E
:1025C0002880084F14F8015F49462846C04700217B
:1025D0002846B847B442F5D1BDE8F88318E60800AC
:1025E00020E60800491F0800691E08002DE9F04197
:1025F0000B4E002425460B4F4FF0010802E001343A
:10260000082C09D016F8010FB8470028F7D008FAAF
:1026100004F31D43EDB2F2E72846BDE8F08100BFA8
:1026200017E60800811F0800072801D9002070471D
:1026300008B5024B185C024B984708BD18E6080025
:10264000811F0800072800D9704708B5024B185CA5
:10265000024B984708BD00BF20E60800491F08004C
:10266000032800D9704708B50021024B185C024BC3
:10267000984708BD28E60800491F0800032800D92C
:10268000704708B50121024B185C024B984708BD02
:1026900028E60800491F0800032801D8012900D9AD
:1026A000704770B51546044600290CBF8826902651
:1026B000054B98473046054EB0472846B047204660
:1026C000034B984770BD00BF61260800E928080049
:1026D0007D26080030B583B0FF238DF8073003282E
:1026E00001D8012903D99DF8070003B030BD044685
:1026F00000290CBF48255025064B98472846064B15
:1027000098470DF10700054B98472046044B984722
:10271000E9E700BF61260800E92808003D29080014
:102720007D260800F0B583B000238DF8073003281C
:1027300003D90025284603B0F0BD06460B4B984749
:1027400060200B4B9847042400250A4F0DF1070029
:10275000B8479DF8073043EA0525631E13F0FF04D0
:10276000F4D13046044B9847E4E700BF61260800E7
:10277000E92808003D2908007D26080010B5044618
:102780000121054B984740F00402D2B201212046B6
:10279000024B984710BD00BFD526080099260800B7
:1027A00010B504460121044B984700F0FB020121BB
:1027B0002046024B984710BDD526080099260800F0
:1027C000032800D9704738B50D460446044B984796
:1027D0002846044B98472046034B984738BD00BF16
:1027E00061260800E92808007D26080008B5202198
:1027F000014B984708BD00BFC12708002DE9F843E9
:10280000124B9847124C04F104090126DFF850805E
:10281000104F14F8015B31462846C0473146284620
:10282000B8474C45F5D10024DFF838800A4F0B4EED
:10283000E5B2A12200212846C0472846B8472846CD
:10284000B0470134042CF3D1BDE8F88369280800AF
:1028500028E60800491F08007D270800ED2708002A
:10286000691E0800992608000B4B1B7803B17047BE
:1028700030B583B0094C2046094B9847002200929E
:10288000084B09492046094DA84701232360024A05
:10289000137003B030BD00BF780D072000800040EA
:1028A0009105080000093D007C0D0720E5050800A2
:1028B000024B1869C0F34020704700BF0080004001
:1028C00038B50A4601460548054B98470546054C6C
:1028D000A0470028FCD0284638BD00BF008000403B
:1028E00065060800B128080000B583B002AB03F804
:1028F000010D01211846024B984703B05DF804FB17
:10290000C128080000B583B0030A8DF804308DF8A3
:102910000500022101A8024B984703B05DF804FBB3
:10292000C128080008B50A4601460248024B9847EC
:1029300008BD00BF008000409906080010B582B0B5
:10294000044602A8FF2300F8013D0121034B9847EC
:102950009DF80730237002B010BD00BF2529080084
:1029600008B501211920034B984700211920024B7B
:10297000984708BD691E0800491F080008B51920BE
:10298000014B984708BD00BF151F08002DE9F8430B
:10299000094C04F104094FF00008084F084E14F8E0
:1029A000015B41462846B84708212846B0474C45B8
:1029B000F5D1BDE8F88300BF2CE60800691E0800C9
:1029C000AD1E0800032801D90020704708B5044B4C
:1029D000185C044B984780F00100C0B208BD00BFEE
:1029E0002CE60800811F080008B5014B984708BD78
:1029F000555A080010B40C4669B103689A420CD0CD
:102A0000034600200130844203D053F8101F914246
:102A1000F8D110BC70470846FBE70020F9E7002A10
:102A200010DD0B7883420FD04B1C11448B420FD02A
:102A300010B413F8014B844208D08B42F9D1002026
:102A400010BC704700207047012070470120F7E755
:102A500000207047F8B506460C46154610F0010FE9
:102A60001DD116F0040F37D10023236016F0080F94
:102A700056D0002D54D00322002101202A4B984724
:102A80002860002843D000231A461946274CA04747
:102A9000286800283BD00021254B9847F8BD032229
:102AA00000210120204B9847606060B100231A4646
:102AB00019461E4FB847606828B100231A461946C8
:102AC0001A4FB847CDE74FF0A00383F31188BFF347
:102AD0006F8FBFF34F8FFEE7032200210120124BBF
:102AE0009847206050B100231A4619460F4FB84747
:102AF000206818B100210E4B9847B7E74FF0A003AC
:102B000083F31188BFF36F8FBFF34F8FFEE74FF052
:102B1000A00383F31188BFF36F8FBFF34F8FFEE7DE
:102B200000232B60F8BD00BFB946080055470800D8
:102B3000F54B08000F2908D94FF0A00383F3118843
:102B4000BFF36F8FBFF34F8FFEE7092908D84FF00F
:102B5000A00383F31188BFF36F8FBFF34F8FFEE79E
:102B6000002813DB30B4450900F01F0301229A400E
:102B70000A4C05F1600344F823200B01DBB220442A
:102B800080F8003344F8252030BC704700F00F0077
:102B90000B01DBB2024A1354704700BF00E100E0B2
:102BA00014ED00E02DE9F041064690461F46856988
:102BB0008D421FD08D4232BF4C1B4468641BBC4207
:102BC00007D31ED000231A4619463069114CA0477E
:102BD0003C462246B16940460F4B984725447368EE
:102BE0009D4210D20D4B9847B5610D4B984720463A
:102BF000BDE8F081C36813B94468641BDFE70024B3
:102C0000DDE73C46E5E7054B98473368B361044B85
:102C10009847ECE75547080099A10800753F080060
:102C2000B93F08004368BBB130B583B00D460446D8
:102C300068460C4B9847296860680B4B984768B109
:102C400029466846094B9847012802D0002003B066
:102C500030BD00202860FAE7002070476FF00200C6
:102C6000F5E700BF8D5E0800F54B0800E55E080043
:102C7000F0B583B00F4616461C46089B9DF82450BD
:102C8000B3B1036000211846134B98470097019693
:102C900095B902212046114B9847002269462046EB
:102CA0000F4B9847012120460E4B984703B0F0BDCB
:102CB0000368002BEAD0E5E74FF400712046074B8C
:102CC0009847002269462046074B98474FF4807189
:102CD0002046044B9847E9E7F54B0800F1710800DE
:102CE000CD710800E5710800B571080009B1002038
:102CF0007047006848B108B51146054B9847012850
:102D00000CBF00206FF0020008BD0020704700BF1C
:102D1000F54B08002DE9F04182B0074600230193EE
:102D200003017B4AD55828467A4B984706462846E1
:102D3000794B9847064016F4005F35D14FF00008F4
:102D400016F4805F7CD116F4507F02D1B8F1000FE9
:102D50001DD06F4B03EB071340F2022158686F4BF5
:102D6000984716F4807F04BF02232B604FF4005174
:102D700028466B4CA0474FF480512846A047694B2A
:102D800003EBC707786810B101A9674B9847019B0F
:102D90003BB14FF08052654B1A60BFF34F8FBFF3CA
:102DA0006F8F02B0BDE8F081594B03EB07134FF46E
:102DB00000715868594B98474FF400512846584BBA
:102DC000984700242B6A13F0040F06D10134B4F1A4
:102DD000FF3FF7D14FF0010801E04FF00008022358
:102DE0002B60534B03EBC70253F837305268134440
:102DF00013F8013C6B632B6A13F0010F0CD1013403
:102E0000B4F1FF3FF7D1474B03EBC70358680028E5
:102E10007AD04FF0010804E0424B03EBC703586837
:102E200010B101A9404B9847B4F1FF3F88D03D4B0A
:102E300053F83700002883D001A93B4B98477FE720
:102E4000334B03EB071302215868344B98474FF478
:102E500080512846324B984700242B6A13F0020F0A
:102E600003D10134B4F1FF3FF7D102232B60304B83
:102E700053F8372003EBC7035968286B531803F83E
:102E8000020C2B6A13F0020F1BD10134B4F1FF3F87
:102E9000F7D1244B03EBC703586800283FF453AF26
:102EA00001A9214B9847B4F1FF3F3FF44CAF214BB0
:102EB00053F8370000283FF446AF01A91A4B984752
:102EC00041E7B4F1FF3F0ED02B6B0A4402F8013CFE
:102ED00000242B6A13F0010F0FD10134B4F1FF3F2E
:102EE000F7D14FF001080F4B03EBC70358680028D8
:102EF0003FF429AF4FF0FF34D2E70A4B03EBC7038F
:102F000058680028CCD1CEE74FF0010818E700BF81
:102F100030E60800033C0800073C0800F171080097
:102F2000FD3B0800A00D07207D49080004ED00E0EE
:102F3000900D0720800D07202DE9F04F83B0044647
:102F40000D4602AF032307F8043D0246022135482F
:102F5000354B9847064601223946287B334B984724
:102F6000012E59DC00285BD04FEAC609304B03EB39
:102F7000090808222F4940462F4B984740B14FF08F
:102F8000A00383F31188BFF36F8FBFF34F8FFEE76A
:102F90002A4B9944082227494846274B984740B175
:102FA0004FF0A00383F31188BFF36F8FBFF34F8FF0
:102FB000FEE7DFF870A037010AEB070BDBF808002B
:102FC0001F4B984740F20221DBF804001D4B984745
:102FD0005AF807704FF0FF3138461B4B9847384678
:102FE0001A4B98472B7B032B02D13846184B984736
:102FF0004A464146687B174B98474FF45071384614
:10300000154B9847074B03EB0616A96896F90C0079
:10301000124B9847204600E0002003B0BDE8F08F37
:103020000020FAE730E60800F52908001F2A08000A
:10303000A00D072050E6080039A10800800D0720E8
:10304000AD770800F1710800FD3B0800113C080055
:10305000333B0800552A0800F93B0800352B0800CF
:103060002DE9F04385B004460D4603929946024689
:1030700002215048504B9847012800F3948006469F
:10308000EB68002B00F092804C4F07EBC00703A9C0
:1030900038464B4B9847804600283BD1002363605D
:1030A0002B7C1B0403F4FE036A68120202F44072D4
:1030B000134363606B685BB12A78012B84BF697826
:1030C00041EA0222022B86BFAB7843EA0223134671
:1030D000E360EA68012A21D0A9683A4B43F8361028
:1030E00003EBC6035A60334B03EB061673680120EB
:1030F0000190CDF80090013A3846334DA8474FF47F
:1031000000512046314B9847039A49463846304B88
:1031100098478046404605B0BDE8F0833301254A14
:10312000D7584FF4507138462A4B9847AB681B78F4
:1031300063630023226A12F4807F23D112F0040F0C
:1031400005D10133B3F1FF3FF4D16FF00208022241
:103150002260226A12F0010F05D10133B3F1FF3F63
:10316000F7D16FF002084FF450713846174B98476B
:10317000124B03EBC60600231A4619467068164C1C
:10318000A047C7E74FF450713846104B98470B4B98
:1031900003EBC60600231A46194670680E4CA0477A
:1031A0006FF00908B6E76FF00708B3E76FF007089C
:1031B000B0E700BF30E60800F5290800A00D0720A1
:1031C000252C0800900D0720712C0800F93B080001
:1031D000ED2C0800FD3B0800554708002DE9F043A1
:1031E00085B004460D460392994602460221644882
:1031F000644B9847012800F3BC800646EB68002B1F
:1032000000F0BA804FEAC00803A95F4840445F4B12
:103210009847074618B1384605B0BDE8F083204608
:103220005B4B9847002363606B681B0203F4407399
:1032300043F480532A7C120402F4FE0213436360B9
:103240006B685BB12A78012B84BF697841EA02225E
:10325000022B86BFAB7843EA02231346E360EA6899
:10326000022A63D83301464A52F803804FF4507162
:103270004046484B9847EB68A868012B0ED00122C6
:1032800022600025002B38D0226A12F4807F09D1F9
:1032900000214FF0020C4FF0010E23E003222260C8
:1032A0000125F1E74FF4507140463B4B9847364BB0
:1032B00003EBC60600231A4619467068374CA04730
:1032C0006FF00907A7E77DB9C4F800C075460BE0A9
:1032D000226B0270013B0130002173B1226A12F4AB
:1032E000807FDFD1012BEED012F0020FF0D101313F
:1032F000B1F1FF3FF1D16FF002074FF0FF33226AC7
:1033000012F0010F03D1013BF9D16FF002074FF426
:1033100050714046204B98471B4B03EBC6060023D9
:103320001A46194670681D4CA04774E7A9681C4BE3
:1033300043F8361003EBC6035A601A4B9844104BFF
:1033400003EB0616736800200190CDF80090023A56
:103350004046154DA847012323604FF48051204675
:103360000D4B9847039A49464046104B98470746ED
:1033700051E76FF007074EE76FF007074BE700BF15
:1033800030E60800F5290800A00D0720252C0800CC
:103390000B3C0800FD3B0800F93B080055470800BE
:1033A000900D0720800D0720712C0800ED2C0800DF
:1033B00008B50020014B984708BD00BF152D080037
:1033C00008B50120014B984708BD00BF152D080026
:1033D00070B5C0EBC002304B03EB82039A699B6867
:1033E0009A4214D151B9C0EBC0012B4A02EB8102C1
:1033F0000021D160526893421CD82EE0C0EBC0017E
:10340000254A02EB81025168C91AD16008E09A424C
:1034100019D9C0EBC004204901EB8401D21ACA605B
:10342000C0EBC0011C4A02EB8102D1680B44526818
:10343000934211D94FF0A00383F31188BFF36F8F2C
:10344000BFF34F8FFEE7C0EBC001134A02EB8102CE
:103450005168C91AD160E3E731B9000109210F4B66
:1034600018580F4B984770BD0C4D04012B195E681E
:10347000C0EBC000084901EB800100220831304652
:10348000084B984701213046074B98470921285996
:10349000064B984770BD00BFB00D072058E60800E6
:1034A00053720800CD710800E57108004F720800E2
:1034B0002DE9F04782B00546884616464FF00109CF
:1034C00002AF07F8049D024649465948594B9847B0
:1034D00004464A463946307B574B9847002C00F348
:1034E000A380002800F0A280C4EBC402534B03EB7E
:1034F00082039B6943B14FF0A00383F31188BFF3AC
:103500006F8FBFF34F8FFEE728464D4B98472846F5
:103510004C4B9847464F07EB0417D7F8049040F2FE
:1035200002214846484B9847B868484B9847337B38
:10353000012B03D141462846454B98474FF0FF31B8
:103540002846444B98470022434901EBC401707B55
:10355000424B98473368002B5ED000214FF0FF307C
:103560003F4B9847C4EBC402344B03EB8203186112
:1035700040B94FF0A00383F31188BFF36F8FBFF3FF
:103580004F8FFEE7DFF8B4A0C4EBC4084FEA880809
:103590000AEB08073368BB607368FB60394600229A
:1035A000083148462F4B98473368BB61BA684AF8E0
:1035B0000820736813447B60737B13F0020F0DD0F7
:1035C0000120294B9847786140B94FF0A00383F35D
:1035D0001188BFF36F8FBFF34F8FFEE70921284695
:1035E000224B984701214846214B9847104F240110
:1035F0003B19B16893F90C001E4B9847E0213859EC
:103600001A4B984728461C4B984728461B4B98470F
:10361000284602B0BDE8F087C4EBC402074B03EBB9
:10362000820301229A61E1E70020F2E70020F0E73F
:1036300058E60800F52908001F2A0800B00D0720E9
:103640003D72080049720800F1710800AD7708006A
:103650000172080053720800CC0D0720552A08009B
:1036600021470800CD710800514908004F72080039
:10367000E5710800352B0800377208004372080016
:103680002DE9F04184B005460E46174603930246E5
:1036900001211748174B9847B0F1000825DC164C5C
:1036A00004EBC80403A92046144B9847034618B1FD
:1036B000184604B0BDE8F0810D4B03EB0818D8F8AC
:1036C0000430012201920A9A00923A46314620467D
:1036D0000B4EB047102128460A4B9847039A0A9987
:1036E0002046094B98470346E2E76FF00703DFE700
:1036F00058E60800F5290800CC0D0720252C080005
:10370000712C08004F720800ED2C08002DE9F04FD5
:1037100087B08B4690460393024601214B484C4BA1
:103720009847C0EBC0024B4B03EB82039B694BB144
:103730000446012B0FD0002816DD0025284607B0CF
:10374000BDE8F08F4FF0A00383F31188BFF36F8FB4
:10375000BFF34F8FFEE74FF0A00383F31188BFF351
:103760006F8FBFF34F8FFEE73A49C0EBC0039B005A
:10377000CA185268CB58D31A434551D304A8364BC4
:103780009847C4EBC402334B03EB8203586900280B
:1037900048D00399314B9847012810D103A904A8B8
:1037A0002F4B984701283DD1C4EBC404294800EBB6
:1037B000840000231A46194640692A4CA047002578
:1037C000BCE701210298284B984718E0A84519D971
:1037D00003A904A8224B9847A0B903993069D047A0
:1037E0007B681968A8EB05030BEB05020198C84735
:1037F0002D18EBD01D4B9847F368002BE1D01C4BE4
:103800009847E3E7C4EBC404124B03EB8403586905
:10381000002893D000231A461946124CA0478DE782
:1038200000258BE70294C4EBC4030A4A02EB83032E
:1038300001930025C4EBC40302EB8306DFF81CA050
:10384000024F07EB0417DFF82C90C6E758E6080094
:10385000F5290800B00D07208D5E0800F54B080023
:10386000E55E080055470800D1330800753F0800A1
:10387000B93F0800A52B080030B583B000230193A1
:10388000394D2846394B984704462846384B9847C7
:10389000044014F0100F32D114F0080F1BD0354B38
:1038A0009B69002B3DD0012B44D0324A9368D168EC
:1038B0000B4493605268934202D32E4B1A689A606D
:1038C000002108462C4B98472A4B186900283AD00B
:1038D00001A92A4B9847002C37D1264B186910B103
:1038E00001A9264B9847019B3BB14FF08052244BD6
:1038F0001A60BFF34F8FBFF36F8F03B030BD10213D
:103900002846204B9847204B586810B101A91B4B03
:1039100098471D4B18680028BED001A9174B98473F
:10392000BAE74FF0A00383F31188BFF36F8FBFF3A3
:103930004F8FFEE74FF0A00383F31188BFF36F8F23
:10394000BFF34F8FFEE7002CCDD014F0E00FCAD0AC
:1039500005480E4B98470C4B58680028C3D001A966
:10396000064B9847BFE700BF00080E405B72080097
:1039700057720800B00D0720D13308007D490800B8
:1039800004ED00E053720800CC0D07205F720800C0
:1039900030B4012404600024446040F20225C0F8E1
:1039A0002051C0F80441C0F8144145685200B1FBF1
:1039B000F2F2013A120292B22B431A4342602046BD
:1039C00030BC7047436823F01003436043681943D9
:1039D000416070474368D201D2B219430A43426042
:1039E000704710B44468090601F0706121430A432E
:1039F000190701F040511143416010BC70470000AD
:103A000008B5044B984200D008BD1820024B9847D7
:103A1000FAE700BF00800040AD770800436823F458
:103A2000702343604368090401F470211943416025
:103A30007047436823F07F434360436843EA016172
:103A40004160704732B900EB8100036B23F0010342
:103A50000363704700EB8100036B43F001030363D2
:103A6000704732B900EB8100036B23F0020303635C
:103A7000704700EB8100036B43F002030363704760
:103A8000042A03D06AB1082A16D0704700EB8100DF
:103A9000036B23F008030363036B43F00403036326
:103AA000704700EB8100036B23F008030363036B93
:103AB00023F004030363704700EB8100036B43F0C2
:103AC00008030363E1E700EB81010B6B23F0F003D4
:103AD0000B630B6B1A430A637047431E1944B1FB17
:103AE000F0F0431EFE2B94BF00B24FF0FF30704742
:103AF00072B110B4144600EB81010B6B23F47F43C9
:103B00000B630A6B42EA04220A63002010BC704770
:103B10004FF0FF30704710B400EB8101086B80B2AA
:103B200008630C6B44EA036343EA02430B6310BC73
:103B30007047082303602023036004230360704759
:103B40002A4B994249D8A3F57A5399422BD910B4FC
:103B5000274CA4FB0234A40B043C264B0B449B00D3
:103B6000B2FBF3F2043AFF2C39D900210131640889
:103B7000FF2C0DD90729F9D113029BB2090401F4D6
:103B8000E0210B43E4B223430361002010BC7047E3
:103B9000FF2AF1D90629EFD801315208FF2AEBD9C3
:103BA0000629F9D9E8E74900B2FBF1F2043AFF2A05
:103BB00011D9002301335208FF2A01D9072BF9D16B
:103BC000110289B21B0403F4E0230B43D2B21A435F
:103BD0000261002070470023F2E701207047FF2AAE
:103BE00088BF0021D8D80021C6E700BF801A060090
:103BF000F11976050012FD3F416270478162036A48
:103C00007047006A7047C06A7047006BC0B2704767
:103C100080230360036B704710B51C20054B984749
:103C2000044620B1002340F8043B034B984720464C
:103C300010BD00BF0D420800313E08002DE9F843D9
:103C4000DDF8209060B1064611F07F4F11D04FF0A3
:103C5000A00383F31188BFF36F8FBFF34F8FFEE78D
:103C60004FF0A00383F31188BFF36F8FBFF34F8F23
:103C7000FEE741B94FF0A00383F31188BFF36F8FC4
:103C8000BFF34F8FFEE7984617460C46334B9847D5
:103C900058B9B9F1000F08D04FF0A00383F3118891
:103CA000BFF36F8FBFF34F8FFEE72D4B98473568FB
:103CB000B8F1000F0DD12C4214BF0123002373B1C2
:103CC00017B125EA04043460264B98472846BDE81E
:103CD000F88334EA05030CBF01230023EFE7B9F1B1
:103CE000000FF1D0002F0CBF00214FF08071B8F110
:103CF000000F01D041F080614A462143301D1A4B2C
:103D00009847184B984738B94FF08052174B1A60B4
:103D1000BFF34F8FBFF36F8F154B9847054610F0D9
:103D2000007F10D1134B98473568B8F1000F0ED1C2
:103D30002C4214BF012300231BB117B125EA040450
:103D400034600D4B984725F07F40BDE8F88334EA96
:103D500005030CBF01230023EEE700BF4561080007
:103D60002156080005580800E55B080004ED00E056
:103D700059650800753F0800B93F080070B12DE98A
:103D8000F041044611F07F4F11D04FF0A00383F3B0
:103D90001188BFF36F8FBFF34F8FFEE74FF0A00383
:103DA00083F31188BFF36F8FBFF34F8FFEE70D468C
:103DB00000F10C061B4B9847206923682B432360B6
:103DC000864224D00025DFF8648009E0216833EAC8
:103DD00001010CBF012100210EE03846BE4217D080
:103DE0004768026822F07F4312F0806FEED12168AD
:103DF0000B4214BF012100210029EED012F0807F78
:103E000018BF1D43216841F00071C047E5E7002558
:103E1000236823EA05032360034B98472068BDE825
:103E2000F08100BF2156080005580800A95D080070
:103E300000F1080343604FF0FF328260C36003610A
:103E400000230360704700230361704743684B60A1
:103E50009A688A609A6851609960086103680133C2
:103E60000360704730B40D68B5F1FF3F02D000F138
:103E7000080202E0026904E01A4653681C68A54281
:103E8000FAD253684B6099608A6051600861036898
:103E90000133036030BC70470369426881689160F8
:103EA0008268416851605A68904204BF82685A60D3
:103EB000002202611A68013A1A601868704700000F
:103EC00082B0002301930D4B1B68B3F1FF3F08D074
:103ED0004FF0A00383F31188BFF36F8FBFF34F8FB1
:103EE000FEE74FF0A00383F31188BFF36F8FBFF39A
:103EF0004F8F019B002BFCD002B070473C01072084
:103F000006480068006880F3088862B661B6BFF3AF
:103F10004F8FBFF36F8F00DF00BF000008ED00E0A0
:103F20004FF0807340F8043C21F0010140F8081C78
:103F3000034B40F80C3C40F8202C4038704700BF41
:103F4000C13E08000000000000000000000000006A
:103F5000074B19680868B0E8F00F80F30988BFF3D1
:103F60006F8F4FF0000080F311884EF00D0E7047F8
:103F7000FCAD07204FF0A00383F31188BFF36F8FD0
:103F8000BFF34F8F0A4A136801331360012B0DD121
:103F9000084B1B6813F0FF0F08D04FF0A00383F30A
:103FA0001188BFF36F8FBFF34F8FFEE7704700BFDD
:103FB0003C01072004ED00E0094B1B6843B94FF0BA
:103FC000A00383F31188BFF36F8FBFF34F8FFEE71A
:103FD000013B034A13600BB983F31188704700BF9C
:103FE0003C0107200000000000000000000000006D
:103FF000EFF30980BFF36F8F0D4B1A6820E9F00FC4
:1040000010602DE908404FF0A00080F3118801F006
:104010004DFD4FF0000080F31188BDE8084019689D
:104020000868B0E8F00F80F30988BFF36F8F70471E
:10403000FCAD072008B54FF0A00383F31188BFF350
:104040006F8FBFF34F8F054B984718B14FF08052D9
:10405000034B1A60002383F3118808BD51560800F2
:1040600004ED00E0054B00221A6005490A6005498D
:10407000054A116007221A60704700BF10E000E097
:1040800018E000E01F48010014E000E010B582B025
:10409000294B1A78D2B20192FF221A701B78DBB238
:1040A0008DF803309DF8033003F0A003234A13700A
:1040B0000722234B1A609DF8033013F0800F12D0B3
:1040C000062300E00B469DF803205200D2B28DF883
:1040D00003209DF80320591E12F0800FF2D1184AD8
:1040E0001360032B08D04FF0A00383F31188BFF3B4
:1040F0006F8FBFF34F8FFEE71B0203F4E063104A9C
:104100001360019BDBB20C4A13700E4B1A6842F429
:1041100070021A601A6842F070421A600A4B98479F
:1041200000240A4B1C600A4B98470A4B98470A4BDD
:104130009847204602B010BD00E400E0D40D0720EF
:10414000D80D072020ED00E0654008003C01072065
:10415000013F0800AD5A0800C13E0800EFF3058397
:104160000F2B0FD9104A9B5CDBB2104A12789A428F
:1041700008D94FF0A00383F31188BFF36F8FBFF30B
:104180004F8FFEE70A4B1B6803F4E063094A12688D
:10419000934208D94FF0A00383F31188BFF36F8FC8
:1041A000BFF34F8FFEE77047F0E300E0D40D072028
:1041B0000CED00E0D80D072010B4124B1A688242B3
:1041C0001AD35C681919884203D1416821445960A7
:1041D000184641684418A24212D10B4C2468A242EE
:1041E0000CD052680A4442601A6812680260984211
:1041F00018BF186010BC70471346DFE70260F6E78F
:104200000260F4E7F4AD0720DC0D0720F8B50446A2
:104210004C4B98474C4B1B68F3B14C4B1E682642E5
:1042200040F08680002C00F0868004F108039C4258
:1042300080F0818013F0070F05D023F007020832C9
:10424000934278D21346002B72D0414A1768BB4282
:104250006ED8404A146827E03F4A12F0070F1ED07C
:10426000D11D21F0070102F520435B1A0A463948A7
:104270000260002141601344083B23F007033248E9
:10428000036059601960991A51601360334B1960CB
:104290002F4B19604FF000422C4B1A60BDE74FF4D2
:1042A0002043E4E722460C4661688B4202D921682C
:1042B0000029F7D1244909688C4239D01568216852
:1042C00011606268D21A102A10D9E01810F0070F96
:1042D00008D04FF0A00383F31188BFF36F8FBFF3B3
:1042E0004F8FFEE7426063601D4B98476268BF1ABC
:1042F00017490F60194909688F423CBF17490F6081
:1043000008351643666000232360164A136801339C
:104310001360154B984785B115F0070F10D04FF07B
:10432000A00383F31188BFF36F8FBFF34F8FFEE7B6
:104330000D4B984701E00C4B98470C4B98470025D4
:104340002846F8BD21560800DC0D0720E0AD072007
:10435000E4AD0720F4AD0720E00D0720E8AD07200D
:10436000B9410800ECAD072005580800396E080077
:10437000002833D010B5044650F8043C184A12689F
:10438000134208D14FF0A00383F31188BFF36F8F5E
:10439000BFF34F8FFEE750F8081C41B14FF0A00368
:1043A00083F31188BFF36F8FBFF34F8FFEE723EACC
:1043B000020340F8043C0B4B98470B4A54F8043C6A
:1043C00011680B441360A4F10800084B9847084A91
:1043D000136801331360074B984710BD704700BF47
:1043E000E0AD072021560800E4AD0720B9410800E0
:1043F000F0AD07200558080010B50446044B984757
:10440000A46B044B9847B4FA84F0400910BD00BF78
:10441000753F0800B93F080070B504461646856B25
:10442000026C52B90368002B2AD18068184B984758
:104430000023A3600135A56370BD6EB94068154BBC
:1044400098476368226C13446360A268934219D34F
:10445000236863600020EDE7C0680E4B9847236C2B
:104460005B42E2681A44E26021688A4202D2A26892
:104470001344E360022E07D145B1013D0020D9E786
:104480000020D7E70020D5E70020D3E70020D1E7C0
:104490002D62080099A1080070B582B00190846C6B
:1044A00064B1A26BE36B9A4211D34FF0A00383F384
:1044B0001188BFF36F8FBFF34F8FFEE74FF0A0035C
:1044C00083F31188BFF36F8FBFF34F8FFEE7A26BAB
:1044D000934203D80026304602B070BD94F8455090
:1044E0006DB2002201A92046104B98470646B5F14F
:1044F000FF3F0AD1636A002BEDD004F124000C4B7E
:104500009847002818BF0126E5E77F2D08D14FF016
:10451000A00383F31188BFF36F8FBFF34F8FFEE7C4
:104520006B1C5BB284F84530D5E700BF1944080026
:10453000B55C0800026C72B110B50346C46814443F
:10454000C4608068844224BF1868D8600846D9686F
:10455000014B984710BD704799A108002DE9F04123
:104560000546234B984795F8454064B2002C18DD6A
:10457000204EDFF88C80204F08E06B6A8BB105F18C
:104580002400B84758B9013C64B254B1AB6C002B5D
:10459000F3D02846B0470028F5D0C047F3E7C0471E
:1045A000F1E7FF2385F84530144B9847104B9847A7
:1045B00095F8444064B2002C12DD2B6983B105F1FB
:1045C00010070D4EDFF8388004E0013C64B23CB1C6
:1045D0002B692BB13846B0470028F6D0C047F4E726
:1045E000FF2385F84430054B9847BDE8F08100BFB4
:1045F000753F080099440800B55C0800B93F080001
:10460000755F080038B590B10446C26B32B14FF007
:10461000FF33B3FBF2F3026C934211D24FF0A003CD
:1046200083F31188BFF36F8FBFF34F8FFEE74FF017
:10463000A00383F31188BFF36F8FBFF34F8FFEE7A3
:104640000D46184B98472268216CE36B03FB01F37E
:10465000D018A0600020A06362605B1A1344E3607E
:10466000FF2384F8443084F8453095B9236963B159
:1046700004F110000C4B984738B14FF080520B4BAF
:104680001A60BFF34F8FBFF36F8F094B984701201C
:1046900038BD04F11000074DA84704F12400A847D5
:1046A000F3E700BF753F0800B55C080004ED00E0CB
:1046B000B93F0800313E0800F8B518B306464FF080
:1046C000FF30B0FBF6F088421CD301FB06F010F17E
:1046D000550F17D817460D4654300F4B98470446D0
:1046E00070B100F15403002D08BF03460360C66398
:1046F00005640121094B984784F850700023A36496
:104700002046F8BD4FF0A00383F31188BFF36F8FED
:10471000BFF34F8FFEE700BF0D42080005460800BB
:1047200008B1884208D24FF0A00383F31188BFF389
:104730006F8FBFF34F8FFEE710B50C4602220021AA
:10474000034B9847034600B18463184610BD00BF71
:10475000B94608002DE9F04F85B0019298B10446A2
:10476000D1B1022B24D01E460F466C4B984758BB44
:10477000019B8BB34FF0A00383F31188BFF36F8FBE
:10478000BFF34F8FFEE74FF0A00383F31188BFF311
:104790006F8FBFF34F8FFEE7026C002AE1D04FF01E
:1047A000A00383F31188BFF36F8FBFF34F8FFEE732
:1047B000E26B012AD7D04FF0A00383F31188BFF337
:1047C0006F8FBFF34F8FFEE70025DFF87C81DFF8A6
:1047D0007CA1DFF8549135E00025F6E7A56B324661
:1047E000394620464E4B9847A36C002B00F083803F
:1047F000022E00D15DB920464A4B984738B14FF0A0
:104800008052494B1A60BFF34F8FBFF36F8F474BF6
:104810009847012005B0BDE8F08F0028F7D04FF091
:104820008052414B1A60BFF34F8FBFF36F8FEEE79B
:104830003E4B98470020EDE720463D4B98473D4BC7
:1048400098470125C047A26BE36B9A42C6D3022E5C
:1048500047D0019B002BEBD00DB902A8D047334BBA
:104860009847354B9847C04794F844305BB2B3F152
:10487000FF3F04BF002384F8443094F845305BB216
:10488000B3F1FF3F04BF002384F84530274B98471E
:1048900001A902A8294B9847E0B9C047D4F838B01D
:1048A000E56B224B9847AB45C6D1019904F1100046
:1048B000234B984720461E4B98471E4B984700288D
:1048C000BFD14FF08053C9F80030BFF34F8FBFF313
:1048D0006F8FB6E72046164B9847164B9847002037
:1048E00098E7A56B0222394620460D4B9847A36CEA
:1048F000002B7FF47FAF636A002B8ED004F124007D
:10490000104B9847002882D04FF08052064B1A6017
:10491000BFF34F8FBFF36F8F79E700BF456108008A
:10492000194408009944080004ED00E0B93F08006C
:104930005D4508000558080021560800E55E08009E
:10494000AD5B0800B55C0800753F0800CD5E08004F
:1049500038B5024600210120064B9847044638B17D
:10496000002181600160C1600B460A46024DA847E4
:10497000204638BDB94608005547080060B170B5FB
:104980000446036C8BB14FF0A00383F31188BFF38F
:104990006F8FBFF34F8FFEE74FF0A00383F31188B3
:1049A000BFF36F8FBFF34F8FFEE7036823B30E464D
:1049B0002B4B9847EFF311854FF0A00383F3118839
:1049C000BFF36F8FBFF34F8FA26BE36B9A423BD263
:1049D00094F845305BB20132A263B3F1FF3F22D1BC
:1049E000A36CABB120461F4B984778B386B3012028
:1049F000306085F3118870BD8368002BD7D04FF0ED
:104A0000A00383F31188BFF36F8FBFF34F8FFEE7CF
:104A1000636AFBB104F12400134B9847E0B1EEB197
:104A200001203060E5E77F2B08D14FF0A00383F32E
:104A30001188BFF36F8FBFF34F8FFEE701335BB277
:104A400084F845300120D4E70020D2E70120D0E7E8
:104A50000120CEE70120CCE70120CAE70120C8E70A
:104A60005D41080099440800B55C08002DE9F04755
:104A700084B0019280B10446B9B10E46504B9847BC
:104A8000F8B9019B2BB34FF0A00383F31188BFF358
:104A90006F8FBFF34F8FFEE74FF0A00383F31188B2
:104AA000BFF36F8FBFF34F8FFEE7036C002BE4D093
:104AB0004FF0A00383F31188BFF36F8FBFF34F8FC5
:104AC000FEE70027DFF82481DFF824A1DFF8FC905F
:104AD00029E00027F6E7314620463A4B9847013D4A
:104AE000A563236963B104F11000374B984738B1CF
:104AF0004FF08052354B1A60BFF34F8FBFF36F8F6B
:104B0000334B9847012004B0BDE8F087304B9847FD
:104B10000020F8E702A8D0470EE020462D4B98472A
:104B20002D4B98470127C047A56B002DD3D1019B82
:104B3000002BEBD0002FEDD0254B9847274B984703
:104B4000C04794F844305BB2B3F1FF3F04BF002389
:104B500084F8443094F845305BB2B3F1FF3F04BFB2
:104B6000002384F845301A4B984701A902A81C4B32
:104B70009847C8B920461B4B98470028CDD00199CB
:104B800004F12400184B98472046124B9847124BCB
:104B900098470028C6D14FF08053C9F80030BFF3C2
:104BA0004F8FBFF36F8FBDE720460A4B98470A4BE4
:104BB000984720460B4B98470028B3D00020A2E727
:104BC0004561080035450800B55C080004ED00E0CB
:104BD000B93F08005D450800055808002156080047
:104BE000E55E0800F9430800AD5B0800753F08006A
:104BF000CD5E08002DE9F04385B0019158B104461F
:104C0000036C8BB14FF0A00383F31188BFF36F8F58
:104C1000BFF34F8FFEE74FF0A00383F31188BFF37C
:104C20006F8FBFF34F8FFEE75B4B984750B9019BE7
:104C300083B14FF0A00383F31188BFF36F8FBFF3ED
:104C40004F8FFEE700252F46544EDFF88491DFF8A2
:104C5000588148E000252F46F6E7013BA36323680F
:104C600013B94F4B9847A060236963B104F110005A
:104C70004C4B984738B14FF080524B4B1A60BFF302
:104C80004F8FBFF36F8F494B98470125284605B0DA
:104C9000BDE8F08345B14FF0A00383F31188BFF363
:104CA0006F8FBFF34F8FFEE7404B9847EEE702A8A8
:104CB000C84721E0B047A0683D4B984705463B4BAD
:104CC000984740E020463B4B98473B4B984709E0CC
:104CD0002046384B9847384B98472046374B9847E3
:104CE000002845D10127B047A36B002BB5D1019B0C
:104CF000002BCFD0002FDAD02C4B9847304B984761
:104D0000B04794F844305BB2B3F1FF3F04BF0023D7
:104D100084F8443094F845305BB2B3F1FF3F04BFF0
:104D2000002384F84530214B984701A902A8254B60
:104D300098470028CCD12046204B98470028C1D066
:104D40002368002BB6D0019904F124001E4B98472C
:104D50002046184B9847184B98470028C2D14FF06F
:104D60008053C8F80030BFF34F8FBFF36F8FB9E7A0
:104D7000002D8BD0094B9847636A53B1236B196898
:104D8000C1F10501A068114B9847084B98470025D1
:104D90007CE70021F6E700BF45610800753F080089
:104DA00071650800B55C080004ED00E0B93F08003B
:104DB000656108005D45080005580800F9430800D2
:104DC00021560800E55E0800AD5B0800F5620800AA
:104DD000CD5E08002DE9F04385B0019280B1044614
:104DE000B9B10D46504B9847F8B9019B23B34FF02A
:104DF000A00383F31188BFF36F8FBFF34F8FFEE7DC
:104E00004FF0A00383F31188BFF36F8FBFF34F8F71
:104E1000FEE7036C002BE4D04FF0A00383F311886E
:104E2000BFF36F8FBFF34F8FFEE700263F4FDFF8D2
:104E30002891DFF8048129E00026F7E7E668294693
:104E400020463B4B9847E660636A63B104F1240057
:104E5000384B984738B14FF08052374B1A60BFF348
:104E60004F8FBFF36F8F354B9847012005B0BDE8DA
:104E7000F083324B98470020F8E702A8C8470EE0BD
:104E800020462F4B98472F4B98470126B847A36BD6
:104E9000002BD3D1019B002BEBD0002EEDD0274B64
:104EA0009847294B9847B84794F844305BB2B3F120
:104EB000FF3F04BF002384F8443094F845305BB2D0
:104EC000B3F1FF3F04BF002384F845301B4B9847E4
:104ED00001A902A81D4B9847C8B920461C4B98470A
:104EE0000028CDD0019904F124001A4B98472046A0
:104EF000134B9847134B98470028C6D14FF0805367
:104F0000C8F80030BFF34F8FBFF36F8FBDE7204667
:104F10000B4B98470B4B984720460D4B9847002862
:104F2000B3D00020A2E700BF45610800753F08002C
:104F300035450800B55C080004ED00E0B93F080005
:104F40005D4508000558080021560800E55E080088
:104F5000F9430800AD5B0800CD5E080058B170B49D
:104F60000446C1B1144B5B6898420DD0124800232F
:104F70001A46064618E04FF0A00383F31188BFF3EA
:104F80006F8FBFF34F8FFEE700220B4B03EBC20383
:104F90000BB119605C6070BC70470132082AF7D011
:104FA00008304568AC42F0D0002BF6D156F83250AC
:104FB000002D08BF0346F0E770B9072070B504461E
:104FC0000D461646114B984794F844305BB2B3F146
:104FD000FF3F04BF002384F8443094F845305BB2AF
:104FE000B3F1FF3F04BF002384F84530084B9847D6
:104FF000A36B1BB12046074B984770BD324629462C
:1050000004F12400044B9847F4E700BF753F080003
:10501000B93F08005D450800595C0800074B1B6854
:105020001B6833B1054B1B68DB681A68044B1A60B8
:1050300070474FF0FF32024B1A60704700AE0720F6
:10504000B4AE072070B504460E46244B1D68244BB1
:1050500018680430234B984748B9214B1A682249F5
:105060000B68D06A0122824023EA02030B60B4F18C
:10507000FF3F13D02C441A4B1B685C60A54224D818
:105080001A4B1868164B19680431194B9847194B7D
:105090001B689C423CBF174B1C6070BD002EE9D0C2
:1050A000154A51680E4B1868816018688C68C46096
:1050B0008C681868043060601868043088601B6869
:1050C0005A6113680133136070BD0C4B1868044BB0
:1050D00019680431064B984770BD00BF00AF072028
:1050E000FCAD0720993E080084AE072000AE0720E3
:1050F000653E0800B4AE0720D8AE072004AE0720F6
:1051000080B5184DDFF87880DFF8789001E0164B15
:1051100098472B68C3B1154F154EC047FB68DC6834
:10512000201DB047134A1368013B13602B68013BF5
:105130002B60114B9847206BDFF84CA0D0472046DE
:10514000D0472B68002BE8D10C4B1B68012BDED914
:105150004FF08053C9F80030BFF34F8FBFF36F8F0C
:10516000D5E700BF78AE0720096E0800ECAE072037
:10517000993E080074AE0720B93F080008AE07202A
:10518000753F080004ED00E07143080010B50446C7
:10519000094B98472046094B9847172808D82044C0
:1051A00004F11802202300F8013B9042FBD11820A3
:1051B00000232354204410BDA9A3080065A40800BF
:1051C0002DE9F04F83B000900F4601930C9DDDF860
:1051D00034A0960030466E4B984788B380466C20CA
:1051E0006B4B9847044640B3C0F830803246A52147
:1051F0004046684B9847D4F8309027B33B7884F802
:1052000034303B785BB13B4604F1340218375978AF
:1052100002F8011F13F8011F09B1BB42F7D10023A7
:1052200084F84C30042D12D94FF0A00383F3118879
:10523000BFF36F8FBFF34F8FFEE74046564B984743
:105240004FF0FF308FE0002384F83430EAE7E56266
:10525000A5650027E76504F104084046DFF884B13E
:10526000D84704F11800D8472461C5F10505A561A8
:1052700064622766676684F86870043E4E44019A4B
:10528000009926F00700454B98472060BAF1000FBF
:1052900001D0CAF80040424B9847424A1368013394
:1052A0001360414B1B68002B60D13F4B1C6013689F
:1052B000012B1FD13D4E30463D4DA84706F114004D
:1052C000A84706F12800A84706F13C00A84706F1C8
:1052D0005000A847374F3846A847374E3046A847B2
:1052E0003648A8473648A8473648A847364B1F6077
:1052F000364B1E60364A1368013313602365E36A38
:105300003449086801229A4002430A60274A03EBA5
:10531000830302EB83035B68A3609968E16099688B
:10532000C1F80480C3F80880E06A83001918890076
:10533000551865615158013103449B00D150264BEB
:105340009847264B1B68F3B1174B1B68DA6AE36A70
:105350009A421AD24FF08052214B1A60BFF34F8FFE
:10536000BFF36F8F012003B0BDE8F08F1B4B1B68AC
:10537000002BBFD10C4B1B68DA6AE36A9A429CBFD0
:10538000094B1C60B6E70120EDE70120EBE700BF09
:105390000D42080085A2080071430800213F080063
:1053A000753F080074AE0720FCAD072008AE07204B
:1053B000313E080088AE07209CAE0720C0AE072013
:1053C000ECAE0720D8AE072000AE072004AE0720C1
:1053D00080AE072084AE0720B93F0800D4AE072076
:1053E00004ED00E0473E080038B504462F4B9847CF
:1053F000002C39D0251D28462D4B984768B9E16A05
:1054000001EB81039B002B4AD35833B92A48036828
:1054100001228A4023EA02030360A36A1BB104F15C
:105420001800234B9847254A136801331360244B17
:105430001B689C421BD0234A1368013B1360224B1C
:105440009847224B98471E4B1B689C4204D0206B08
:105450001F4DA8472046A8471E4B1B681BB1184B81
:105460001B689C420CD038BD154B1C68C2E729460E
:1054700019481A4B98471A4A136801331360E0E73A
:10548000184B1B6843B14FF0A00383F31188BFF39F
:105490006F8FBFF34F8FFEE74FF08052124B1A60B1
:1054A000BFF34F8FBFF36F8FDDE700BF753F08007D
:1054B000993E080008AE072084AE072080AE072082
:1054C000FCAD072074AE07201D500800B93F08004E
:1054D00071430800D4AE0720ECAE07204D3E080013
:1054E00078AE07207CAE072004ED00E0F8B5E0B10F
:1054F00004461C4B1B6898422AD01B4B9847656991
:105500001A4B1F681A4B1E681A4B9847BD4221D090
:10551000B54221D0184B9D4210D0184B9D421FD050
:10552000002D0CBF04200120F8BD4FF0A00383F331
:105530001188BFF36F8FBFF34F8FFEE7A36A6BB97C
:1055400094F86830DBB2012B0CBF02200320F8BDB9
:105550000020F8BD0220F8BD0220F8BD0220F8BDF1
:105560000420F8BDFCAD0720753F080000AE072001
:1055700004AE0720B93F0800D8AE0720ECAE0720E4
:1055800010B582B01B4B0193002300934FF4967229
:1055900019491A481A4CA047012806D0B0F1FF3F1C
:1055A0001ED0184B1B6802B010BD174B984701283E
:1055B000F4D14FF0A00383F31188BFF36F8FBFF3D3
:1055C0004F8F4FF0FF32114B1A600122104B1A60BF
:1055D0000022104B1A60104B9847104B9847E0E799
:1055E0004FF0A00383F31188BFF36F8FBFF34F8F8A
:1055F000FEE700BFB0AE072090E6080001510800AA
:10560000C151080040010720AD6A0800B4AE072070
:10561000D4AE072000AF0720457108008D40080078
:10562000024A136801331360704700BF7CAE072045
:10563000014B1868704700BF00AF072008B5024B48
:105640009847024B186808BD5D41080000AF07206D
:105650002DE9F84F5F4B1B68002B40F0B3805E4B89
:105660001C6801341C60C4B95C4B1B681B6843B1E7
:105670004FF0A00383F31188BFF36F8FBFF34F8FF9
:10568000FEE7564A1168564B186810601960554A73
:10569000136801331360544B9847544B1B689C426A
:1056A00012D20020524B1B68DB6A03EB83039B0082
:1056B000504AD358022B28BF01204F4B1B68002BA8
:1056C00018BF0120BDE8F88F0020444E0546DFF8E2
:1056D00030B14FF0010E474ADFF8148136E04FF049
:1056E000FF32424B1A60DDE7404B1F60DAE7DF6AAA
:1056F000DBF800A00EFA07F949EA0A09CBF8009096
:1057000007EB870702EB87077F689F60B968D9605E
:10571000B968C1F804C0C7F808C0D3F82C904FEAA4
:10572000890707EB090C02EB8C0AC3F814A052F8A6
:105730002CC00CF1010C4F4442F827C0D8F800C02F
:10574000DF6ADCF82C309F4228BF012033681B68D9
:10575000002BC4D03368DB68DB685F68BC42C3D30E
:10576000D3F814909F68D968B960DF689968796048
:1057700003F1040CD9F80470674504BFDF68C9F869
:1057800004705D61D9F80070013FC9F80070D3F86A
:105790002890B9F1000FAAD0DF69196AB9601F6AB1
:1057A000D969796003F1180AD9F80470574504BF24
:1057B0001F6AC9F804709D62D9F80070013FC9F8EA
:1057C000007094E70D4A1368013313600020BDE8B0
:1057D000F88F00BF7CAE072000AF072000AE072087
:1057E00004AE0720B8AE07201D500800B4AE072055
:1057F000FCAD072008AE072004AF0720BCAE072091
:1058000084AE0720594B1B6843B94FF0A00383F3C4
:105810001188BFF36F8FBFF34F8FFEE72DE9F0477D
:10582000534B9847514B1A68013A1A601B68002B7A
:1058300040F097804F4B1B682BB900244E4B984784
:105840002046BDE8F08700234C4D1C464C48012102
:105850004C4ADFF848A1DFF83CE12F68002F5FD009
:10586000EB68DB68D3F828C0DF691E6ABE601F6A78
:10587000DE697E6003F11808DCF80470474504BF58
:105880001F6ACCF804709C62DCF80070013FCCF811
:105890000070D3F814C09F68DE68BE60DF689E6841
:1058A0007E6003F10408DCF80470474504BFDF683C
:1058B000CCF804705C61DCF80070013FCCF800703B
:1058C000DF6AD0F8009001FA07FC4CEA090CC0F836
:1058D00000C007EB870702EB87077F689F60BE6801
:1058E000DE60BE68C6F80480C7F80880D3F82C8054
:1058F0004FEA880707EB080C02EB8C09C3F81490F9
:1059000052F82CC00CF1010C474442F827C0DAF8D9
:105910000070FF6ADE6ABE429FD3CEF800109CE79B
:105920000BB1194B9847194B1C686CB1184F194EA5
:10593000012501E0013C04D0B8470028FAD03560C9
:10594000F8E70022114B1A60124B1B685BB14FF055
:105950008052114B1A60BFF34F8FBFF36F8F01243A
:105960006CE700246AE7002468E700BF7CAE0720EC
:10597000753F080074AE0720B93F0800C0AE07208D
:1059800084AE072008AE07201D500800BCAE0720DB
:105990005156080004AF072004ED00E0FCAD0720DD
:1059A00038B550B1054689B94FF0A00383F311888B
:1059B000BFF36F8FBFF34F8FFEE74FF0A00383F36A
:1059C0001188BFF36F8FBFF34F8FFEE71B4B1B6830
:1059D00043B14FF0A00383F31188BFF36F8FBFF380
:1059E0004F8FFEE70C46164B9847164B18682A68EF
:1059F000A318904218D29A421AD9984234BF01246F
:105A000000242B6003D20021181A0F4B98470F4B2C
:105A1000984738B94FF080520D4B1A60BFF34F8F43
:105A2000BFF36F8F204638BD9A4204D8984202D304
:105A30002B600024EBE72B600124E4E77CAE072019
:105A40002156080000AF07204550080005580800FF
:105A500004ED00E010B5A8B104460F4B1B6843B13C
:105A60004FF0A00383F31188BFF36F8FBFF34F8F05
:105A7000FEE70A4B984700212046094B9847094BFF
:105A8000984738B94FF08052074B1A60BFF34F8FD9
:105A9000BFF36F8F10BD00BF7CAE072021560800FA
:105AA000455008000558080004ED00E0364B1B681F
:105AB0001BB10122354B1A60704710B50022334BE1
:105AC0001A60334B9847334B18601B68324A116891
:105AD0008B4207D92F4B1868304B1A68136E5B1A2C
