S01B0000454D5044323032362D44656C7461526F626F742E73726563FC
S214080000A0DD07204D680800496808004968080010
S21408001049680800496808004968080000000000A8
S214080020000000000000000000000000B1310800D9
S21408003049680800000000005132080095320800A0
S21408004049680800496808004968080049680800BF
S21408005049680800496808004968080049680800AF
S214080060FD2A08004968080000000000F16608003C
S21408007005670800196708002D67080000000000DB
S2140800800000000049680800496808004968080038
S214080090496808004968080035260800452608000B
S2140800A04968080000000000496808004968080018
S2140800B0496808004968080049680800496808004F
S2140800C0496808004968080049680800496808003F
S2140800D0496808004968080049680800496808002F
S2140800E0496808004968080049680800496808001F
S2140800F04968080010B5054C237833B9044B13B18A
S2140801000448AFF300800123237010BD100B0720AE
S214080110000000006CC608000C4B43B10C4810B534
S2140801200C49AFF300800C48036823B910BD0A4891
S214080130036833B97047094B002BF7D0BDE8104069
S2140801401847064B002BF5D0184700BF00000000E4
S2140801506CC60800140B07206CC6080000000000D8
S21408016030B583B0002201210846194CA047194B28
S2140801701860032200210120A047174B1860174C6F
S214080180A047174B1860A047164B1860164B0193EC
S2140801900024009423464FF4967214491448154DCB
S2140801A0A847154B01930223009323464FF49672F3
S2140801B012491348A847134B01930123009323467B
S2140801C04FF4967210491148A84703B030BD00BFD7
S2140801D0193908003C0B0720380B0720992E080011
S2140801E0400B07202C0B0720300B0720D8BB080035
S2140801F01906080021440800340B0720E4BB080051
S214080200B5020800440B0720F0BB08008D0908005B
S21408021000B583B000230193094B186868B101AA9A
S2140802200021084B9847019B3BB14FF08052064B84
S2140802301A60BFF34F8FBFF36F8F03B05DF804FBF0
S214080240340B0720C956080004ED00E000B583B05B
S21408025000230193094B186860B101A9084B984719
S214080260019B3BB14FF08052064B1A60BFF34F8F8D
S214080270BFF36F8F03B05DF804FB00BF380B072091
S214080280DD3B080004ED00E0074B1B78834209D0ED
S21408029010B5054908700223002204480068044C7B
S2140802A0A04710BD704700BF480B07203C0B07202F
S2140802B0B53908002DE9F04182B06048604CA04787
S2140802C00020604DA847702228215F485F4EB0473F
S2140802D050222C215E48B0475E48A0475E4B1868FF
S2140802E04FF0FF3300930123002203215B4EB047F3
S2140802F001465B48A0470120A847DFF8BC8137467F
S214080300584E0CE058484E4B984705204D4B98479A
S21408031015E015F4A05F25D10A20544B9847002411
S2140803200094234601224FF4E051D8F80000B8475D
S2140803300546214630684E4B98470128E2D04D4B7B
S2140803401B78013B042B74D801A252F823F000BF97
S214080350130308007303080097030800BF03080088
S214080360050408004448364B98470220354B984702
S214080370D2E701203D4B9847404B98470028CED0FF
S2140803803F4B98473F4B98473F482D4B984703208D
S2140803902C4B9847C3E74FF0FF32012100203B4B18
S2140803A098473B4B984715F4806FB8D0394B984719
S2140803B03948234B98470420224B9847AFE74FF01D
S2140803C0FF3201210020314B9847314B9847334B79
S2140803D0984715F4006F0AD10028A0D0294B9847F3
S2140803E02F48174B98470320164B984797E7294BF3
S2140803F09847244B98472B48114B98470320114B96
S21408040098478CE7284B98470A20184B984715F4C6
S214080410805F84D00420254B984730B92448084B81
S21408042098470120074B984779E72248044B984796
S21408043075E70520034B984771E700BF04BC080022
S214080440A95B08008902080011020800891A08003A
S2140804504D02080020BC0800400B0720BD2E0800EF
S2140804604CBC0800380B072090BC0800BD1F0800CD
S214080470553E0800480B0720B0BC0800B107080026
S214080480850C08005D0C0800E8BC08003556080016
S214080490B10C0800A90A080004BD080005120800E7
S2140804A05CBD080030BD0800CD0A0800051C080021
S2140804B084BD0800C0BD08002C0B072010B50446F4
S2140804C0104B984780232360636843F001036360FA
S2140804D0636843F010036360636823F08003636017
S2140804E000212046084B9847636823F002036360A0
S2140804F0636823F00403636000212046034B984793
S21408050010BD00BF852C0800A12C0800B72C0800D9
S2140805102DE9F04104460D46164615491846154B72
S2140805209847074600231A4629682046DFF85C8065
S214080530C0470822296820460F4B9847FAB2296810
S21408054020460E4B98470822296820460C4B9847A9
S2140805507208296820460B4B984786F0010202F07D
S214080560010229682046084B9847BDE8F08100BF7D
S21408057000BD01055F2D08004B2D0800752D0800ED
S214080580052D0800C92C0800E72C08009B2D08003C
S2140805901AB110B40C46114406E00020704714F84F
S2140805A0013BC360A1420BD043F69923026912F0BF
S2140805B0020FF4D1013BF9D16FF0020010BC70476E
S2140805C00020FBE73AB170B415460C460D44FF26EA
S2140805D040F2012112E000207047C66043F69923D6
S2140805E0026931EA020204D0013BF9D16FF0020039
S2140805F00EE0836804F8013BA5420BD043F6992326
S214080600026912F0020FE8D1013BF9D16FF002003F
S21408061070BC70470020FBE770B53048304B9847F1
S2140806200121304B1868304B9847304C304D17E056
S2140806300120A8473046A0470028F9D101212D48B7
S214080640274B98474FF480612B4B1868264B9847E2
S2140806500120A04780B90220A04730BB0A20A8473F
S2140806600020A0470028F3D01420A8470020A04761
S2140806700028EDD00026DDE71420A8470120A04773
S2140806800028E8D0012601E03046A8473046A047B3
S2140806900028F9D102211948114B98474FF40061F8
S2140806A0154B1868104B9847D5E71420A847022022
S2140806B0A0470028D2D0022601E00120A8473046ED
S2140806C0A0470028F9D103210D48054B98474FF459
S2140806D08051094B1868044B9847BFE7F4BD0800DB
S2140806E0A95B0800400B0720FD2F0800991F08008B
S2140806F0BD1F080014BE08002C0B072034BE0800D7
S21408070054BE08002DE9F0470546124C1249A0478A
S214080710124F134E3968B04780463860114F396813
S2140807202846114B98470C49104B98470021A0477C
S214080730814600212846A047824600214046A04719
S21408074001465046B04701464846B0473D60BDE8BA
S214080750F08700BF857408006F12833A4C0B072099
S21408076075720800540B072071720800ED750800B2
S21408077008B50021024B98470021024B984708BD50
S21408078085740800ED75080000230B604B608B60CD
S2140807900322024B1A700020704700BF500B072038
S2140807A008B50420014B984708BD00BF051C080083
S2140807B02DE9F04F83B0524B1B78002B36D100251D
S2140807C0294600204F4CA04729460120A047294625
S2140807D00220A04701224A4B1A704B4B98474B4DB4
S2140807E04B4F4C4E0024DFF85491DFF844A1DFF855
S2140807F0148108E05AF824103078C04701340135CF
S2140808000136032C12D000232B7017F8010BC847AB
S2140808100028EFD0404B185D404B9847404B53F8A4
S21408082024103078C04701232B70E7E73D4B9847E4
S21408083040B9364C374E00250127DFF8D490DFF84C
S214080840FC8021E03848394B98470026314600207E
S2140808502C4DA8472D4C0027277031460120A84765
S214080860677031460220A847A770254B1F7035E0F1
S2140808702F4B53F825103078224B984757460135AA
S21408088001340136032D1FD02378002BF7D119F831
S2140808900500C04782460028EAD029462548234B4B
S2140808A098473378002101931846DFF858A0D047B8
S2140808B0194B585D194B9847194B53F82510019852
S2140808C0D04701232370DAE7104B1B788BB10F4B08
S2140808D05B7883B10D4B9B787BB11FB9384603B064
S2140808E0BDE8F08F0022064B1A700F20124B98476F
S2140808F0F4E71F46F2E71F46F0E71F46EEE700BF9D
S214080900580B0720711308001D1208005C0B0720FF
S21408091078BE080074BE08007CBE0800C91D080022
S21408092080BE0800A107080098BE0800A95B08005A
S2140809308CBE0800B4BE0800E91A0800051C0800AA
S21408094010B500210120044CA04700210220A04732
S21408095000210320A04710BD211C080008B5012867
S21408096004D0022807D0032809D008BD012108466C
S214080970054B984708BD0121034B984708BD012140
S214080980014B9847F1E700BF211C08002DE9F0430A
S21408099083B000248DF8074039483A4B984702211F
S2140809A0394B1868394B9847FF25DFF8F480384FDD
S2140809B0DFF8F09023E0052E15D8DFE806F00311DF
S2140809C0404B505B132C04D9324B984735460AE007
S2140809D000240220C8470320C847002503E0002457
S2140809E00320C8470125631C2B4CA4FB0324640979
S2140809F004EB8404A3EBC4040A20284B984700227F
S214080A000DF10701D8F80000B8479DF80760B54211
S214080A10D1D0204B98479DF80750052D2ED801A316
S214080A2053F825F0D1090800DF0908003D0A080038
S214080A30530A08005D0A0800730A08000024132CED
S214080A4003D9144B98470225CDE70220C84702254C
S214080A50C9E700240120C8470325C4E70024132C4F
S214080A6003D90C4B98470425BDE70120C847042541
S214080A70B9E700240320C8470525B4E70024B2E7F1
S214080A80CCBE0800A95B0800400B0720FD2F080015
S214080A903540080041090800CDCCCCCCBD1F080065
S214080AA03C0B07205D0908000023044A1370044A1B
S214080AB01370044A1370044A13707047C00B07205B
S214080AC0C10B07200C0C0720980B072038B5074BDE
S214080AD09847002529460020054CA04729460120AE
S214080AE0A04729460220A04738BD00BFA90A08002B
S214080AF071130800000000002DE97847824600239D
S214080B00154A1370DFF870904FF0685819F803000C
S214080B10124B9847104D2C78C117114B98474146F1
S214080B20104B9847104B984702460B460F4EB04757
S214080B3007A3D3E900230E4EB0470E4B98474AF852
S214080B402400631CDBB22B70022BDFD9BDE8788744
S214080B5000000060FB210940990B0720011D0800D2
S214080B60F973080085740800FD6C0800416A0800DF
S214080B70A56D0800C9710800F0BE08002DE9F84FF9
S214080B808146254D00242C702448254B98472C7008
S214080B90244EDFF8C4804FF0000A4FF07D5B18E063
S214080BA0214B46F82430214A214956F82400214B87
S214080BB09847214B43F824002B7856F823101F4AF1
S214080BC0D05C1F4B98472C780134E4B22C70022C6A
S214080BD01FD8124B53F8241059F82400194B98477D
S214080BE0194F47F82400194B984746F824002C78E4
S214080BF057F8247027F000404146154B98470028C0
S214080C00D1D051463846134B98470028C8D05B4683
S214080C10C7E7BDE8F88F00BF990B0720A80B072089
S214080C20F90A08009C0B0720000040BF00EC1F4193
S214080C30000020C1591B0800000C0720ECBE080065
S214080C407113080071720800800B0720050708005A
S214080C50FD770800E9770800CDCCCC3D10B5054CEB
S214080C602046054B98470122044B1A702046044B31
S214080C70984710BD8C0B0720F90A0800980B072028
S214080C807D0B080008B500200021054BC3E90001CC
S214080C900022044B1A60044B9847044B984708BD3B
S214080CA0F80B07207C0B0720A90A08005D0C080033
S214080CB008B5044B1B7803B908BD0348034B98478F
S214080CC0FAE700BF980B07208C0B07207D0B08005F
S214080CD02DE9F04F8BB006460D461446184602938B
S214080CE00022774B1A700021764B9847002840F070
S214080CF035827548754B9847754B1B78A3B1754C6C
S214080D00754B1968754B1868A047754B1860754B76
S214080D101968A047744B18600025694B1D70DFF8EA
S214080D2034A2DFF834B297E06C4B1A686A4B1A6044
S214080D300796089509946D4907A86D4B98470028AB
S214080D4047D06C4C029D29462846A0472946A0470E
S214080D50694B9847CDE900010024DFF86CB1DFF84D
S214080D60C8A1DFF88891DFF86C81644F644E5BF8A1
S214080D7024104AF8241059F82400C04747F82400DD
S214080D805D4B984700225F4B5F4DA847DDE900237F
S214080D905E4DA8475E4B9847564D0299A8474FF0B8
S214080DA07A51A84746F824000134032CDFD12C4694
S214080DB04FF07A51029D2846A047564B18604FF0D0
S214080DC07D512846A047474B18600122404B1A70B1
S214080DD095E70124504B1C705048514B9847002209
S214080DE03B4B1A702046B6E100234AF825304BF8EC
S214080DF025300022484B1A70314C2578494F4A4B0B
S214080E0053F825105BF82500B8472F4B53F82510E4
S214080E10304B9847454B43F82500454B9847804646
S214080E2025785AF82500434B9847434E01464046D6
S214080E30B84746F825002578404A414956F825001F
S214080E40404B9847404B43F8250025780135EDB2CE
S214080E502570022D00F25E812E46214B1C6800216B
S214080E602046184B98470028BED1254B53F82590A6
S214080E7002994846354B984707460090254B19680F
S214080E802046104B9847002868D01A4D4FF08141ED
S214080E903846A8472146A8474AF82600214620464D
S214080EA0A8472146A847044629493846A847014680
S214080EB02046A8474BF826000022174B1A709BE7D7
S214080EC0990B0720D5770800A80B0720F90A080011
S214080ED0C10B072071720800C40B07207C0B072083
S214080EE0D00B0720CC0B0720780B0720B40B072065
S214080EF08907080085740800FD6C0800D40B0720D5
S214080F00600B072000004040A56D0800F96F080038
S214080F10C9710800C80B07200C0C0720F4BE08008F
S214080F20A95B080075720800EC0B0720800B0720E9
S214080F3005070800710708009C0B072000EC1F41F6
S214080F40000020C1591B0800000C0720ED7508009A
S214080F50ABAA2A3F6C0B0720E00B0720804B1968CA
S214080F602046804B9847002860D07F4D4FF081413F
S214080F700098A8472146A847014648467B4B98470D
S214080F804AF8260021462046A8470390DFF808823C
S214080F904846C047764F0022764BB847CDE904014D
S214080FA00398C04702460B46DDE90401B847CDE979
S214080FB0040171490098A847074603992046A847A0
S214080FC001463846A847C04702460B46DDE90401F5
S214080FD06A4FB847CDE900014FF078514846A84710
S214080FE00299A8472146A847C047654C02460B46C3
S214080FF0DDE90001A047CDE9000162494846A84757
S2140810000746029B19461846A84701463846A84789
S214081010C04702460B46DDE90001A0475A4B9847F1
S2140810204BF826000022594B1A70E5E6214602982E
S214081030574B984700285ED0564BD3F80080564C3E
S214081040009F3846A0474A4D0022544BA847CDE992
S21408105000014046A04702460B46DDE90001A847C6
S214081060CDE9000109F10040A04702460B46DDE93C
S2140810700001434CA047444B98474AF826003A4C90
S21408108041464046A04705464FF07C514846A04793
S21408109000F100402946A047009037493846A04747
S2140810A0074629464046A04701463846A0473C4DD5
S2140810B001460098A84707464FF078514846A0478B
S2140810C00299A0474146A04701463846A847074622
S2140810D034494846A047804602980146A04701463C
S2140810E04046A04701463846A8474BF82600002247
S2140810F0264B1A7080E600234AF825302A4B53F808
S21408110025304BF825300122204B1A700022274B39
S2140811101A7071E600232370254E264D264C56F885
S2140811202310E85CA047254A13780133DBB2137016
S214081130022BF4D9224BD3E90001013041F100011A
S214081140C3E900011F4B98471F49204B9847204B7F
S21408115018600E4B18780BB0BDE8F08F0020FAE741
S214081160CC0B0720D5770800857408007172080034
S214081170A56D08000000E03FABAA2A3F3D6A0800BC
S214081180416A0800ABAA2A3CC97108000C0C072063
S214081190E9770800780B0720FD6C0800000010406F
S2140811A075720800ABAAEA3DD40B0720C10B0720CE
S2140811B0000C0720ECBE080071130800990B0720E6
S2140811C0F80B0720F973080000007A44ED7508004C
S2140811D07C0B072010B50648064B074A0146074C05
S2140811E0A04710B10122064B1A70054B187810BD9F
S2140811F00000C842CDCC8C3F000096C3D10C080036
S214081200C00B072008B50022024B1A70024B9847FD
S21408121008BD00BF980B0720D511080070B58322BB
S21408122000210846084EB0470020084DA847002071
S214081230074CA047832200210120B0470120A84779
S2140812400120A04770BD00BF751C08007D1D080062
S214081250C91D080038B525200C4B98470C4C0823A8
S2140812600C4A0D4920460D4DA84701234FF440125D
S214081270002120460A4DA84700212046094B9847DA
S214081280002211462046084B984738BD29680800B2
S21408129000000C4040420F00007A030A152C080094
S2140812A0672C0800492C0800592C0800032800D988
S2140812B0704708B50021024B185C024B984708BDDA
S2140812C02CBF08001D160800032800D9704708B56B
S2140812D00121024B185C024B984708BD2CBF08003A
S2140812E01D16080038B5032803D96FF07F0420467A
S2140812F038BD0546C1F30B0444F4E044044B984754
S2140813002046044B984704462846034B9847EEE782
S214081310AD120800D91E0800C91208002DE9F843C6
S2140813200E4B98470E4C04F104090126DFF83C8062
S2140813300C4F14F8015B31462846C047314628460C
S214081340B8474C45F5D100242646074D3146E0B24D
S214081350A8470134042CF9D1BDE8F8833D1E0800DF
S2140813602CBF08001D160800E51208003D150800E9
S21408137070B582B0064608460A4D0B4C2A462146EA
S2140813800A4B98470A4B009300232A462146094CE5
S214081390A047094B984781B23046084B984702B099
S2140813A070BD00BF00EC1F41000020C1591B08009B
S2140813B000F07F45111B080011780800E5120800A8
S2140813C030B45D4B1C1FFC332146002241F8042F25
S2140813D09942FBD1584B39221A645C225A64592226
S2140813E09A645822DA6457221A6556225A65552294
S2140813F09A656722DA6568221A660B229A660A22B6
S214081400DA663B225A662C221A672D225A67112260
S2140814109A671222DA6710221A6018225A60172270
S2140814209A601622DA6006221A6104225A6103229A
S2140814309A610222DA6131221A6232225A62332211
S2140814409A623422DA623A22C3F880200E22C3F85F
S21408145084200F22C3F888206022C3F88C206122DB
S214081460C3F890206222C3F894206322C3F8982019
S2140814706622C3F89C206922C3F8A0200722C3F876
S214081480A4206A22C3F8A8204122C3F8AC2042222E
S214081490C3F8B0204322C3F8B4204422C3F8B820C7
S2140814A04522C3F8BC204622C3F8C0204722C3F80A
S2140814B0C4204822C3F8C8204922C3F8CC201322E7
S2140814C0C3F8D0201422C3F8D4205322C3F8D82057
S2140814D05222C3F8DC205122C3F8E0205022C3F879
S2140814E0E4204F22C3F8E8204E22C3F8EC204D2211
S2140814F0C3F8F0204C22C3F8F420012554F8043F22
S21408150003F01F0205FA02F25B0903F5001303F263
S21408151007735B021A605A61C3F8A0205A635A66BA
S2140815205A655A62C3F88020186F20EA02021A67C2
S2140815308C42E3D130BC7047100C07203F2817D8E0
S2140815400E4B53F82020530903F5001303F20773D4
S2140815505B0201290DD021B902F01F00012181404C
S214081560596102F01F02012101FA02F2C3F8A02015
S214081570704702F01F0081401961F2E7100C07203F
S2140815803F2800D97047174B53F8203003F01F0048
S214081590012282405B0903F5001303F207735B021E
S2140815A011F0080F14BF5A661A6611F0200F14BF00
S2140815B01A655A6511F0C00F14BF1A625A6211F004
S2140815C0800F14BFC3F88420C3F8802011F0010FE1
S2140815D004D1196F21EA02021A67D3E7196F0A4382
S2140815E01A677047100C07203F2811D80A4B53F883
S2140815F02020530903F5001303F207735B0202F079
S2140816001F02012101FA02F2D96B0A4201D11A63BC
S21408161070475A63704700BF100C07203F280FD842
S2140816200B4B53F82020530903F5001303F20773F6
S2140816305B0231B902F01F02012101FA02F25A6375
S214081640704702F01F02012101FA02F21A6370477E
S214081650100C07203F2813D80A4B53F820205309AC
S21408166003F5001303F207735B02D96B02F01F023F
S214081670012303FA02F20A4214BF184600207047F4
S21408168000207047100C07203F289ABF024B53F8DB
S21408169020000020704700BF100C0720012846D8FD
S2140816A038B5254B03EB4013DB680BB1012038BD7A
S2140816B00446214A4301D018D35803F01F010122DB
S2140816C002FA01F15B0903F5001303F207735B02E4
S2140816D05960436803F01F018A405B0903F500134D
S2140816E003F207735B025A606420144B984700B3F2
S2140816F0114B03EB44130A2199610F21597718619E
S21408170064225A6103221A770B4D194610310C4B86
S2140817100C48002C18BF18460B4B984705EB44148A
S214081720E0600A4A0A490B4B9847012038BD00205A
S2140817307047002038BD00BF140D07206D34080020
S2140817400000094000C008400D25080000BD01053E
S214081750801A0600C52D0800012801D9FF20704709
S2140817602DE9F04F83B040B1012802D0002501953D
S21408177006E01D251C23019302E01F251E23019366
S2140817800021019F3846554EB04708213846544C2C
S214081790A04700212846B04708212846A0475148B8
S2140817A0514B98472846514B984768B90021384608
S2140817B0B04708213846A04700212846B0470821E8
S2140817C02846A04702204EE00198484B984730B973
S2140817D04FF0280ADFF80491DFF804B109E000208A
S2140817E041E00198414B9847002850D1BAF1010AC8
S2140817F03CD000212846C84700212846D847012162
S2140818002846C8477820384CA04700212846C847AD
S21408181008212846D8477820A047354A1378013348
S21408182013702846314B98470028DAD11424DFF87D
S214081830B4802D4F2D4E4046B8472846B04700285E
S214081840CFD1013CF7D10021019C2046234EB0475A
S21408185008212046224CA04700212846B0470821E8
S2140818602846A047042003B0BDE8F08F0021019C5D
S21408187020461A4EB04708212046194CA04700219A
S2140818802846B04708212846A0470320EBE7002152
S214081890DDF804804046114CA04700214046104E13
S2140818A0B04701214046A04778200F4FB84700218F
S2140818B04046A04708214046B0477820B847002150
S2140818C04046A04708214046B04700212846A04782
S2140818D008212846B0470120C5E700BF3D15080087
S2140818E081150800C02709000100072055160800C2
S2140818F0100D07202DE9F041164B1C7814B1204630
S214081900BDE8F0810020144CA0470120A047134DE5
S214081910402200212846124B98471F20114EB047F8
S21408192068601E20B04728600027EF603846DFF85A
S2140819303880C04704461D20B04768621C20B04760
S2140819402862EF620120C047002808BF0446014B02
S2140819501C70D4E7110D072059170800140D07202E
S214081960417F0800891608009D16080070B108B562
S214081970006800F01F03400900F5001000F2077029
S214081980012199404002024B984708BD704700BFA6
S214081990B564080070B108B5006800F01F03400978
S2140819A000F5001000F20770012199404002024B32
S2140819B0984708BD704700BFB96408002DE9F04F86
S2140819C083B001F01F040125A5404C0904F5001456
S2140819D004F20774640225606561C4F8A050656661
S2140819E065656562C4F88050266F26EA0506266790
S2140819F01E4EB44211D009D91D4B9C4231D003F576
S214081A0000739C4230D10E26B04608E0A6F5007357
S214081A109C4229D10B26B04601E00C26B0469146DA
S214081A208A4683464046134B98470420124B9847ED
S214081A300746C0F800A0114B9847CDF800B04B46B3
S214081A402A46414620460E4CA0470E4A9319F021D6
S214081A5083F800130123B3401360384603B0BDE88B
S214081A60F08F0D26B046DAE70027F6E700100E409E
S214081A7000120E4029680800A17808009519080089
S214081A808166080000E100E038B5044615460846B9
S214081A90044B98472A4601462046034B9847034B73
S214081AA0984738BD89160800BD1908006D19080042
S214081AB02DE9F843094C04F104094FF00108084FD2
S214081AC0084E14F8015B41462846B84700212846C8
S214081AD0B0474C45F5D1BDE8F88300BF30BF0800D5
S214081AE03D1508001D160800F8B50746064D0024E3
S214081AF0064E47FA04F101F0010115F8010BB0474C
S214081B000134042CF5D1F8BD30BF08001D160800B6
S214081B102DE9F041884617461D460B4CA047064659
S214081B2029460698A04701463046084B9847064679
S214081B3041463846A04701463046054B9847294651
S214081B40044B9847BDE8F081717208008574080058
S214081B50ED7508007572080070B505460C46164601
S214081B60064B984730B931462846054B984718B96A
S214081B70284670BD204670BD304670BDC177080047
S214081B80FD7708002DE9F8431A4E751E07364FF004
S214081B900009DFF86C80012715F8014F49462046F2
S214081BA0C04704F01F0207FA02F2630903F50013A0
S214081BB003F207735B025A665A655A62C3F88020B6
S214081BC0196F21EA02021A67AE42E5D10A4E741E60
S214081BD007364FF00109DFF82880084F14F8015F30
S214081BE049462846C04700212846B847B442F5D19A
S214081BF0BDE8F88334BF08003CBF08001D1608007F
S214081C003D150800072801D90020704708B5024B83
S214081C10185C024B984708BD34BF080055160800E4
S214081C20072800D9704708B5024B185C024B98473E
S214081C3008BD00BF3CBF08001D160800012800D9D3
S214081C40704708B50021024B185C024B984708BD40
S214081C5044BF08001D160800012800D9704708B5BB
S214081C600121024B185C024B984708BD44BF080088
S214081C701D160800012800D970470129FCD870B540
S214081C801546044600290CBF88269026054B98471B
S214081C903046054EB0472846B0472046034B98477F
S214081CA070BD00BF3D1C0800BD1E0800591C08007A
S214081CB030B583B0FF238DF80730012803D99DF887
S214081CC0070003B030BD0129F9D8044600290CBF27
S214081CD048255025064B98472846064B98470DF149
S214081CE00700054B98472046044B9847E7E700BF90
S214081CF03D1C0800BD1E0800111F0800591C0800DE
S214081D00F0B583B000238DF80730012803D90025E5
S214081D10284603B0F0BD06460B4B984760200B4B91
S214081D209847042400250A4F0DF10700B8479DF888
S214081D30073043EA0525631E13F0FF04F4D1304646
S214081D40044B9847E4E700BF3D1C0800BD1E08008A
S214081D50111F0800591C080010B504460121054B40
S214081D60984740F00402D2B201212046024B984719
S214081D7010BD00BFB11C0800751C080010B504464D
S214081D800121044B984700F0FB0201212046024B34
S214081D90984710BDB11C0800751C0800012800D91A
S214081DA0704738B50D460446044B98472846044BFA
S214081DB098472046034B984738BD00BF3D1C08008F
S214081DC0BD1E0800591C080008B52021014B98477D
S214081DD008BD00BF9D1D080070B5124B984701212D
S214081DE03920114DA84701213920104CA047012160
S214081DF03B20A84701213B20A047A12200210846F6
S214081E000B4EB04700200B4DA84700200A4CA047B1
S214081E10A12200210120B0470120A8470120A047A1
S214081E2070BD00BF3D1E08003D1508001D160800C1
S214081E30751C0800591D0800C91D08000B4B1B78A7
S214081E4003B1704730B583B0094C2046094B984714
S214081E5000220092084B09492046094DA84701234D
S214081E602360024A137003B030BD00BF540D07202C
S214081E7000800040BD04080000093D00580D0720FA
S214081E8011050800024B1869C0F34020704700BFD0
S214081E900080004038B50A4601460548054B984775
S214081EA00546054CA0470028FCD0284638BD00BF8C
S214081EB00080004091050800851E080000B583B024
S214081EC002AB03F8010D01211846024B984703B0F0
S214081ED05DF804FB951E080000B583B0030A8DF86C
S214081EE004308DF80500022101A8024B984703B07C
S214081EF05DF804FB951E080008B50A460146024828
S214081F00024B984708BD00BF00800040C505080082
S214081F1010B582B0044602A8FF2300F8013D01214F
S214081F20034B98479DF80730237002B010BD00BFDA
S214081F30F91E080008B501211920034B984700210F
S214081F401920024B984708BD3D1508001D160800C5
S214081F5008B51920014B984708BD00BFE9150800C9
S214081F602DE9F843094C04F104094FF00008084F1E
S214081F70084E14F8015B41462846B847082128460B
S214081F80B0474C45F5D1BDE8F88300BF48BF080008
S214081F903D15080081150800032801D90020704760
S214081FA008B5044B185C044B984780F00100C0B293
S214081FB008BD00BF48BF08005516080008B5014B05
S214081FC0984708BDFD4A080010B40C4669B1036876
S214081FD09A420CD0034600200130844203D053F8BE
S214081FE0101F9142F8D110BC70470846FBE7002046
S214081FF0F9E7002A10DD0B7883420FD04B1C1144FA
S2140820008B420FD010B413F8014B844208D08B4291
S214082010F9D1002010BC7047002070470120704797
S2140820200120F7E700207047F8B506460C46154627
S21408203010F0010F1DD116F0040F37D100232360CE
S21408204016F0080F56D0002D54D003220021012088
S2140820502A4B98472860002843D000231A4619467A
S214082060274CA047286800283BD00021254B9847D6
S214082070F8BD032200210120204B9847606060B11C
S21408208000231A4619461E4FB847606828B1002331
S2140820901A4619461A4FB847CDE74FF0A00383F300
S2140820A01188BFF36F8FBFF34F8FFEE7032200211F
S2140820B00120124B9847206050B100231A46194653
S2140820C00F4FB847206818B100210E4B9847B7E75E
S2140820D04FF0A00383F31188BFF36F8FBFF34F8FC2
S2140820E0FEE74FF0A00383F31188BFF36F8FBFF3AB
S2140820F04F8FFEE700232B60F8BD00BF1939080094
S214082100B5390800553E08000F2908D94FF0A00336
S21408211083F31188BFF36F8FBFF34F8FFEE709294C
S21408212008D84FF0A00383F31188BFF36F8FBFF36F
S2140821304F8FFEE7002813DB30B4450900F01F0375
S21408214001229A400A4C05F1600344F823200B014B
S214082150DBB2204480F8003344F8252030BC7047B2
S21408216000F00F000B01DBB2024A1354704700BFA1
S21408217000E100E014ED00E02DE9F0410646904647
S2140821801F4685698D421FD08D4232BF4C1B44685E
S214082190641BBC4207D31ED000231A461946306972
S2140821A0114CA0473C462246B16940460F4B98471B
S2140821B0254473689D4210D20D4B9847B5610D4B68
S2140821C098472046BDE8F081C36813B94468641B85
S2140821D0DFE70024DDE73C46E5E7054B984733682C
S2140821E0B361044B9847ECE7B5390800557E0800FC
S2140821F0D5310800193208004368BBB130B583B042
S2140822000D46044668460C4B9847296860680B4B91
S214082210984768B129466846094B9847012802D06E
S214082220002003B030BD00202860FAE70020704781
S2140822306FF00200F5E700BF354F0800553E08006E
S2140822408D4F0800F0B583B00F4616461C46089B0F
S2140822509DF82450B3B1036000211846134B9847E5
S2140822600097019695B902212046114B98470022FF
S214082270694620460F4B9847012120460E4B984743
S21408228003B0F0BD0368002BEAD0E5E74FF4007111
S2140822902046074B9847002269462046074B984732
S2140822A04FF480712046044B9847E9E7553E0800EE
S2140822B06D62080049620800616208003162080021
S2140822C009B100207047006848B108B51146054BAB
S2140822D0984701280CBF00206FF0020008BD0020B8
S2140822E0704700BF553E08002DE9F04182B007460A
S2140822F00023019303017B4AD55828467A4B984712
S21408230006462846794B9847064016F4005F35D1AE
S2140823104FF0000816F4805F7CD116F4507F02D187
S214082320B8F1000F1DD06F4B03EB071340F20221E4
S21408233058686F4B984716F4807F04BF02232B60BB
S2140823404FF4005128466B4CA0474FF4805128465E
S214082350A047694B03EBC707786810B101A9674B1C
S2140823609847019B3BB14FF08052654B1A60BFF30C
S2140823704F8FBFF36F8F02B0BDE8F081594B03EB68
S21408238007134FF400715868594B98474FF400519B
S2140823902846584B984700242B6A13F0040F06D19A
S2140823A00134B4F1FF3FF7D14FF0010801E04FF0D8
S2140823B0000802232B60534B03EBC70253F8373051
S2140823C05268134413F8013C6B632B6A13F0010F31
S2140823D00CD10134B4F1FF3FF7D1474B03EBC703E9
S2140823E0586800287AD04FF0010804E0424B03EB07
S2140823F0C703586810B101A9404B9847B4F1FF3F8E
S21408240088D03D4B53F83700002883D001A93B4BB2
S21408241098477FE7334B03EB071302215868344B82
S21408242098474FF480512846324B984700242B6A29
S21408243013F0020F03D10134B4F1FF3FF7D10223A2
S2140824402B60304B53F8372003EBC7035968286BCB
S214082450531803F8020C2B6A13F0020F1BD1013431
S214082460B4F1FF3FF7D1244B03EBC70358680028A5
S2140824703FF453AF01A9214B9847B4F1FF3F3FF40F
S2140824804CAF214B53F8370000283FF446AF01A95C
S2140824901A4B984741E7B4F1FF3F0ED02B6B0A441E
S2140824A002F8013C00242B6A13F0010F0FD1013407
S2140824B0B4F1FF3FF7D14FF001080F4B03EBC7030A
S2140824C0586800283FF429AF4FF0FF34D2E70A4B8C
S2140824D003EBC70358680028CCD1CEE74FF00108B5
S2140824E018E700BF4CBF0800872E08008B2E080090
S2140824F06D620800812E08007C0D0720DD3B080071
S21408250004ED00E06C0D07205C0D07202DE9F04F68
S21408251083B004460D4602AF032307F8043D02467F
S21408252002213548354B9847064601223946287B0E
S214082530334B9847012E59DC00285BD04FEAC60972
S214082540304B03EB090808222F4940462F4B984783
S21408255040B14FF0A00383F31188BFF36F8FBFF32A
S2140825604F8FFEE72A4B9944082227494846274BAF
S214082570984740B14FF0A00383F31188BFF36F8FDD
S214082580BFF34F8FFEE7DFF870A037010AEB070BA3
S214082590DBF808001F4B984740F20221DBF80400DE
S2140825A01D4B98475AF807704FF0FF3138461B4BBB
S2140825B0984738461A4B98472B7B032B02D1384648
S2140825C0184B98474A464146687B174B98474FF43E
S2140825D050713846154B9847074B03EB0616A96803
S2140825E096F90C00124B9847204600E0002003B0EE
S2140825F0BDE8F08F0020FAE74CBF0800C91F0800A6
S214082600F31F08007C0D07206CBF0800F57D080046
S2140826105C0D0720296808006D620800812E0800F6
S2140826208F2E0800B72D0800292008007D2E0800E8
S2140826300921080008B50020014B984708BD00BFCF
S214082640E922080008B50120014B984708BD00BFDD
S214082650E922080070B5C0EBC002304B03EB8203DA
S2140826609A699B689A4214D151B9C0EBC0012B4AAB
S21408267002EB81020021D160526893421CD82EE0FA
S214082680C0EBC001254A02EB81025168C91AD16025
S21408269008E09A4219D9C0EBC004204901EB84012E
S2140826A0D21ACA60C0EBC0011C4A02EB8102D1688C
S2140826B00B445268934211D94FF0A00383F3118854
S2140826C0BFF36F8FBFF34F8FFEE7C0EBC001134A0F
S2140826D002EB81025168C91AD160E3E731B90001FB
S2140826E009210F4B18580F4B984770BD0C4D040125
S2140826F02B195E68C0EBC000084901EB8001002278
S21408270008313046084B984701213046074B984712
S21408271009212859064B984770BD00BF8C0D072025
S21408272074BF0800CF6208004962080061620800AA
S214082730CB6208002DE9F04782B005468846164663
S2140827404FF0010902AF07F8049D0246494659486A
S214082750594B984704464A463946307B574B984764
S214082760002C00F3A380002800F0A280C4EBC4026B
S214082770534B03EB82039B6943B14FF0A00383F3EB
S2140827801188BFF36F8FBFF34F8FFEE728464D4B78
S214082790984728464C4B9847464F07EB0417D7F8F8
S2140827A0049040F202214846484B9847B868484B80
S2140827B09847337B012B03D141462846454B98471B
S2140827C04FF0FF312846444B98470022434901EB17
S2140827D0C401707B424B98473368002B5ED00021BB
S2140827E04FF0FF303F4B9847C4EBC402344B03EB23
S2140827F08203186140B94FF0A00383F31188BFF332
S2140828006F8FBFF34F8FFEE7DFF8B4A0C4EBC408A2
S2140828104FEA88080AEB08073368BB607368FB60F2
S21408282039460022083148462F4B98473368BB6123
S214082830BA684AF80820736813447B60737B13F001
S214082840020F0DD00120294B9847786140B94FF008
S214082850A00383F31188BFF36F8FBFF34F8FFEE794
S21408286009212846224B984701214846214B98477C
S214082870104F24013B19B16893F90C001E4B98477A
S214082880E02138591A4B984728461C4B9847284643
S2140828901B4B9847284602B0BDE8F087C4EBC40235
S2140828A0074B03EB820301229A61E1E70020F2E777
S2140828B00020F0E774BF0800C91F0800F31F0800CF
S2140828C08C0D0720B9620800C56208006D62080012
S2140828D0296808007D620800CF620800A80D072056
S2140828E0292008008139080049620800B13B080021
S2140828F0CB6208006162080009210800B36208007C
S214082900BF6208002DE9F04184B005460E4617461A
S2140829100393024601211748174B9847B0F1000861
S21408292025DC164C04EBC80403A92046144B98472C
S214082930034618B1184604B0BDE8F0810D4B03EB0A
S2140829400818D8F80430012201920A9A00923A46EA
S214082950314620460B4EB047102128460A4B98476A
S214082960039A0A992046094B98470346E2E76FF010
S2140829700703DFE774BF0800C91F0800A80D072073
S214082980F921080045220800CB620800C122080089
S2140829902DE9F04F87B08B469046039302460121F7
S2140829A04B484C4B9847C0EBC0024B4B03EB82039B
S2140829B09B694BB10446012B0FD0002816DD002575
S2140829C0284607B0BDE8F08F4FF0A00383F31188C0
S2140829D0BFF36F8FBFF34F8FFEE74FF0A00383F36D
S2140829E01188BFF36F8FBFF34F8FFEE73A49C0EBEE
S2140829F0C0039B00CA185268CB58D31A434551D314
S214082A0004A8364B9847C4EBC402334B03EB820347
S214082A105869002848D00399314B9847012810D1A7
S214082A2003A904A82F4B984701283DD1C4EBC4043A
S214082A30294800EB840000231A46194640692A4CA8
S214082A40A0470025BCE701210298284B984718E0C4
S214082A50A84519D903A904A8224B9847A0B90399F1
S214082A603069D0477B681968A8EB05030BEB0502AD
S214082A700198C8472D18EBD01D4B9847F368002BD4
S214082A80E1D01C4B9847E3E7C4EBC404124B03EBB6
S214082A9084035869002893D000231A461946124C16
S214082AA0A0478DE700258BE70294C4EBC4030A4AC7
S214082AB002EB830301930025C4EBC40302EB8306F1
S214082AC0DFF81CA0024F07EB0417DFF82C90C6E7C8
S214082AD074BF0800C91F08008C0D0720354F080072
S214082AE0553E08008D4F0800B539080055260800E1
S214082AF0D5310800193208007921080030B583B0AE
S214082B0000230193394D2846394B984704462846F2
S214082B10384B9847044014F0100F32D114F0080FC1
S214082B201BD0354B9B69002B3DD0012B44D0324A35
S214082B309368D1680B4493605268934202D32E4B35
S214082B401A689A60002108462C4B98472A4B186941
S214082B5000283AD001A92A4B9847002C37D1264B93
S214082B60186910B101A9264B9847019B3BB14FF055
S214082B708052244B1A60BFF34F8FBFF36F8F03B09A
S214082B8030BD10212846204B9847204B586810B176
S214082B9001A91B4B98471D4B18680028BED001A9F1
S214082BA0174B9847BAE74FF0A00383F31188BFF393
S214082BB06F8FBFF34F8FFEE74FF0A00383F31188A4
S214082BC0BFF36F8FBFF34F8FFEE7002CCDD014F006
S214082BD0E00FCAD005480E4B98470C4B586800289B
S214082BE0C3D001A9064B9847BFE700BF00080E40B0
S214082BF0D7620800D36208008C0D07205526080007
S214082C00DD3B080004ED00E0CF620800A80D0720B1
S214082C10DB62080030B4012404600024446040F2FB
S214082C200225C0F82051C0F80441C0F81441456890
S214082C305200B1FBF2F2013A120292B22B431A4347
S214082C404260204630BC7047436823F01003436058
S214082C5043681943416070474368D201D2B21943AA
S214082C600A434260704710B44468090601F0706170
S214082C7021430A43190701F040511143416010BC33
S214082C807047000008B5044B984200D008BD1820CD
S214082C90024B9847FAE700BF008000402968080002
S214082CA0436823F4702343604368090401F47021E1
S214082CB0194341607047436823F07F434360436885
S214082CC043EA01614160704732B900EB8100036B4B
S214082CD023F001030363704700EB8100036B43F0A6
S214082CE001030363704732B900EB8100036B23F0DE
S214082CF002030363704700EB8100036B43F0020393
S214082D0003637047042A03D06AB1082A16D07047AE
S214082D1000EB8100036B23F008030363036B43F0A7
S214082D2004030363704700EB8100036B23F008037A
S214082D300363036B23F004030363704700EB81000F
S214082D40036B43F008030363E1E700EB81010B6BB9
S214082D5023F0F0030B630B6B1A430A637047431E9A
S214082D601944B1FBF0F0431EFE2B94BF00B24FF09F
S214082D70FF30704772B110B4144600EB81010B6B3C
S214082D8023F47F430B630A6B42EA04220A6300209B
S214082D9010BC70474FF0FF30704710B400EB81014D
S214082DA0086B80B208630C6B44EA036343EA024389
S214082DB00B6310BC704708230360202303600423BA
S214082DC0036070472A4B994249D8A3F57A5399422B
S214082DD02BD910B4274CA4FB0234A40B043C264B76
S214082DE00B449B00B2FBF3F2043AFF2C39D90021BE
S214082DF001316408FF2C0DD90729F9D113029BB2BB
S214082E00090401F4E0210B43E4B2234303610020E4
S214082E1010BC7047FF2AF1D90629EFD801315208AD
S214082E20FF2AEBD90629F9D9E8E74900B2FBF1F2FF
S214082E30043AFF2A11D9002301335208FF2A01D980
S214082E40072BF9D1110289B21B0403F4E0230B43C4
S214082E50D2B21A430261002070470023F2E701202D
S214082E607047FF2A88BF0021D8D80021C6E700BFD0
S214082E70801A0600F11976050012FD3F4162704778
S214082E808162036A7047006A7047C06A7047802389
S214082E900360036B7047000010B51C20054B98476D
S214082EA0044620B1002340F8043B034B98472046CD
S214082EB010BD00BF6D340800B13008002DE9F84396
S214082EC0DDF8209060B1064611F07F4F11D04FF024
S214082ED0A00383F31188BFF36F8FBFF34F8FFEE70E
S214082EE04FF0A00383F31188BFF36F8FBFF34F8FA4
S214082EF0FEE741B94FF0A00383F31188BFF36F8F45
S214082F00BFF34F8FFEE7984617460C46334B984755
S214082F1058B9B9F1000F08D04FF0A00383F3118811
S214082F20BFF36F8FBFF34F8FFEE72D4B984735687B
S214082F30B8F1000F0DD12C4214BF0123002373B142
S214082F4017B125EA04043460264B98472846BDE89E
S214082F50F88334EA05030CBF01230023EFE7B9F131
S214082F60000FF1D0002F0CBF00214FF08071B8F190
S214082F70000F01D041F080614A462143301D1A4BAC
S214082F809847184B984738B94FF08052174B1A6035
S214082F90BFF34F8FBFF36F8F154B9847054610F05A
S214082FA0007F10D1134B98473568B8F1000F0ED143
S214082FB02C4214BF012300231BB117B125EA0404D1
S214082FC034600D4B984725F07F40BDE8F88334EA17
S214082FD005030CBF01230023EEE700BFED510800F0
S214082FE07D470800614908008D4C080004ED00E0A4
S214082FF001560800D53108001932080070B12DE9CD
S214083000F041044611F07F4F11D04FF0A00383F330
S2140830101188BFF36F8FBFF34F8FFEE74FF0A00303
S21408302083F31188BFF36F8FBFF34F8FFEE70D460C
S21408303000F10C061B4B9847206923682B43236036
S214083040864224D00025DFF8648009E0216833EA48
S21408305001010CBF012100210EE03846BE4217D000
S2140830604768026822F07F4312F0806FEED121682D
S2140830700B4214BF012100210029EED012F0807FF8
S21408308018BF1D43216841F00071C047E5E70025D9
S214083090236823EA05032360034B98472068BDE8A6
S2140830A0F08100BF7D47080061490800514E0800BE
S2140830B000F1080343604FF0FF328260C36003618B
S2140830C000230360704700230361704730B40D681F
S2140830D0B5F1FF3F02D000F1080202E0026904E001
S2140830E01A4653681C68A542FAD253684B60996022
S2140830F08A605160086103680133036030BC70471A
S21408310003694268816891608268416851605A68BC
S214083110904204BF82685A60002202611A68013A27
S2140831201A6018687047000082B0002301930D4BA0
S2140831301B68B3F1FF3F08D04FF0A00383F3118854
S214083140BFF36F8FBFF34F8FFEE74FF0A00383F3F5
S2140831501188BFF36F8FBFF34F8F019B002BFCD0F6
S21408316002B070473801072006480068006880F3F8
S214083170088862B661B6BFF34F8FBFF36F8F00DF64
S21408318000BF000008ED00E04FF0807340F8043CF4
S21408319021F0010140F8081C034B40F80C3C40F8AD
S2140831A0202C4038704700BF293108000000000076
S2140831B0074B19680868B0E8F00F80F30988BFF372
S2140831C06F8F4FF0000080F311884EF00D0E704799
S2140831D0D8AD07204FF0A00383F31188BFF36F8F95
S2140831E0BFF34F8F0A4A136801331360012B0DD1C2
S2140831F0084B1B6813F0FF0F08D04FF0A00383F3AB
S2140832001188BFF36F8FBFF34F8FFEE7704700BF7D
S2140832103801072004ED00E0094B1B6843B94FF05E
S214083220A00383F31188BFF36F8FBFF34F8FFEE7BA
S214083230013B034A13600BB983F31188704700BF3C
S2140832403801072000000000000000000000000011
S214083250EFF30980BFF36F8F0D4B1A6820E9F00F64
S21408326010602DE908404FF0A00080F3118801F0A7
S21408327071FC4FF0000080F31188BDE8084019681B
S2140832800868B0E8F00F80F30988BFF36F8F7047BF
S214083290D8AD072008B54FF0A00383F31188BFF315
S2140832A06F8FBFF34F8F054B984718B14FF080527A
S2140832B0034B1A60002383F3118808BDAD47080046
S2140832C004ED00E0054B00221A6005490A6005492E
S2140832D0054A116007221A60704700BF10E000E038
S2140832E018E000E01F48010014E000E010B582B0C6
S2140832F0294B1A78D2B20192FF221A701B78DBB2D9
S2140833008DF803309DF8033003F0A003234A1370AA
S2140833100722234B1A609DF8033013F0800F12D053
S214083320062300E00B469DF803205200D2B28DF823
S21408333003209DF80320591E12F0800FF2D1184A78
S2140833401360032B08D04FF0A00383F31188BFF354
S2140833506F8FBFF34F8FFEE71B0203F4E063104A3C
S2140833601360019BDBB20C4A13700E4B1A6842F4CA
S21408337070021A601A6842F070421A600A4B984740
S21408338000240A4B1C600A4B98470A4B98470A4B7E
S2140833909847204602B010BD00E400E0B00D0720B4
S2140833A0B40D072020ED00E0C532080038010720DC
S2140833B069310800554B080029310800EFF30583EA
S2140833C00F2B0FD9104A9B5CDBB2104A12789A4230
S2140833D008D94FF0A00383F31188BFF36F8FBFF3AC
S2140833E04F8FFEE70A4B1B6803F4E063094A12682E
S2140833F0934208D94FF0A00383F31188BFF36F8F69
S214083400BFF34F8FFEE77047F0E300E0B00D0720EC
S2140834100CED00E0B40D072010B4124B1A68824277
S2140834201AD35C681919884203D141682144596047
S214083430184641684418A24212D10B4C2468A2428E
S2140834400CD052680A4442601A68126802609842B1
S21408345018BF186010BC70471346DFE70260F6E72F
S2140834600260F4E7D0AD0720B80D0720F8B504468B
S2140834704C4B98474C4B1B68F3B14C4B1E68264286
S21408348040F08680002C00F0868004F108039C42F9
S21408349080F0818013F0070F05D023F0070208326A
S2140834A0934278D21346002B72D0414A1768BB4223
S2140834B06ED8404A146827E03F4A12F0070F1ED01D
S2140834C0D11D21F0070102F520435B1A0A46394848
S2140834D00260002141601344083B23F0070332488A
S2140834E0036059601960991A51601360334B19606C
S2140834F02F4B19604FF000422C4B1A60BDE74FF473
S2140835002043E4E722460C4661688B4202D92168CC
S2140835100029F7D1244909688C4239D015682168F2
S21408352011606268D21A102A10D9E01810F0070F36
S21408353008D04FF0A00383F31188BFF36F8FBFF353
S2140835404F8FFEE7426063601D4B98476268BF1A5C
S21408355017490F60194909688F423CBF17490F6021
S21408356008351643666000232360164A136801333D
S2140835701360154B984785B115F0070F10D04FF01C
S214083580A00383F31188BFF36F8FBFF34F8FFEE757
S2140835900D4B984701E00C4B98470C4B9847002575
S2140835A02846F8BD7D470800B80D0720BCAD0720A3
S2140835B0C0AD0720D0AD0720BC0D0720C4AD07203E
S2140835C019340800C8AD072061490800D15E080014
S2140835D0002833D010B5044650F8043C184A126840
S2140835E0134208D14FF0A00383F31188BFF36F8FFF
S2140835F0BFF34F8FFEE750F8081C41B14FF0A00309
S21408360083F31188BFF36F8FBFF34F8FFEE723EA6C
S214083610020340F8043C0B4B98470B4A54F8043C0A
S21408362011680B441360A4F10800084B9847084A31
S214083630136801331360074B984710BD704700BFE7
S214083640BCAD07207D470800C0AD07201934080028
S214083650CCAD07206149080010B50446044B9847CE
S214083660A46B044B9847B4FA84F0400910BD00BF19
S214083670D53108001932080070B504461646856B21
S214083680026C52B90368002B2AD18068184B9847F9
S2140836900023A3600135A56370BD6EB94068154B5D
S2140836A098476368226C13446360A268934219D3F0
S2140836B0236863600020EDE7C0680E4B9847236CCC
S2140836C05B42E2681A44E26021688A4202D2A26833
S2140836D01344E360022E07D145B1013D0020D9E727
S2140836E00020D7E70020D5E70020D3E70020D1E761
S2140836F0D5520800557E080070B582B00190846CDB
S21408370064B1A26BE36B9A4211D34FF0A00383F324
S2140837101188BFF36F8FBFF34F8FFEE74FF0A003FC
S21408372083F31188BFF36F8FBFF34F8FFEE7A26B4B
S214083730934203D80026304602B070BD94F8455030
S2140837406DB2002201A92046104B98470646B5F1EF
S214083750FF3F0AD1636A002BEDD004F124000C4B1E
S2140837609847002818BF0126E5E77F2D08D14FF0B7
S214083770A00383F31188BFF36F8FBFF34F8FFEE765
S2140837806B1C5BB284F84530D5E700BF7936080075
S2140837905D4D0800026C72B110B50346C468144447
S2140837A0C4608068844224BF1868D8600846D96810
S2140837B0014B984710BD7047557E08002DE9F0412B
S2140837C00546234B984795F8454064B2002C18DD0B
S2140837D0204EDFF88C80204F08E06B6A8BB105F12D
S2140837E02400B84758B9013C64B254B1AB6C002BFE
S2140837F0F3D02846B0470028F5D0C047F3E7C047BF
S214083800F1E7FF2385F84530144B9847104B984747
S21408381095F8444064B2002C12DD2B6983B105F19B
S21408382010070D4EDFF8388004E0013C64B23CB166
S2140838302B692BB13846B0470028F6D0C047F4E7C6
S214083840FF2385F84430054B9847BDE8F08100BF54
S214083850D5310800F93608005D4D08001932080011
S2140838601D50080038B590B10446C26B32B14FF00F
S214083870FF33B3FBF2F3026C934211D24FF0A0036E
S21408388083F31188BFF36F8FBFF34F8FFEE74FF0B8
S214083890A00383F31188BFF36F8FBFF34F8FFEE744
S2140838A00D46184B98472268216CE36B03FB01F31F
S2140838B0D018A0600020A06362605B1A1344E3601F
S2140838C0FF2384F8443084F8453095B9236963B1FA
S2140838D004F110000C4B984738B14FF080520B4B50
S2140838E01A60BFF34F8FBFF36F8F094B98470120BD
S2140838F038BD04F11000074DA84704F12400A84776
S214083900F3E700BFD53108005D4D080004ED00E080
S21408391019320800B1300800F8B518B306464FF05B
S214083920FF30B0FBF6F088421CD301FB06F010F11E
S214083930550F17D817460D4654300F4B9847044670
S21408394070B100F15403002D08BF03460360C66338
S21408395005640121094B984784F850700023A36436
S2140839602046F8BD4FF0A00383F31188BFF36F8F8E
S214083970BFF34F8FFEE700BF6D34080065380800B8
S21408398008B1884208D24FF0A00383F31188BFF32A
S2140839906F8FBFF34F8FFEE710B50C46022200214B
S2140839A0034B9847034600B18463184610BD00BF12
S2140839B0193908002DE9F04F85B0019298B10446F0
S2140839C0D1B1022B24D01E460F466C4B984758BBE5
S2140839D0019B8BB34FF0A00383F31188BFF36F8F5F
S2140839E0BFF34F8FFEE74FF0A00383F31188BFF3B2
S2140839F06F8FBFF34F8FFEE7026C002AE1D04FF0BF
S214083A00A00383F31188BFF36F8FBFF34F8FFEE7D2
S214083A10E26B012AD7D04FF0A00383F31188BFF3D7
S214083A206F8FBFF34F8FFEE70025DFF87C81DFF846
S214083A307CA1DFF8549135E00025F6E7A56B324601
S214083A40394620464E4B9847A36C002B00F08380DF
S214083A50022E00D15DB920464A4B984738B14FF040
S214083A608052494B1A60BFF34F8FBFF36F8F474B97
S214083A709847012005B0BDE8F08F0028F7D04FF032
S214083A808052414B1A60BFF34F8FBFF36F8FEEE73C
S214083A903E4B98470020EDE720463D4B98473D4B68
S214083AA098470125C047A26BE36B9A42C6D3022EFD
S214083AB047D0019B002BEBD00DB902A8D047334B5B
S214083AC09847354B9847C04794F844305BB2B3F1F3
S214083AD0FF3F04BF002384F8443094F845305BB2B7
S214083AE0B3F1FF3F04BF002384F84530274B9847BF
S214083AF001A902A8294B9847E0B9C047D4F838B0BE
S214083B00E56B224B9847AB45C6D1019904F11000E6
S214083B10234B984720461E4B98471E4B984700282D
S214083B20BFD14FF08053C9F80030BFF34F8FBFF3B3
S214083B306F8FB6E72046164B9847164B98470020D7
S214083B4098E7A56B0222394620460D4B9847A36C8A
S214083B50002B7FF47FAF636A002B8ED004F124001D
S214083B60104B9847002882D04FF08052064B1A60B8
S214083B70BFF34F8FBFF36F8F79E700BFED51080093
S214083B8079360800F936080004ED00E01932080016
S214083B90BD370800614908007D4708008D4F0800BA
S214083BA0554C08005D4D0800D5310800754F0800D3
S214083BB038B5024600210120064B9847044638B11E
S214083BC0002181600160C1600B460A46024DA84785
S214083BD0204638BD19390800B539080060B170B5F7
S214083BE00446036C8BB14FF0A00383F31188BFF330
S214083BF06F8FBFF34F8FFEE74FF0A00383F3118854
S214083C00BFF36F8FBFF34F8FFEE7036823B30E46ED
S214083C102B4B9847EFF311854FF0A00383F31188D9
S214083C20BFF36F8FBFF34F8FA26BE36B9A423BD203
S214083C3094F845305BB20132A263B3F1FF3F22D15C
S214083C40A36CABB120461F4B984778B386B30120C8
S214083C50306085F3118870BD8368002BD7D04FF08D
S214083C60A00383F31188BFF36F8FBFF34F8FFEE770
S214083C70636AFBB104F12400134B9847E0B1EEB138
S214083C8001203060E5E77F2B08D14FF0A00383F3CF
S214083C901188BFF36F8FBFF34F8FFEE701335BB218
S214083CA084F845300120D4E70020D2E70120D0E789
S214083CB00120CEE70120CCE70120CAE70120C8E7AB
S214083CC0BD330800F93608005D4D08002DE9F047B9
S214083CD084B0019280B10446B9B10E46504B98475D
S214083CE0F8B9019B2BB34FF0A00383F31188BFF3F9
S214083CF06F8FBFF34F8FFEE74FF0A00383F3118853
S214083D00BFF36F8FBFF34F8FFEE7036C002BE4D033
S214083D104FF0A00383F31188BFF36F8FBFF34F8F65
S214083D20FEE70027DFF82481DFF824A1DFF8FC90FF
S214083D3029E00027F6E7314620463A4B9847013DEA
S214083D40A563236963B104F11000374B984738B16F
S214083D504FF08052354B1A60BFF34F8FBFF36F8F0B
S214083D60334B9847012004B0BDE8F087304B98479E
S214083D700020F8E702A8D0470EE020462D4B9847CB
S214083D802D4B98470127C047A56B002DD3D1019B23
S214083D90002BEBD0002FEDD0254B9847274B9847A4
S214083DA0C04794F844305BB2B3F1FF3F04BF00232A
S214083DB084F8443094F845305BB2B3F1FF3F04BF53
S214083DC0002384F845301A4B984701A902A81C4BD3
S214083DD09847C8B920461B4B98470028CDD001996C
S214083DE004F12400184B98472046124B9847124B6C
S214083DF098470028C6D14FF08053C9F80030BFF363
S214083E004F8FBFF36F8FBDE720460A4B98470A4B84
S214083E10984720460B4B98470028B3D00020A2E7C7
S214083E20ED510800953708005D4D080004ED00E0E8
S214083E3019320800BD370800614908007D470800A8
S214083E408D4F080059360800554C0800D531080033
S214083E50754F08002DE9F04385B0019158B1044626
S214083E60036C8BB14FF0A00383F31188BFF36F8FF9
S214083E70BFF34F8FFEE74FF0A00383F31188BFF31D
S214083E806F8FBFF34F8FFEE75B4B984750B9019B88
S214083E9083B14FF0A00383F31188BFF36F8FBFF38E
S214083EA04F8FFEE700252F46544EDFF88491DFF843
S214083EB0588148E000252F46F6E7013BA3632368B0
S214083EC013B94F4B9847A060236963B104F11000FB
S214083ED04C4B984738B14FF080524B4B1A60BFF3A3
S214083EE04F8FBFF36F8F494B98470125284605B07B
S214083EF0BDE8F08345B14FF0A00383F31188BFF304
S214083F006F8FBFF34F8FFEE7404B9847EEE702A848
S214083F10C84721E0B047A0683D4B984705463B4B4D
S214083F20984740E020463B4B98473B4B984709E06C
S214083F302046384B9847384B98472046374B984783
S214083F40002845D10127B047A36B002BB5D1019BAC
S214083F50002BCFD0002FDAD02C4B9847304B984701
S214083F60B04794F844305BB2B3F1FF3F04BF002378
S214083F7084F8443094F845305BB2B3F1FF3F04BF91
S214083F80002384F84530214B984701A902A8254B01
S214083F9098470028CCD12046204B98470028C1D007
S214083FA02368002BB6D0019904F124001E4B9847CD
S214083FB02046184B9847184B98470028C2D14FF010
S214083FC08053C8F80030BFF34F8FBFF36F8FB9E741
S214083FD0002D8BD0094B9847636A53B1236B196839
S214083FE0C1F10501A068114B9847084B9847002572
S214083FF07CE70021F6E700BFED510800D531080040
S214084000195608005D4D080004ED00E01932080056
S2140840100D520800BD3708006149080059360800E7
S2140840207D4708008D4F0800554C08009D53080032
S214084030754F08002DE9F04385B0019280B104461B
S214084040B9B10D46504B9847F8B9019B23B34FF0CA
S214084050A00383F31188BFF36F8FBFF34F8FFEE77C
S2140840604FF0A00383F31188BFF36F8FBFF34F8F12
S214084070FEE7036C002BE4D04FF0A00383F311880F
S214084080BFF36F8FBFF34F8FFEE700263F4FDFF873
S2140840902891DFF8048129E00026F7E7E668294634
S2140840A020463B4B9847E660636A63B104F12400F8
S2140840B0384B984738B14FF08052374B1A60BFF3E9
S2140840C04F8FBFF36F8F354B9847012005B0BDE87B
S2140840D0F083324B98470020F8E702A8C8470EE05E
S2140840E020462F4B98472F4B98470126B847A36B77
S2140840F0002BD3D1019B002BEBD0002EEDD0274B05
S2140841009847294B9847B84794F844305BB2B3F1C0
S214084110FF3F04BF002384F8443094F845305BB270
S214084120B3F1FF3F04BF002384F845301B4B984784
S21408413001A902A81D4B9847C8B920461C4B9847AA
S2140841400028CDD0019904F124001A4B9847204640
S214084150134B9847134B98470028C6D14FF0805307
S214084160C8F80030BFF34F8FBFF36F8FBDE7204608
S2140841700B4B98470B4B984720460D4B9847002803
S214084180B3D00020A2E700BFED510800D5310800E3
S214084190953708005D4D080004ED00E01932080068
S2140841A0BD370800614908007D4708008D4F0800A4
S2140841B059360800554C0800754F080058B170B4B9
S2140841C00446C1B1144B5B6898420DD012480023D0
S2140841D01A46064618E04FF0A00383F31188BFF38B
S2140841E06F8FBFF34F8FFEE700220B4B03EBC20324
S2140841F00BB119605C6070BC70470132082AF7D0B2
S21408420008304568AC42F0D0002BF6D156F832504C
S214084210002D08BF0346F0E74CB9072070B50446E2
S2140842200D461646114B984794F844305BB2B3F1E6
S214084230FF3F04BF002384F8443094F845305BB24F
S214084240B3F1FF3F04BF002384F84530084B984776
S214084250A36B1BB12046074B984770BD32462946CC
S21408426004F12400044B9847F4E700BFD531080052
S21408427019320800BD370800014D0800074B1B68B7
S2140842801B6833B1054B1B68DB681A68044B1A6059
S21408429070474FF0FF32024B1A607047DCAD0720BC
S2140842A090AE072070B504460E46244B1D68244B76
S2140842B018680430234B984748B9214B1A68224996
S2140842C00B68D06A0122824023EA02030B60B4F12D
S2140842D0FF3F13D02C441A4B1B685C60A54224D8B9
S2140842E01A4B1868164B19680431194B9847194B1E
S2140842F01B689C423CBF174B1C6070BD002EE9D063
S214084300154A51680E4B1868816018688C68C46036
S2140843108C681868043060601868043088601B6809
S2140843205A6113680133136070BD0C4B1868044B50
S21408433019680431064B984770BD00BFDCAE0720ED
S214084340D8AD07200131080060AE0720DCAD072095
S214084350CD30080090AE0720B4AE0720E0AD0720A9
S21408436080B5184DDFF87880DFF8789001E0164BB6
S21408437098472B68C3B1154F154EC047FB68DC68D5
S214084380201DB047134A1368013B13602B68013B96
S2140843902B60114B9847206BDFF84CA0D04720467F
S2140843A0D0472B68002BE8D10C4B1B68012BDED9B5
S2140843B04FF08053C9F80030BFF34F8FBFF36F8FAD
S2140843C0D5E700BF54AE0720A15E0800C8AE072098
S2140843D00131080050AE072019320800E4AD072066
S2140843E0D531080004ED00E0D135080010B50446C4
S2140843F0094B98472046094B9847172808D8204461
S21408440004F11802202300F8013B9042FBD1182043
S21408441000232354204410BD65800800218108002D
S2140844202DE9F04F83B000900F4601930C9DDDF800
S21408443034A0960030466E4B984788B380466C206A
S2140844406B4B9847044640B3C0F830803246A521E7
S2140844504046684B9847D4F8309027B33B7884F8A2
S21408446034303B785BB13B4604F134021837597850
S21408447002F8011F13F8011F09B1BB42F7D1002348
S21408448084F84C30042D12D94FF0A00383F311881A
S214084490BFF36F8FBFF34F8FFEE74046564B9847E4
S2140844A04FF0FF308FE0002384F83430EAE7E56207
S2140844B0A5650027E76504F104084046DFF884B1DF
S2140844C0D84704F11800D8472461C5F10505A56149
S2140844D064622766676684F86870043E4E44019AEC
S2140844E0009926F00700454B98472060BAF1000F60
S2140844F001D0CAF80040424B9847424A1368013335
S2140845001360414B1B68002B60D13F4B1C6013683F
S214084510012B1FD13D4E30463D4DA84706F11400ED
S214084520A84706F12800A84706F13C00A84706F168
S2140845305000A847374F3846A847374E3046A84752
S2140845403648A8473648A8473648A847364B1F6017
S214084550364B1E60364A1368013313602365E36AD8
S2140845603449086801229A4002430A60274A03EB46
S214084570830302EB83035B68A3609968E16099682C
S214084580C1F80480C3F80880E06A83001918890017
S214084590551865615158013103449B00D150264B8C
S2140845A09847264B1B68F3B1174B1B68DA6AE36A11
S2140845B09A421AD24FF08052214B1A60BFF34F8F9F
S2140845C0BFF36F8F012003B0BDE8F08F1B4B1B684D
S2140845D0002BBFD10C4B1B68DA6AE36A9A429CBF71
S2140845E0094B1C60B6E70120EDE70120EBE700BFAA
S2140845F06D340800417F0800D1350800893108006D
S214084600D531080050AE0720D8AD0720E4AD072006
S214084610B130080064AE072078AE07209CAE0720AD
S214084620C8AE0720B4AE0720DCAD0720E0AD0720F3
S2140846305CAE072060AE072019320800B0AE07202F
S21408464004ED00E0C7300800F8B5E0B104461C4B9E
S2140846501B6898422AD01B4B984765691A4B1F68F7
S2140846601A4B1E681A4B9847BD4221D0B54221D036
S214084670184B9D4210D0184B9D421FD0002D0CBFE2
S21408468004200120F8BD4FF0A00383F31188BFF380
S2140846906F8FBFF34F8FFEE7A36A6BB994F8683045
S2140846A0DBB2012B0CBF02200320F8BD0020F8BDAA
S2140846B00220F8BD0220F8BD0220F8BD0420F8BD8F
S2140846C0D8AD0720D5310800DCAD0720E0AD0720BF
S2140846D019320800B4AE0720C8AE072010B582B05D
S2140846E01B4B0193002300934FF4967219491A48FE
S2140846F01A4CA047012806D0B0F1FF3F1ED0184B31
S2140847001B6802B010BD174B98470128F4D14FF02C
S214084710A00383F31188BFF36F8FBFF34F8F4FF05B
S214084720FF32114B1A600122104B1A600022104B00
S2140847301A60104B9847104B9847E0E74FF0A003D5
S21408474083F31188BFF36F8FBFF34F8FFEE700BF69
S2140847508CAE0720ACBF080061430800214408005F
S2140847603C010720555B080090AE0720B0AE072036
S214084770DCAE0720C1610800ED320800024A136863
S21408478001331360704700BF58AE0720014B186806
S214084790704700BFDCAE072008B5024B9847024BAF
S2140847A0186808BDBD330800DCAE07202DE9F84FB1
S2140847B05F4B1B68002B40F0B3805E4B1C680134CF
S2140847C01C60C4B95C4B1B681B6843B14FF0A00360
S2140847D083F31188BFF36F8FBFF34F8FFEE7564AF8
S2140847E01168564B186810601960554A13680133EB
S2140847F01360544B9847544B1B689C4212D20020B7
S214084800524B1B68DB6A03EB83039B00504AD35862
S214084810022B28BF01204F4B1B68002B18BF012016
S214084820BDE8F88F0020444E0546DFF830B14FF05B
S214084830010E474ADFF8148136E04FF0FF32424B4C
S2140848401A60DDE7404B1F60DAE7DF6ADBF800A096
S2140848500EFA07F949EA0A09CBF8009007EB87072A
S21408486002EB87077F689F60B968D960B968C1F8A6
S21408487004C0C7F808C0D3F82C904FEA890707EB9E
S214084880090C02EB8C0AC3F814A052F82CC00CF1E1
S214084890010C4F4442F827C0D8F800C0DF6ADCF89D
S2140848A02C309F4228BF012033681B68002BC4D0D9
S2140848B03368DB68DB685F68BC42C3D3D3F8149000
S2140848C09F68D968B960DF689968796003F1040C55
S2140848D0D9F80470674504BFDF68C9F804705D61DD
S2140848E0D9F80070013FC9F80070D3F82890B9F1DC
S2140848F0000FAAD0DF69196AB9601F6AD96979609A
S21408490003F1180AD9F80470574504BF1F6AC9F896
S21408491004709D62D9F80070013FC9F8007094E7EA
S2140849200D4A1368013313600020BDE8F88F00BFF6
S21408493058AE0720DCAE0720DCAD0720E0AD072028
S21408494094AE07207D42080090AE0720D8AD072019
S214084950E4AD0720E0AE072098AE072060AE07203B
S214084960594B1B6843B94FF0A00383F31188BFF374
S2140849706F8FBFF34F8FFEE72DE9F047534B9847ED
S214084980514B1A68013A1A601B68002B40F0978052
S2140849904F4B1B682BB900244E4B98472046BDE862
S2140849A0F08700234C4D1C464C4801214C4ADFF842
S2140849B048A1DFF83CE12F68002F5FD0EB68DB6882
S2140849C0D3F828C0DF691E6ABE601F6ADE697E608B
S2140849D003F11808DCF80470474504BF1F6ACCF8D2
S2140849E004709C62DCF80070013FCCF80070D3F8C5
S2140849F014C09F68DE68BE60DF689E687E6003F14C
S214084A000408DCF80470474504BFDF68CCF8047077
S214084A105C61DCF80070013FCCF80070DF6AD0F803
S214084A20009001FA07FC4CEA090CC0F800C007EB36
S214084A30870702EB87077F689F60BE68DE60BE68F0
S214084A40C6F80480C7F80880D3F82C804FEA880791
S214084A5007EB080C02EB8C09C3F8149052F82CC02C
S214084A600CF1010C474442F827C0DAF80070FF6AD8
S214084A70DE6ABE429FD3CEF800109CE70BB1194BF6
S214084A809847194B1C686CB1184F194E012501E060
S214084A90013C04D0B8470028FAD03560F8E7002271
S214084AA0114B1A60124B1B685BB14FF08052114BCA
S214084AB01A60BFF34F8FBFF36F8F01246CE7002493
S214084AC06AE7002468E700BF58AE0720D53108001B
S214084AD050AE0720193208009CAE072060AE0720AB
S214084AE0E4AD07207D42080098AE0720AD470800D1
S214084AF0E0AE072004ED00E0D8AD072010B5A8B159
S214084B0004460F4B1B6843B14FF0A00383F311888C
S214084B10BFF36F8FBFF34F8FFEE70A4B984700210E
S214084B202046094B9847094B984738B94FF08052AA
S214084B30074B1A60BFF34F8FBFF36F8F10BD00BFD0
S214084B4058AE07207D470800A542080061490800BE
S214084B5004ED00E0364B1B681BB10122354B1A608A
S214084B60704710B50022334B1A60334B9847334BC7
S214084B7018601B68324A11688B4207D92F4B186891
S214084B80304B1A68136E5B1A034413662B4B1A686D
S214084B902B4B1A602B4B1B681B6B1A68B2F1A53F90
S214084BA003D15A68B2F1A53F1BD0264B186819687E
S214084BB03431254B9847254B1B68B3FA83F3DBB291
S214084BC0C3F11F0303EB8302920021498A588AB96E
S214084BD04FF0A00383F31188BFF36F8FBFF34F8F97
S214084BE0FEE79A68B2F1A53FDFD1DB68B3F1A53FCF
S214084BF0DBD1E0E7164A9900C81802EB8000446843
S214084C0064684460194402460832944209D003EBAB
S214084C1083030F4A02EB83035B68DA68094B1A6062
S214084C2010BD60680A4A02EB81025060EFE700BFD9
S214084C3058AE0720E0AE0720D16108004CAE07202A
S214084C4048AE0720D8AD0720A55E080060AE07204E
S214084C50E4AD072040B94FF0A00383F31188BFF3F3
S214084C606F8FBFF34F8FFEE710B50C46044B1968DD
S214084C701831044B984701212046034B984710BD2E
S214084C80D8AD0720CD300800A542080038B560B179
S214084C9003461848006888B94FF0A00383F31188C4
S214084CA0BFF36F8FBFF34F8FFEE74FF0A00383F37A
S214084CB01188BFF36F8FBFF34F8FFEE710460E4A7B
S214084CC0146841F00041A16159681468E1611468EC
S214084CD08D6825628D68146818346C6014681834FA
S214084CE08C60126893621A6801321A600121034BBD
S214084CF0984738BD58AE0720D8AD0720A54208000B
S214084D00F0B170B50C460346114620465C68114A59
S214084D101568EC611568A6682E62A66815681835C9
S214084D20756015681835A560126893621A680132AE
S214084D301A60002918BF4FF0FF30074B984770BD20
S214084D404FF0A00383F31188BFF36F8FBFF34F8F25
S214084D50FEE700BFD8AD0720A5420800C368DB6899
S214084D60002B53D030B49A6AD969186A8860196AD1
S214084D70D869486003F118005168814204BF196A6F
S214084D805160002199621168013911602A4A126837
S214084D90002A44D15A699968D8688860D96898689A
S214084DA04860181D5168814204BFD96851600021C7
S214084DB05961116801391160DA6A204C25680121A9
S214084DC09140294321601E4902EB820201EB8202D0
S214084DD052689A609468DC60946860609060DC6AE8
S214084DE0A200101980000D185D6108580130224491
S214084DF092008850134A1168DA6ACB6A9A4283BFCF
S214084E000120114B1860002030BC70474FF0A003FB
S214084E1083F31188BFF36F8FBFF34F8FFEE70B4AFC
S214084E205168D9618C681C628C68606088609A6278
S214084E30116801311160DDE758AE072060AE072023
S214084E40E4AD0720D8AD0720E0AE07209CAE0720CB
S214084E50334B1B6843B94FF0A00383F31188BFF3A5
S214084E606F8FBFF34F8FFEE741F000410160C368C4
S214084E70002B4CD030B40269416884688C60816825
S214084E8044684C605168884204BF816851600021BC
S214084E9001611168013911605A699968D868886093
S214084EA0D96898684860181D5168814204BFD96857
S214084EB0516000215961116801391160DA6A194C8C
S214084EC025680121914029432160174902EB820297
S214084ED001EB820252689A609468DC6094686060AD
S214084EE09060DC6AA200101980000D185D610858F1
S214084EF001302244920088500C4A1168DA6ACB6A5C
S214084F009A4202D901220A4B1A6030BC70474FF009
S214084F10A00383F31188BFF36F8FBFF34F8FFEE7AD
S214084F2058AE072060AE0720E4AD0720D8AD0720AE
S214084F30E0AE072040B94FF0A00383F31188BFF313
S214084F406F8FBFF34F8FFEE710B50446054B9847A3
S214084F50054B1B682360054B1B686360044B98472A
S214084F6010BD00BFD531080094AE0720DCAE072080
S214084F7019320800034B1B680360034B1B68436029
S214084F80704700BF94AE0720DCAE0720D0B170B5DE
S214084F90054601B30C461C4B98471C4B1A686968B3
S214084FA02368B3F1FF3F2DD0194800682E68864263
S214084FB001D08A4218D2521A9A421CD30023236080
S214084FC0012414E04FF0A00383F31188BFF36F8F1A
S214084FD0BFF34F8FFEE74FF0A00383F31188BFF3AC
S214084FE06F8FBFF34F8FFEE7002323600124094B22
S214084FF09847204670BD9B1A23602846064B98475C
S2140850000024F4E70024F2E7D5310800DCAE0720D8
S21408501094AE072019320800754F08000122014B8C
S2140850201A607047E0AE072070B50C46164605466F
S214085030D0B1256005F134026260EA6A22612A6B03
S214085040E2612A6DA260AA6D62612A6EA261052BD2
S21408505019D0174A1268954209D02373032B09D032
S214085060B6B90023238470BD114A1568E1E700230A
S2140850702373F5E70F4B9847AB6A0BB102232373EC
S2140850800D4B9847ECE728460C4B98472073E7E704
S214085090286B0378A52B08D1431C191A13F8012B83
S2140850A0A52AFAD08908218470BD0021FAE700BF36
S2140850B0D8AD07207D470800614908004946080022
S2140850C02DE9F04F83B00B684BB34B685B684B60B9
S2140850D001F10808434504BFCB684B6001920C46B3
S2140850E04B68D3F80CB0054600274FF0010ADFF8E6
S2140850F0349063685B686360984504BFE3686360E0
S2140851006368DE68019B524629463046C847013721
S2140851102435B345EDD1384603B0BDE8F08F0027F7
S214085120F9E700BF295008002DE9F04706460C4667
S2140851301746244B9847244B1B68A34240D8234B5A
S21408514003F15005A3F1140800244FF0010ADFF814
S214085150849004EBC4005246294606EB8000C847F4
S2140851600444143D4545F4D1194B196804EBC400B2
S214085170022206EB8000174DA8470444164B196810
S21408518004EBC400022206EB8000A847044404EBA4
S214085190C4000422114906EB8000A847044404EB27
S2140851A0C40003220E4906EB8000A847044417B142
S2140851B00C4B984738600C4B98472046BDE8F0875C
S2140851C00024F8E77D47080050AE0720E4AD072026
S2140851D0DCAD0720C1500800E0AD0720C8AE0720A8
S2140851E0B4AE0720D161080061490800054B1B686A
S2140851F033B1054B1B68002B0CBF022000207047FC
S21408520001207047B0AE072058AE0720002857D0B8
S21408521070B50446C26A2B490968C96A8A4246D2EA
S2140852208169002905DB27490968C96AC1F10501B2
S214085230816102EB8202244901EB82026169914294
S21408524005D0204A1268D26AE262012070BD251D88
S21408525028461E4B984738B91D490B68E06A012254
S214085260824023EA02030B60164B1B68DB6AE36284
S21408527017490E68012000FA03F232430A60124A00
S21408528003EB830302EB83035B68A3609968E16022
S21408529099684D609D60E56AAB00591989005618F3
S2140852A06661515801442B449B00D15070BD054A95
S2140852B01268806DD36A98422CBF0020012070BD0A
S2140852C000207047D8AD0720E4AD0720013108005C
S2140852D060AE0720002852D070B504462B4B1B68DA
S2140852E0984208D04FF0A00383F31188BFF36F8F5E
S2140852F0BFF34F8FFEE7C36D43B94FF0A00383F3A8
S2140853001188BFF36F8FBFF34F8FFEE7013BC3656E
S214085310C16A826D914234D0002B34D1051D2846CF
S2140853201B4B984738B91B490B68E06A0122824034
S21408533023EA02030B60A36DE362C3F10502A261D0
S21408534014490E68012000FA03F232430A60124A32
S21408535003EB830302EB83035B68A3609968E16051
S21408536099684D609D60E56AAB0059198900561822
S2140853706661515801442B449B00D15070BD0020F3
S2140853807047002070BD002070BD00BFD8AD072054
S2140853900131080060AE0720E4AD072000285ED083
S2140853A038B50446C06D40B94FF0A00383F31188A2
S2140853B0BFF36F8FBFF34F8FFEE7A26D8A4238BFE9
S2140853C00A46E16A914201D0012800D038BD244837
S2140853D00068844208D14FF0A00383F31188BFF316
S2140853E06F8FBFF34F8FFEE7E262A0690028A4BF65
S2140853F0C2F10502A26101EB81011A4A02EB8101A2
S21408540062698A42E2D1251D2846174B984738B963
S21408541016490B68E06A0122824023EA02030B6001
S214085420E36A1249086801229A4002430A600D4A54
S21408543003EB830302EB83035B68A3609968E16070
S21408544099684D609D60E06A8300191889005518B0
S21408545065615158013103449B00D150B6E7704747
S214085460D8AD0720E4AD07200131080060AE07205C
S2140854702DE9F04F85B00446002303702A4B1D68BB
S214085480186800EBC0008000284B98470390002857
S21408549047D0064600222946254B984781460028CD
S2140854A03CD00027DFF898B0DFF898A024E04FF04B
S2140854B052080DE04FF042080AE04FF0530807E0A4
S2140854C04FF0440804E04FF0000801E04FF0580899
S2140854D069682046D84704462B69AA6801922A8C30
S2140854E0009242461349D0472046134B9847044437
S2140854F001372436B94511D03546337B042BE2D81C
S21408550001A252F823F000BFCD540800AF5408009B
S214085510B5540800BB540800C15408000398074B4C
S214085520984705B0BDE8F08F50AE07206D340800E8
S214085530295108009CBF080021810800D1350800C1
S214085540ED430800198008002DE9F04F85B00446A1
S21408555000230370204B1D68186800EBC00080000D
S2140855601E4B98470190002832D003AA29460546C4
S2140855701B4B984780461B4A039BA2FB03235B09E9
S214085580039313B308B30027DFF868A0DFF868B002
S214085590DFF868900AE0AA695946C8472046124BC1
S2140855A09847044401372435B8450ED0AE69039BA6
S2140855B0B6FBF3F669682046D0470446002EEAD0C4
S2140855C03346AA690949C847E8E70198084B984747
S2140855D005B0BDE8F08F00BF50AE07206D34080058
S2140855E0295108001F85EB512181080084BF080057
S2140855F0D1350800ED43080090BF08001980080060
S214085600044B1A6890691A681B68DB6AC3F10503BD
S21408561093617047D8AD0720054B1B6823B1044B30
S2140856201A68D36D0133D365014B1868704700BFFD
S214085630D8AD072038B540B14FF0A00383F31188E2
S214085640BFF36F8FBFF34F8FFEE714460D46194B17
S2140856509847194B1B685B6E8BB9174B1B68012262
S21408566083F868205CB111462046144B98474FF0E3
S2140856708052134B1A60BFF34F8FBFF36F8F114BD7
S21408568098470C4B98470C4B1B685C6E24B165B169
S214085690094B1B6800225A66074B1B68002283F8D2
S2140856A06820084B9847204638BD034B1B68621E87
S2140856B05A66F1E7D5310800D8AD0720A54208009C
S2140856C004ED00E019320800F8B550B1044689B177
S2140856D04FF0A00383F31188BFF36F8FBFF34F8F8C
S2140856E0FEE74FF0A00383F31188BFF36F8FBFF375
S2140856F04F8FFEE715463A4B9847EFF311814FF068
S214085700A00383F31188BFF36F8FBFF34F8F94F80E
S2140857106830DBB2022284F86820626E0132626664
S214085720012B4AD1A36A43B14FF0A00383F3118833
S214085730BFF36F8FBFF34F8FFEE72A4B1B68002B14
S2140857403ED16369A268E0689060E268A06850602D
S214085750201D5A68824204BFE2685A6000226261CD
S2140857601A68013A1A60E36A1F4E376801229A409F
S2140857703A4332601D4A03EB830302EB83035B68FC
S214085780A3609E68E6609E6870609860E66AB300EC
S21408579098198000171867611058013033449B0029
S2140857A0D050134B1B68E26ADB6A9A4205D90DB1E2
S2140857B001232B6001220F4B1A6081F31188F8BD74
S2140857C00D4B5A68E26190682062966804F11800EA
S2140857D070609060A3621A6801321A60E1E700BF41
S2140857E0BD33080058AE072060AE0720E4AD07209A
S2140857F0D8AD0720E0AE07209CAE072008B541606C
S214085800006191420CD8D21A83699A4201D30120CA
S21408581008BD011D094B1868094B9847002008BDAC
S2140858209A4201D2994206D2011D064B1868044BCB
S2140858309847002008BD012008BD00BFE8AE072035
S214085840CD300800E4AE0720F8B504460D461746E6
S214085850074E04E0A3691D44236A20469847A169B9
S2140858602B463A4629442046B0470028F2D1F8BDD0
S214085870FD57080070B505460E460D4B1B68DB68DD
S214085880DC68201D0B4B984794F8283013F0040F5B
S21408589007D123F0010384F82830236A2046984766
S2140858A070BD324629462046034B9847F5E700BFA9
S2140858B0E4AE072001310800495808002DE9F041F8
