:0200000280007C
:10000000D8DE072025690800216908002169080059
:10001000216908002169080021690800000000002A
:100020000000000000000000000000005134080043
:100030002169080000000000F1340800353508008F
:100040002169080021690800216908002169080068
:100050002169080021690800216908002169080058
:10006000812D08002169080000000000C967080010
:10007000DD670800F167080005680800000000005F
:1000800000000000216908002169080021690800BA
:100090002169080021690800B9280800C92808005A
:1000A000216908000000000021690800216908009A
:1000B00021690800216908002169080021690800F8
:1000C00021690800216908002169080021690800E8
:1000D00021690800216908002169080021690800D8
:1000E00021690800216908002169080021690800C8
:1000F0002169080010B5054C237833B9044B13B1BE
:100100000448AFF300800123237010BD180B0720B3
:1001100000000000CCD808000C4B43B10C4810B5CF
:100120000C49AFF300800C48036823B910BD0A489E
:10013000036833B97047094B002BF7D0BDE8104076
:100140001847064B002BF5D0184700BF00000000F1
:10015000CCD808001C0B0720CCD8080000000000F9
:1001600030B583B0002208210120164CA047164B61
:100170001860032200210120A047144B1860144B83
:100180009847144B1860144B0193002400942346A5
:100190004FF4967211491248124DA847124B019321
:1001A000009423464FF4967210491148A847114B0A
:1001B0000193009423464FF496720F490F48A847C5
:1001C00003B030BDB93B08003C0B0720440B0720AF
:1001D0003D310800480B0720380B072014CF0800DA
:1001E00075020800C1460800340B072020CF080024
:1001F000E9040800400B07202CCF08005106080036
:1002000008B5034B186810B10021024B984708BD90
:100210004C0B07207D3E080070B50E480E4B9847EA
:100220000E4E0F4C0F4D4FF0FF313068A047A847DE
:1002300000210D4B1868A047012803D000200B4B6C
:100240009847F0E70020094B98470948024B984728
:1002500070BD00BF40CF0800815C08004C0B072038
:10026000F5400800B90B0800440B072041220800A4
:1002700060CF080070B584B000220023CDE90223CE
:100280002748284CA047284B984700210120274B9E
:100290009847274B1860702228212648264B9847FC
:1002A0002648A047264B18684FF0FF3500950123DC
:1002B00000220321234EB04701462348A047234B89
:1002C0009847234B98470020224B9847224B98474A
:1002D0002248234B98472348A0472348A047294654
:1002E000224B1868224B984700241A4E1A4D20467C
:1002F000B047A8471F481A4B9847224602A91E4BF1
:1003000018681E4B9847DDE902231D4805498847B8
:10031000DDE902011B4B98471B4B9847E7E700BFFD
:100320007CCF0800815C08003D060800213C0800E5
:100330004C0B0720010208000D1D08009CCF08008F
:10034000480B072061310800C8CF0800D913080006
:100350002D060800FD050800451408000CD0080013
:10036000111408001CD0080028D00800440B0720F6
:10037000F540080060D008003C0B0720D54208007B
:1003800068D00800890708001902080010B5044663
:10039000104B984780232360636843F00103636038
:1003A000636843F010036360636823F08003636055
:1003B00000212046084B9847636823F002036360DE
:1003C000636823F00403636000212046034B9847D1
:1003D00010BD00BF292F0800452F08005B2F080023
:1003E0002DE9F04104460D46164615491846154BB1
:1003F0009847074600231A4629682046DFF85C80A4
:10040000C0470822296820460F4B9847FAB229684E
:1004100020460E4B98470822296820460C4B9847E7
:100420007208296820460B4B984786F0010202F0BB
:10043000010229682046084B9847BDE8F08100BFBB
:1004400000BD010503300800EF2F08001930080037
:10045000A92F08006D2F08008B2F08003F300800DF
:100460001AB110B40C46114406E00020704714F88D
:10047000013BC360A1420BD043F69923026912F0FD
:10048000020FF4D1013BF9D16FF0020010BC7047AC
:100490000020FBE73AB170B415460C460D44FF2628
:1004A00040F2012112E000207047C66043F6992314
:1004B000026931EA020204D0013BF9D16FF0020077
:1004C0000EE0836804F8013BA5420BD043F6992364
:1004D000026912F0020FE8D1013BF9D16FF002007E
:1004E00070BC70470020FBE7F8B51148114B9847E6
:1004F0000121114B1868114B9847114C114F0D4EAB
:1005000002E00A20104B98470020A0470028F8D0AE
:1005100000252846A0470028FBD101213846B047D6
:1005200000231A46194609480068094DA847E8E71C
:1005300088D00800815C0800480B0720A132080021
:100540001D220800A8D0080041220800440B072003
:10055000553C080008B530B101280AD00F20074BE0
:100560009847012008BD0120054B98470028F9D085
:10057000F4E70220024B9847F8E700BF6D1D080022
:10058000891E080008B500210020034B9847002071
:10059000024B984708BD00BFF51508006D1D080007
:1005A00038B504460F4B98470546A0B91CB1012C3D
:1005B00009D0284638BD08200B4B98470B4900202E
:1005C0000B4B9847F5E70120074B98470949002056
:1005D000074B9847EDE70020034B9847064B984799
:1005E000E7E700BF550508006D1D0800000080C04A
:1005F000F51508000000C0408505080038B505461F
:10060000064B9847064C2846A0470028FBD0054BD0
:1006100098474FF47A70044B984738BDA1050800FD
:1006200055050800850508004122080008B501218C
:100630000020014B984708BDA51E080008B5002101
:100640000846014B984708BDA51E080000000000A1
:100650002DE9F04F85B00022334BCDE9022333481A
:10066000334B98470020334B98474FF000084FF02A
:100670000009314CDFF804B1DFF804A12F4D2CE064
:100680003046A0473046B8470028F9D000202C4B10
:1006900098472C4B984700955B46524600212A4EBE
:1006A000B0472A4B9847CDE9020142464B46284EB7
:1006B000B0471BA3D3E9002321F000473946254E5C
:1006C000B04778B90320244B9847D0B90221234B77
:1006D0001868234B98470A20A047224B98470026CA
:1006E000214FCFE70223002202A920480068204EB4
:1006F000B047DDE902231F480D498847DDE902893B
:10070000E0E742464B461C48094988470327124EFA
:100710003846B0470028FBD1D8E700BFAFF30080D0
:10072000FCA9F1D24D62503F0000F0BFC8D00800D4
:10073000815C08005914080041220800CDCCCC3E51
:10074000B914080041880800951D08002D80080094
:100750006D7D0800F58508001D220800480B072064
:10076000A1320800791408008D1408003C0B072002
:10077000553C0800ECD0080008D10800CDCCCC3D99
:1007800000F07F45000000002DE9F04F85B04FF4E8
:100790007A72B14B1A8000240025B04BC3E90045A2
:1007A0007DA3D3E90023AE4CC4E900237CA7D7E99D
:1007B0000067AC4CC4E900677BA7D7E90067AA4C87
:1007C000C4E900677AA7D7E90067A84CC4E90067C5
:1007D00079A7D7E90067A64CC4E9006778A5D5E9F1
:1007E0000045DFF800E3CEE90045DFF8FCE2CEE9A2
:1007F0000067A04EC6E9004573A7D7E900679E4C85
:10080000C4E9006772A7D7E900679C4CC4E9006798
:1008100071A7D7E900679A4CC4E9006770A7D7E9C8
:100820000067984CC4E90067DFF8C0924FF0FF36CC
:10083000954FC9E900676CA7D7E90067934DC5E9F3
:1008400000676BA7D7E90067914DC5E900676AA704
:10085000D7E900678F4DC5E9006769A7D7E9006749
:100860008D4DC5E9006768A7D7E900678B4DC5E9DD
:10087000006767A7D7E90067894DC5E9006766A7E4
:10088000D7E90067874DC5E9006765A7D7E9006725
:10089000854DC5E90067854D0FF28C1BDBE900AB88
:1008A000C5E900AB824CA04732463B46A047024612
:1008B0000B46DFF83CB2CBE90023A0475CA3D3E9A9
:1008C0000023A04706460F467A4BC3E90067DFF8CE
:1008D00024A255A3D3E90023D047774BC3E90001F5
:1008E000DFF8148200220023C8E9002350A3D3E9D3
:1008F000002330463946A047704B98474EA3D3E9B2
:100900000023A047D8E900236D4EB0476D4BC3E9E3
:100910000001D5E90023D0476B4BC3E9000148A390
:10092000D3E90023DBE90001A04702460B4646A1BC
:10093000D1E90001D04706460F46DFF8C081C8E97B
:10094000006743A3D3E90023D9E90001A0475F4B27
:10095000CDE900010A460146C3E9001200225C4BC2
:10096000304639465B4EB04706460F4600225A4B8A
:10097000DDE90001A04732463B46D04707460E4618
:1009800002460B465549C1E90023554D002200237C
:10099000B6E000BFAFF300809A9999999999B93F51
:1009A0009A9999999999D93F00000000C05C254116
:1009B0006766666666D297407E8684DCB3A5C73FCD
:1009C000202994A1B35E1A3FA168F80E0D11923F41
:1009D000B097EBA2EE4F953E4D36D964934D3E4015
:1009E0004C37894160E5A03FC02DC64BC424553F1C
:1009F000B7BC2EEF2A244E3F06FFDB4C6F23453F4A
:100A0000EC52195D7C07EB3FD090907BB6F4E23F4F
:100A1000C7DDC97050059840E87AACBF7CD9383F33
:100A2000E75BE5F2D0549F40A835CD3B4ED1813FE6
:100A3000DEF1546C19FEF63F9A9999999999F93F0C
:100A4000333333333333D33F6E861BF0F9211940F0
:100A5000333333333333C33F180C0720200C0720C4
:100A600038010720C80B0720500C0720A00B0720D7
:100A7000600C0720900B0720580C0720600B072004
:100A8000300C0720380C0720FFFF6840980B072028
:100A9000680B0720780B0720700B0720800B0720BE
:100AA000200D0720700C0720300D0720500B072069
:100AB000D5800800B00B0720A80B07204D6E08005A
:100AC0006D7D0800C00B0720B80B0720100C072015
:100AD000000008400D6B080000004040480C072053
:100AE000900C0720880B0720680C0720400C07207B
:100AF000280D072029830800580B0720E80C072041
:100B0000C5E9022398E800030022254B40464946E8
:100B1000A047CDE9000102460B46C5E904230022A7
:100B2000204B40464946A04700221D4BA047824625
:100B30008B46C5E906ABC5E908891B4D002000219D
:100B4000C5E9020142464B4638463146A0470022DD
:100B5000134BA0470A460146CDE90212C5E904122B
:100B600042464B46384606F10041A04700220C4B56
:100B7000A047C5E9060100230024C5E908340B4B52
:100B8000DDE90212C3E90012094BDDE90012C3E9F5
:100B90000012084BC3E900AB05B0BDE8F08F00BF01
:100BA0000000D03F00000840D00B0720000C0720B9
:100BB000800C0720880C07202DE9F04F91B08C4B5A
:100BC000D3E900458B4BD3E9008942464B4620468A
:100BD0002946894EB047002800F0528100220023A8
:100BE0008649C1E900238649C1E900238549C1E955
:100BF00000230020844DA847DFF874B24042D84754
:100C0000824C73A3D3E90023A047814BC3E90001C1
:100C10000120A8474042D84700227E4BA0477E4E85
:100C200002460B46B0476CA3D3E90023A047804699
:100C300089467A4BC3E90089794DD5E90423C5E992
:100C40000623D5E90223C5E90423C5E90289DFF8B3
:100C500024A2DAE90289CAE90489724FB847724DC1
:100C60005FA3D3E90023A84702460B46CAE9022343
:100C7000DFF804A2DAE90001CDE902014046494665
:100C8000B0470022694BA047DDE90223A8470A4686
:100C90000146674BCDE90612C3E900125C4BD3E96C
:100CA0000089644BC3E90089564BD3E90023104601
:100CB0001946DDE90223CDE90401A84742464B4627
:100CC000B847804689465C4BCDE90889C3E900896D
:100CD000DFF8A881594BD3E900235949D1E9000134
:100CE000B047CDE90A01DDE902234449D1E9000119
:100CF000A84702460B46DDE90A01A047514BD3E95C
:100D00000023A847CDE90A014F4BD3E90023DDE9D1
:100D10000801A047CDE908014C4BD3E90023DDE9E8
:100D20000601A04702460B46DDE90801B847024626
:100D30000B46DDE90A01B047C8E9000100262AA3F5
:100D4000D3E90023DDE90201A047414CA047074653
:100D5000DDE90401A0473F4B009333463A46314654
:100D60003D4EB047014602203C4EB047DAE9002331
:100D7000D8E90001A847A04701460020B047384BFA
:100D8000D3E90067013647F10007C3E90067304641
:100D90003946344B984780468946334B1888D847A4
:100DA00002460B4640464946A847114BC3E900019D
:100DB0004FF47A720023304639462C4CA047134337
:100DC00000F0D78211B0BDE8F08F00BFAFF3008014
:100DD000F168E388B5F8E43E6E861BF0F92109401E
:100DE000FCA9F1D24D62503F333333333333C33F29
:100DF000280C072038010720CD850800F80B0720B4
:100E0000780C0720E00C0720851F0800D58008001B
:100E1000380D07200000303F717D0800B80C072016
:100E2000C00C07206D7D0800298308000000E03F0A
:100E3000F80C0720400D0720080C0720800B072026
:100E4000700B0720500B0720A80B0720B80B0720BA
:100E50003586080000EC1F41951D0800F5150800B7
:100E6000200C072069800800180C0720BD8C0800A2
:100E700009800800000D0720400C0720F00C072017
:100E80004D4BD3E9002310461946CDE9020100225B
:100E90004A4B4B4EB04742464B464A4EB04702463D
:100EA0000B4620462946484EB047002833D1444ED1
:100EB0000022464BDDE90201B04700223F4BB0471C
:100EC00042464B463F4EB04702460B462046294617
:100ED0003D4EB047002840F08D80DDE902234046BA
:100EE0004946384EB04702460B4620462946364E04
:100EF000B047002840F06C81002200233449C1E94A
:100F000000233449C1E90023334BD3E90001334BBB
:100F1000C3E900016DE6324BD3E9006742464B4618
:100F2000204629462F4CA04782468B46244D00225E
:100F30002D4B30463946A8472C4CDDE90289424604
:100F40004B46A04752465B46A847214BC3E90001E8
:100F500042464B4630463946A04706460F460246B3
:100F60000B46184CA0478046894652465B46504681
:100F70005946A84702460B4640464946A847154BE6
:100F8000C3E900010022114B50465946184CA047B6
:100F90008046894606A3D3E9002330463946A84750
:100FA00042464B46A8470D4BC3E9000121E600BF6E
:100FB000555555555555E53FE80C07200000D03FE5
:100FC000D5800800717D0800CD850800000008402C
:100FD000F80B0720780C0720100C0720E00C0720E6
:100FE000000C07206D7D08000000104029830800D8
:100FF0000D6B0800DFF8CCB1DBE900231046194681
:10100000DDE90223CDE90401614EB047CDE90601D7
:10101000DFF8B4A15F4EDAE9002340464946B04705
:10102000DFF8A88102460B4620462946C047044601
:101030000D46594F0022594BDDE90601B8472246BB
:101040002B46B84702460B46DDE90401C047544B26
:10105000C3E9000122462B4620462946B847CDE980
:10106000080122462B46DDE90401B847CDE90A0113
:10107000DDE9060102460B46B047DDE90823B84723
:1010800002460B46DDE90A01C047CDE90A0100220C
:101090004FF07F53DDE90401B847DDE90223B8478B
:1010A00002460B46DDE90A01B0473E4BC3E90001A9
:1010B00000223D4B204629463C4CA047CDE90A0181
:1010C000DBE90034CDE90234394BD3E90045394B33
:1010D000D3E90023DAE90001B04702460B4636495E
:1010E000D1E90001C04782468B4600224FF07F5372
:1010F000DDE90201B84722462B46B84702460B46B7
:1011000050465946B84782468B4600222B4BDDE9B4
:101110000401B847DDE90823B847CDE9040118A365
:10112000D3E90023DDE90601B847DDE90A23B84722
:1011300002460B46DDE90401C04702460B46504615
:101140005946B04782468B460FA3D3E90023DDE919
:101150000201B8478046894622462B46204629464A
:10116000B84702460B4640464946B84702460B463A
:1011700050465946B047124BC3E9000139E500BF5C
:10118000555555555555E53F555555555555853F7B
:1011900029830800717D0800D580080000001040F8
:1011A000F80B0720780C0720000008400D6B0800A2
:1011B000E80C072038010720280C07200000E03F3A
:1011C000E00C0720000C0720800C07206D7D080034
:1011D000DFF8F8A1DAF800301E46DAF804301F46CE
:1011E000DDE90223089630460A973946684EB04733
:1011F000CDE90601DFF8D8B1664EDBE900234046B1
:101200004946B047DFF8CC8102460B4620462946C6
:10121000C047CDE90401604F0022604BDDE90601C3
:10122000B847DDE90423B847DDF820904A460A9D17
:101230002B46C0475A4BC3E90001DDE904231046A1
:101240001946B847CDE90C01DDE90423484605F10C
:101250000041B847CDE90801DDE9060102460B4629
:10126000B047DDE90C23B84702460B46DDE908012B
:10127000B047CDE90E0100224FF07F53CDF820900A
:1012800048460A952946B847DDE90223B847024691
:101290000B46DDE90E01B047424BC3E900010022D5
:1012A000414BDDE90401414CA047CDE90401DAE9F5
:1012B0000012CDE902123E4BD3E9009A3D4BD3E92F
:1012C0000023DBE90001B04702460B463A49D1E969
:1012D0000001C04704460D4600224FF07F53DDE970
:1012E0000201B8474A465346B84702460B462046D5
:1012F0002946B847CDE90E010022304B08980A99DB
:10130000B847DDE90C2301F100452946B8470446FA
:101310000D461BA3D3E90023DDE90601B847DDE94B
:101320000423B84702460B4620462946B0470246EA
:101330000B46DDE90E01B04704460D4612A3D3E982
:101340000023DDE90201B847CDE902014A465346D0
:1013500048465146B84702460B46DDE90201B84708
:1013600002460B4620462946B047154BC3E900010B
:101370003FE41448144B984724E500BFAFF30080C6
:10138000555555555555E53F555555555555BD3F41
:1013900029830800717D0800D580080000001040F6
:1013A000F80B0720780C0720000008400D6B0800A0
:1013B000E80C072038010720280C07200000E03F38
:1013C000E00C072024D10800815C0800000C0720F5
:1013D000880C07206D7D080070B583220021084627
:1013E000084EB0470020084DA8470020074CA047F2
:1013F000832200210120B0470120A8470120A047F7
:1014000070BD00BFF91E0800012008004D20080033
:10141000F8B506460020084FB847084D034600229D
:1014200031462846064CA0470120B8470346012212
:1014300031462846A047F8BD851F080028D108007E
:10144000815C080010B50020024CA0470120A04795
:1014500010BD00BF4D200800072800D9704708B50F
:10146000C0F10701C9B20248024B984708BD00BF4E
:1014700000000C400D2F080008B50248024B9847A9
:1014800008BD00BF00000C40072F0800072801D945
:101490000020704710B5054B53F820400448054B19
:1014A0009847044214BF0120002010BD44D1080019
:1014B00000000C40252F0800072801D900207047A4
:1014C00008B5C0F10701C9B20148024B984708BDF1
:1014D00000000C40172F080038B525200C4B98470A
:1014E0000C4C08230C4A0D4920460D4DA8470123FA
:1014F0004FF44012002120460A4DA8470021204603
:10150000094B9847002211462046084B984738BDA2
:101510000169080000000C4040420F00007A030AF5
:10152000992E0800EB2E0800CD2E0800DD2E0800B5
:10153000032800D9704708B50021024B185C024B04
:10154000984708BD74D10800A1180800032800D9E5
:10155000704708B50121024B185C024B984708BD43
:1015600074D10800A118080038B5032803D96FF01A
:101570007F04204638BD0546C1F30B0444F4E04423
:10158000044B98472046044B984704462846034B93
:101590009847EEE7311508005D2108004D15080059
:1015A0002DE9F8430E4B98470E4C04F1040901262F
:1015B000DFF83C800C4F14F8015B31462846C047E9
:1015C00031462846B8474C45F5D100242646074DFC
:1015D0003146E0B2A8470134042CF9D1BDE8F883C4
:1015E000C120080074D10800A1180800691508007E
:1015F000C117080070B582B0064608460A4D0B4C6C
:101600002A4621460A4B98470A4B009300232A4654
:101610002146094CA047094B984781B23046084BF8
:10162000984702B070BD00BF00EC1F41000020C110
:10163000DD1D080000F07F45951D08007D8C080029
:101640006915080030B45D4B1C1FFC332146002295
:1016500041F8042F9942FBD1584B39221A645C227D
:101660005A6459229A645822DA6457221A6556221B
:101670005A6555229A656722DA6568221A660B2236
:101680009A660A22DA663B225A662C221A672D22B3
:101690005A6711229A671222DA6710221A601822FA
:1016A0005A6017229A601622DA6006221A61042212
:1016B0005A6103229A610222DA6131221A623222CD
:1016C0005A6233229A623422DA623A22C3F88020C4
:1016D0000E22C3F884200F22C3F888206022C3F8AA
:1016E0008C206122C3F890206222C3F894206322E8
:1016F000C3F898206622C3F89C206922C3F8A02072
:101700000722C3F8A4206A22C3F8A8204122C3F804
:10171000AC204222C3F8B0204322C3F8B4204422B4
:10172000C3F8B8204522C3F8BC204622C3F8C02025
:101730004722C3F8C4204822C3F8C8204922C3F86E
:10174000CC201322C3F8D0201422C3F8D420532273
:10175000C3F8D8205222C3F8DC205122C3F8E0207D
:101760005022C3F8E4204F22C3F8E8204E22C3F8E9
:10177000EC204D22C3F8F0204C22C3F8F4200125C0
:1017800054F8043F03F01F0205FA02F25B0903F567
:10179000001303F207735B021A605A61C3F8A020BA
:1017A0005A635A665A655A62C3F88020186F20EA55
:1017B00002021A678C42E3D130BC7047480D072003
:1017C0003F2817D80E4B53F82020530903F5001378
:1017D00003F207735B0201290DD021B902F01F004B
:1017E00001218140596102F01F02012101FA02F238
:1017F000C3F8A020704702F01F0081401961F2E792
:10180000480D07203F2800D97047174B53F8203068
:1018100003F01F00012282405B0903F5001303F26D
:1018200007735B0211F0080F14BF5A661A6611F0B5
:10183000200F14BF1A655A6511F0C00F14BF1A6249
:101840005A6211F0800F14BFC3F88420C3F88020BF
:1018500011F0010F04D1196F21EA02021A67D3E7D0
:10186000196F0A431A677047480D07203F2811D89F
:101870000A4B53F82020530903F5001303F20773B2
:101880005B0202F01F02012101FA02F2D96B0A4247
:1018900001D11A6370475A63704700BF480D072093
:1018A0003F280FD80B4B53F82020530903F50013A2
:1018B00003F207735B0231B902F01F02012101FA42
:1018C00002F25A63704702F01F02012101FA02F28C
:1018D0001A637047480D07203F2813D80A4B53F866
:1018E0002020530903F5001303F207735B02D96B41
:1018F00002F01F02012303FA02F20A4214BF184643
:101900000020704700207047480D07203F289ABFED
:10191000024B53F820000020704700BF480D0720FD
:10192000012846D838B5254B03EB4013DB680BB1D3
:10193000012038BD0446214A4301D018D35803F092
:101940001F01012202FA01F15B0903F5001303F202
:1019500007735B025960436803F01F018A405B090B
:1019600003F5001303F207735B025A606420144B03
:10197000984700B3114B03EB44130A2199610F21DF
:101980005977186164225A6103221A770B4D194660
:1019900010310C4B0C48002C18BF18460B4B9847C5
:1019A00005EB4414E0600A4A0A490B4B98470120B2
:1019B00038BD00207047002038BD00BF4C0E072006
:1019C0000D3708000000094000C0084091270800BA
:1019D00000BD0105801A060069300800012801D900
:1019E000FF2070472DE9F04F83B040B1012802D0AD
:1019F0000025019506E01D251C23019302E01F250B
:101A00001E2301930021019F3846554EB0470821FF
:101A10003846544CA04700212846B04708212846A4
:101A2000A0475148514B98472846514B984768B9B1
:101A300000213846B04708213846A04700212846F3
:101A4000B04708212846A04702204EE00198484BA5
:101A5000984730B94FF0280ADFF80491DFF804B155
:101A600009E0002041E00198414B9847002850D1FF
:101A7000BAF1010A3CD000212846C8470021284677
:101A8000D84701212846C8477820384CA047002174
:101A90002846C84708212846D8477820A047354A15
:101AA0001378013313702846314B98470028DAD158
:101AB0001424DFF8B4802D4F2D4E4046B8472846F9
:101AC000B0470028CFD1013CF7D10021019C20462E
:101AD000234EB04708212046224CA047002128462B
:101AE000B04708212846A047042003B0BDE8F08F86
:101AF0000021019C20461A4EB04708212046194C6F
:101B0000A04700212846B04708212846A0470320C7
:101B1000EBE70021DDF804804046114CA04700218E
:101B20004046104EB04701214046A04778200F4F55
:101B3000B84700214046A04708214046B0477820DA
:101B4000B84700214046A04708214046B047002141
:101B50002846A04708212846B0470120C5E700BF16
:101B6000C117080005180800C02709000100072058
:101B7000D9180800480E07202DE9F041164B1C78B3
:101B800014B12046BDE8F0810020144CA04701208C
:101B9000A047134D402200212846124B98471F2092
:101BA000114EB04768601E20B04728600027EF60E4
:101BB0003846DFF83880C04704461D20B0476862C9
:101BC0001C20B0472862EF620120C047002808BFF0
:101BD0000446014B1C70D4E7490E0720DD190800AC
:101BE0004C0E0720C99608000D190800211908009D
:101BF00070B108B5006800F01F03400900F500103F
:101C000000F20770012199404002024B984708BD3D
:101C1000704700BF8D65080070B108B5006800F01E
:101C20001F03400900F5001000F2077001219940E0
:101C30004002024B984708BD704700BF91650800FD
:101C40002DE9F04F83B001F01F040125A5404C0998
:101C500004F5001404F20774640225606561C4F899
:101C6000A050656665656562C4F88050266F26EAF7
:101C7000050626671E4EB44211D009D91D4B9C4261
:101C800031D003F500739C4230D10E26B04608E0F7
:101C9000A6F500739C4229D10B26B04601E00C2624
:101CA000B04691468A4683464046134B98470420E7
:101CB000124B98470746C0F800A0114B9847CDF843
:101CC00000B04B462A46414620460E4CA0470E4ADD
:101CD0009319F02183F800130123B34013603846B1
:101CE00003B0BDE8F08F0D26B046DAE70027F6E72F
:101CF00000100E4000120E400169080029900800F3
:101D0000191C08005967080000E100E038B50446D6
:101D100015460846044B98472A4601462046034B81
:101D20009847034B984738BD0D190800411C08001F
:101D3000F11B08002DE9F843094C04F104094FF0A8
:101D40000108084F084E14F8015B41462846B84781
:101D500000212846B0474C45F5D1BDE8F88300BFC7
:101D600078D10800C1170800A1180800F8B5074687
:101D7000064D0024064E47FA04F101F0010115F862
:101D8000010BB0470134042CF5D1F8BD78D108001F
:101D9000A11808002DE9F041884617461D460B4C56
:101DA000A047064629460698A04701463046084BFC
:101DB0009847064641463846A04701463046054BFF
:101DC00098472946044B9847BDE8F081DD86080016
:101DD000F1880800598A0800E186080070B50546B8
:101DE0000C461646064B984730B931462846054BF7
:101DF000984718B9284670BD204670BD304670BD62
:101E00002D8C0800698C08002DE9F8431A4E751EC8
:101E100007364FF00009DFF86C80012715F8014FF5
:101E200049462046C04704F01F0207FA02F2630940
:101E300003F5001303F207735B025A665A655A6290
:101E4000C3F88020196F21EA02021A67AE42E5D179
:101E50000A4E741E07364FF00109DFF82880084F3C
:101E600014F8015F49462846C04700212846B84774
:101E7000B442F5D1BDE8F8837CD1080084D10800D4
:101E8000A1180800C1170800072801D900207047D1
:101E900008B5024B185C024B984708BD7CD108007E
:101EA000D9180800072800D9704708B5024B185CFC
:101EB000024B984708BD00BF84D10800A118080054
:101EC000012800D9704708B50021024B185C024B6D
:101ED000984708BD8CD10800A1180800012800D936
:101EE000704708B50121024B185C024B984708BDAA
:101EF0008CD10800A1180800012800D970470129D9
:101F0000FCD870B51546044600290CBF88269026DB
:101F1000054B98473046054EB0472846B047204607
:101F2000034B984770BD00BFC11E08004121080047
:101F3000DD1E080030B583B0FF238DF8073001287F
:101F400003D99DF8070003B030BD0129F9D8044634
:101F500000290CBF48255025064B98472846064BBC
:101F600098470DF10700054B98472046044B9847CA
:101F7000E7E700BFC11E08004121080095210800C5
:101F8000DD1E0800F0B583B000238DF8073001286E
:101F900003D90025284603B0F0BD06460B4B9847F1
:101FA00060200B4B9847042400250A4F0DF10700D1
:101FB000B8479DF8073043EA0525631E13F0FF0478
:101FC000F4D13046044B9847E4E700BFC11E080037
:101FD0004121080095210800DD1E080010B50446C7
:101FE0000121054B984740F00402D2B2012120465E
:101FF000024B984710BD00BF351F0800F91E0800AE
:1020000010B504460121044B984700F0FB02012162
:102010002046024B984710BD351F0800F91E0800E6
:10202000012800D9704738B50D460446044B98473F
:102030002846044B98472046034B984738BD00BFBD
:10204000C11E080041210800DD1E080008B520213E
:10205000014B984708BD00BF2120080070B5124B06
:10206000984701213920114DA84701213920104CF2
:10207000A04701213B20A84701213B20A047A122E6
:10208000002108460B4EB04700200B4DA84700200A
:102090000A4CA047A12200210120B0470120A847F7
:1020A0000120A04770BD00BFC1200800C117080073
:1020B000A1180800F91E0800DD1F08004D200800C7
:1020C0000B4B1B7803B1704730B583B0094C2046E9
:1020D000094B984700220092084B09492046094DB8
:1020E000A84701232360024A137003B030BD00BF2C
:1020F0008C0E0720008000408D03080000093D0081
:10210000900E0720E1030800024B1869C0F340203D
:10211000704700BF0080004038B50A4601460548B8
:10212000054B98470546054CA0470028FCD028469B
:1021300038BD00BF0080004061040800092108008C
:1021400000B583B002AB03F8010D01211846024B24
:10215000984703B05DF804FB1921080000B583B06F
:10216000030A8DF804308DF80500022101A8024B06
:10217000984703B05DF804FB1921080008B50A462A
:1021800001460248024B984708BD00BF008000404E
:102190009504080010B582B0044602A8FF2300F899
:1021A000013D0121034B98479DF80730237002B091
:1021B00010BD00BF7D21080008B501211920034B87
:1021C000984700211920024B984708BDC117080005
:1021D000A118080008B51920014B984708BD00BF99
:1021E0006D1808002DE9F843094C04F104094FF07B
:1021F0000008084F084E14F8015B41462846B847CE
:1022000008212846B0474C45F5D1BDE8F88300BF0A
:1022100090D10800C117080005180800032801D94B
:102220000020704708B5044B185C044B984780F0B9
:102230000100C0B208BD00BF90D10800D918080045
:1022400008B5014B984708BD9D4D080010B40C46D9
:1022500069B103689A420CD00346002001308442E1
:1022600003D053F8101F9142F8D110BC70470846B4
:10227000FBE70020F9E7002A10DD0B7883420FD03E
:102280004B1C11448B420FD010B413F8014B844205
:1022900008D08B42F9D1002010BC70470020704755
:1022A000012070470120F7E700207047F8B5064687
:1022B0000C46154610F0010F1DD116F0040F37D152
:1022C0000023236016F0080F56D0002D54D00322AF
:1022D000002101202A4B98472860002843D0002382
:1022E0001A461946274CA047286800283BD00021F1
:1022F000254B9847F8BD032200210120204B984729
:10230000606060B100231A4619461E4FB8476068E6
:1023100028B100231A4619461A4FB847CDE74FF0A7
:10232000A00383F31188BFF36F8FBFF34F8FFEE7D6
:10233000032200210120124B9847206050B1002356
:102340001A4619460F4FB847206818B100210E4BA6
:102350009847B7E74FF0A00383F31188BFF36F8F5F
:10236000BFF34F8FFEE74FF0A00383F31188BFF355
:102370006F8FBFF34F8FFEE700232B60F8BD00BFC8
:10238000B93B0800553C0800F54008000F2908D962
:102390004FF0A00383F31188BFF36F8FBFF34F8F0C
:1023A000FEE7092908D84FF0A00383F31188BFF393
:1023B0006F8FBFF34F8FFEE7002813DB30B4450962
:1023C00000F01F0301229A400A4C05F1600344F813
:1023D00023200B01DBB2204480F8003344F8252091
:1023E00030BC704700F00F000B01DBB2024A1354FF
:1023F000704700BF00E100E014ED00E02DE9F0417E
:10240000064690461F4685698D421FD08D4232BFD9
:102410004C1B4468641BBC4207D31ED000231A46E1
:1024200019463069114CA0473C462246B1694046E6
:102430000F4B9847254473689D4210D20D4B984727
:10244000B5610D4B98472046BDE8F081C36813B9CC
:102450004468641BDFE70024DDE73C46E5E7054B05
:1024600098473368B361044B9847ECE7553C080044
:10247000DD95080075340800B93408004368BBB125
:1024800030B583B00D46044668460C4B9847296822
:1024900060680B4B984768B129466846094B9847D6
:1024A000012802D0002003B030BD00202860FAE7E8
:1024B000002070476FF00200F5E700BFD55108001B
:1024C000F54008002D520800F0B583B00F461646BF
:1024D0001C46089B9DF82450B3B1036000211846A8
:1024E000134B98470097019695B902212046114B4E
:1024F00098470022694620460F4B98470121204605
:102500000E4B984703B0F0BD0368002BEAD0E5E717
:102510004FF400712046074B984700226946204639
:10252000074B98474FF480712046044B9847E9E7E2
:10253000F54008004563080021630800396308007E
:102540000963080009B100207047006848B108B568
:102550001146054B984701280CBF00206FF0020080
:1025600008BD0020704700BFF54008002DE9F0418C
:1025700082B007460023019303017B4AD5582846C1
:102580007A4B984706462846794B9847064016F4FA
:10259000005F35D14FF0000816F4805F7CD116F44F
:1025A000507F02D1B8F1000F1DD06F4B03EB071322
:1025B00040F2022158686F4B984716F4807F04BFA1
:1025C00002232B604FF4005128466B4CA0474FF478
:1025D00080512846A047694B03EBC707786810B1C4
:1025E00001A9674B9847019B3BB14FF08052654B67
:1025F0001A60BFF34F8FBFF36F8F02B0BDE8F08159
:10260000594B03EB07134FF400715868594B984727
:102610004FF400512846584B984700242B6A13F07A
:10262000040F06D10134B4F1FF3FF7D14FF0010898
:1026300001E04FF0000802232B60534B03EBC7026D
:1026400053F837305268134413F8013C6B632B6A1C
:1026500013F0010F0CD10134B4F1FF3FF7D1474B18
:1026600003EBC703586800287AD04FF0010804E054
:10267000424B03EBC703586810B101A9404B984780
:10268000B4F1FF3F88D03D4B53F83700002883D08A
:1026900001A93B4B98477FE7334B03EB071302211C
:1026A0005868344B98474FF480512846324B98472E
:1026B00000242B6A13F0020F03D10134B4F1FF3F61
:1026C000F7D102232B60304B53F8372003EBC703BD
:1026D0005968286B531803F8020C2B6A13F0020F89
:1026E0001BD10134B4F1FF3FF7D1244B03EBC703F7
:1026F000586800283FF453AF01A9214B9847B4F123
:10270000FF3F3FF44CAF214B53F8370000283FF414
:1027100046AF01A91A4B984741E7B4F1FF3F0ED0ED
:102720002B6B0A4402F8013C00242B6A13F0010FC2
:102730000FD10134B4F1FF3FF7D14FF001080F4B37
:1027400003EBC703586800283FF429AF4FF0FF346C
:10275000D2E70A4B03EBC70358680028CCD1CEE779
:102760004FF0010818E700BF94D108002B31080092
:102770002F3108004563080025310800B40E0720FA
:102780007D3E080004ED00E0A40E0720940E072013
:102790002DE9F04F83B004460D4602AF032307F83E
:1027A000043D024602213548354B98470646012232
:1027B0003946287B334B9847012E59DC00285BD0E3
:1027C0004FEAC609304B03EB090808222F4940465F
:1027D0002F4B984740B14FF0A00383F31188BFF30C
:1027E0006F8FBFF34F8FFEE72A4B9944082227498A
:1027F0004846274B984740B14FF0A00383F3118818
:10280000BFF36F8FBFF34F8FFEE7DFF870A0370184
:102810000AEB070BDBF808001F4B984740F2022138
:10282000DBF804001D4B98475AF807704FF0FF3152
:1028300038461B4B984738461A4B98472B7B032B3F
:1028400002D13846184B98474A464146687B174B99
:1028500098474FF450713846154B9847074B03EB98
:102860000616A96896F90C00124B9847204600E01E
:10287000002003B0BDE8F08F0020FAE794D10800F3
:102880004D22080077220800B40E0720B4D10800BA
:102890007D950800940E0720016908004563080033
:1028A00025310800333108005B300800AD220800F4
:1028B000213108008D23080008B50020014B9847FE
:1028C00008BD00BF6D25080008B50120014B9847E1
:1028D00008BD00BF6D25080070B5C0EBC002304BCD
:1028E00003EB82039A699B689A4214D151B9C0EBF9
:1028F000C0012B4A02EB81020021D1605268934251
:102900001CD82EE0C0EBC001254A02EB81025168C1
:10291000C91AD16008E09A4219D9C0EBC004204915
:1029200001EB8401D21ACA60C0EBC0011C4A02EB61
:102930008102D1680B445268934211D94FF0A00331
:1029400083F31188BFF36F8FBFF34F8FFEE7C0EBA8
:10295000C001134A02EB81025168C91AD160E3E752
:1029600031B9000109210F4B18580F4B984770BD22
:102970000C4D04012B195E68C0EBC000084901EB47
:102980008001002208313046084B9847012130462B
:10299000074B984709212859064B984770BD00BF3F
:1029A000C40E0720BCD10800A763080021630800FB
:1029B00039630800A36308002DE9F04782B005469B
:1029C000884616464FF0010902AF07F8049D0246FB
:1029D00049465948594B984704464A463946307B40
:1029E000574B9847002C00F3A380002800F0A280EA
:1029F000C4EBC402534B03EB82039B6943B14FF01A
:102A0000A00383F31188BFF36F8FBFF34F8FFEE7EF
:102A100028464D4B984728464C4B9847464F07EB66
:102A20000417D7F8049040F202214846484B9847D3
:102A3000B868484B9847337B012B03D14146284661
:102A4000454B98474FF0FF312846444B98470022AA
:102A5000434901EBC401707B424B98473368002B1C
:102A60005ED000214FF0FF303F4B9847C4EBC402CB
:102A7000344B03EB8203186140B94FF0A00383F39A
:102A80001188BFF36F8FBFF34F8FFEE7DFF8B4A05D
:102A9000C4EBC4084FEA88080AEB08073368BB6038
:102AA0007368FB6039460022083148462F4B98472F
:102AB0003368BB61BA684AF80820736813447B60C6
:102AC000737B13F0020F0DD00120294B98477861DA
:102AD00040B94FF0A00383F31188BFF36F8FBFF3AA
:102AE0004F8FFEE709212846224B9847012148468F
:102AF000214B9847104F24013B19B16893F90C0002
:102B00001E4B9847E02138591A4B984728461C4BD2
:102B1000984728461B4B9847284602B0BDE8F087E7
:102B2000C4EBC402074B03EB820301229A61E1E785
:102B30000020F2E70020F0E7BCD108004D22080099
:102B400077220800C40E0720916308009D630800E7
:102B5000456308000169080055630800A763080081
:102B6000E00E0720AD220800213C08002163080088
:102B7000513E0800A3630800396308008D23080054
:102B80008B630800976308002DE9F04184B0054687
:102B90000E4617460393024601211748174B9847E4
:102BA000B0F1000825DC164C04EBC80403A920464C
:102BB000144B9847034618B1184604B0BDE8F0819D
:102BC0000D4B03EB0818D8F80430012201920A9A41
:102BD00000923A46314620460B4EB0471021284617
:102BE0000A4B9847039A0A992046094B984703468F
:102BF000E2E76FF00703DFE7BCD108004D220800D1
:102C0000E00E07207D240800C9240800A363080003
:102C1000452508002DE9F04F87B08B469046039379
:102C2000024601214B484C4B9847C0EBC0024B4B2E
:102C300003EB82039B694BB10446012B0FD00028A4
:102C400016DD0025284607B0BDE8F08F4FF0A00341
:102C500083F31188BFF36F8FBFF34F8FFEE74FF001
:102C6000A00383F31188BFF36F8FBFF34F8FFEE78D
:102C70003A49C0EBC0039B00CA185268CB58D31A1C
:102C8000434551D304A8364B9847C4EBC402334B99
:102C900003EB82035869002848D00399314B9847C9
:102CA000012810D103A904A82F4B984701283DD132
:102CB000C4EBC404294800EB840000231A461946DB
:102CC00040692A4CA0470025BCE701210298284B07
:102CD000984718E0A84519D903A904A8224B98479A
:102CE000A0B903993069D0477B681968A8EB050340
:102CF0000BEB05020198C8472D18EBD01D4B9847E8
:102D0000F368002BE1D01C4B9847E3E7C4EBC40405
:102D1000124B03EB84035869002893D000231A4612
:102D20001946124CA0478DE700258BE70294C4EBAF
:102D3000C4030A4A02EB830301930025C4EBC403D6
:102D400002EB8306DFF81CA0024F07EB0417DFF845
:102D50002C90C6E7BCD108004D220800C40E072005
:102D6000D5510800F54008002D520800553C0800D8
:102D7000D928080075340800B9340800FD2308007C
:102D800030B583B000230193394D2846394B98471D
:102D900004462846384B9847044014F0100F32D1AF
:102DA00014F0080F1BD0354B9B69002B3DD0012B35
:102DB00044D0324A9368D1680B449360526893427E
:102DC00002D32E4B1A689A60002108462C4B984774
:102DD0002A4B186900283AD001A92A4B9847002CA1
:102DE00037D1264B186910B101A9264B9847019B92
:102DF0003BB14FF08052244B1A60BFF34F8FBFF3AB
:102E00006F8F03B030BD10212846204B9847204BD0
:102E1000586810B101A91B4B98471D4B1868002832
:102E2000BED001A9174B9847BAE74FF0A00383F330
:102E30001188BFF36F8FBFF34F8FFEE74FF0A003F2
:102E400083F31188BFF36F8FBFF34F8FFEE7002C22
:102E5000CDD014F0E00FCAD005480E4B98470C4B6C
:102E600058680028C3D001A9064B9847BFE700BFA8
:102E700000080E40AF630800AB630800C40E0720D3
:102E8000D92808007D3E080004ED00E0A763080093
:102E9000E00E0720B363080030B40124046000246E
:102EA000446040F20225C0F82051C0F80441C0F847
:102EB000144145685200B1FBF2F2013A120292B29B
:102EC0002B431A434260204630BC7047436823F0CE
:102ED0001003436043681943416070474368D2015F
:102EE000D2B219430A434260704710B444680906DD
:102EF00001F0706121430A43190701F04051114369
:102F0000416010BC7047022303607047012303FA3D
:102F100001F1016170470F299ABF503050F821002C
:102F200000207047006B704708B5044B984200D0F2
:102F300008BD1820024B9847FAE700BF0080004008
:102F400001690800436823F470234360436809045F
:102F500001F47021194341607047436823F07F43B7
:102F60004360436843EA01614160704732B900EB56
:102F70008100036B23F001030363704700EB8100C2
:102F8000036B43F001030363704732B900EB810028
:102F9000036B23F002030363704700EB8100036BB4
:102FA00043F0020303637047042A03D06AB1082A7E
:102FB00016D0704700EB8100036B23F00803036316
:102FC000036B43F004030363704700EB8100036B62
:102FD00023F008030363036B23F0040303637047C8
:102FE00000EB8100036B43F008030363E1E700EBB0
:102FF00081010B6B23F0F0030B630B6B1A430A6325
:103000007047431E1944B1FBF0F0431EFE2B94BFE2
:1030100000B24FF0FF30704772B110B4144600EBAD
:1030200081010B6B23F47F430B630A6B42EA04229A
:103030000A63002010BC70474FF0FF30704710B497
:1030400000EB8101086B80B208630C6B44EA0363F8
:1030500043EA02430B6310BC70470823036020233C
:1030600003600423036070472A4B994249D8A3F5B3
:103070007A5399422BD910B4274CA4FB0234A40BE9
:10308000043C264B0B449B00B2FBF3F2043AFF2CAA
:1030900039D9002101316408FF2C0DD90729F9D154
:1030A00013029BB2090401F4E0210B43E4B2234371
:1030B0000361002010BC7047FF2AF1D90629EFD820
:1030C00001315208FF2AEBD90629F9D9E8E749006E
:1030D000B2FBF1F2043AFF2A11D90023013352085E
:1030E000FF2A01D9072BF9D1110289B21B0403F47D
:1030F000E0230B43D2B21A43026100207047002341
:10310000F2E701207047FF2A88BF0021D8D80021AC
:10311000C6E700BF801A0600F11976050012FD3FD0
:10312000416270478162036A7047006A7047C06AF3
:10313000704780230360036B7047000010B51C20AC
:10314000054B9847044620B1002340F8043B034B4D
:103150009847204610BD00BF0D37080055330800C2
:103160002DE9F843DDF8209060B1064611F07F4F5D
:1031700011D04FF0A00383F31188BFF36F8FBFF31B
:103180004F8FFEE74FF0A00383F31188BFF36F8FDB
:10319000BFF34F8FFEE741B94FF0A00383F31188CF
:1031A000BFF36F8FBFF34F8FFEE7984617460C466D
:1031B000334B984758B9B9F1000F08D04FF0A0032E
:1031C00083F31188BFF36F8FBFF34F8FFEE72D4B53
:1031D00098473568B8F1000F0DD12C4214BF012378
:1031E000002373B117B125EA04043460264B9847D5
:1031F0002846BDE8F88334EA05030CBF0123002309
:10320000EFE7B9F1000FF1D0002F0CBF00214FF014
:103210008071B8F1000F01D041F080614A4621432E
:10322000301D1A4B9847184B984738B94FF08052C9
:10323000174B1A60BFF34F8FBFF36F8F154B984733
:10324000054610F0007F10D1134B98473568B8F150
:10325000000F0ED12C4214BF012300231BB117B164
:1032600025EA040434600D4B984725F07F40BDE803
:10327000F88334EA05030CBF01230023EEE700BF07
:103280008D5408001D4A0800014C08002D4F08000D
:1032900004ED00E0A158080075340800B9340800B6
:1032A00070B12DE9F041044611F07F4F11D04FF07D
:1032B000A00383F31188BFF36F8FBFF34F8FFEE737
:1032C0004FF0A00383F31188BFF36F8FBFF34F8FCD
:1032D000FEE70D4600F10C061B4B9847206923685A
:1032E0002B432360864224D00025DFF8648009E068
:1032F000216833EA01010CBF012100210EE03846AC
:10330000BE4217D04768026822F07F4312F0806FF8
:10331000EED121680B4214BF012100210029EED01B
:1033200012F0807F18BF1D43216841F00071C04733
:10333000E5E70025236823EA05032360034B98474C
:103340002068BDE8F08100BF1D4A0800014C08005C
:10335000F150080000F1080343604FF0FF32826033
:10336000C36003610023036070470023036170475B
:1033700030B40D68B5F1FF3F02D000F1080202E061
:10338000026904E01A4653681C68A542FAD25368E1
:103390004B6099608A605160086103680133036083
:1033A00030BC7047036942688168916082684168F7
:1033B00051605A68904204BF82685A6000220261DC
:1033C0001A68013A1A6018687047000082B000233A
:1033D00001930D4B1B68B3F1FF3F08D04FF0A003E2
:1033E00083F31188BFF36F8FBFF34F8FFEE74FF06A
:1033F000A00383F31188BFF36F8FBFF34F8F019B3F
:10340000002BFCD002B0704740010720064800683E
:10341000006880F3088862B661B6BFF34F8FBFF3D0
:103420006F8F00DF00BF000008ED00E04FF08073F9
:1034300040F8043C21F0010140F8081C034B40F81F
:103440000C3C40F8202C4038704700BFCD330800BA
:10345000074B19680868B0E8F00F80F30988BFF3DC
:103460006F8F4FF0000080F311884EF00D0E704703
:1034700010AF07204FF0A00383F31188BFF36F8FC5
:10348000BFF34F8F0A4A136801331360012B0DD12C
:10349000084B1B6813F0FF0F08D04FF0A00383F315
:1034A0001188BFF36F8FBFF34F8FFEE7704700BFE8
:1034B0004001072004ED00E0094B1B6843B94FF0C1
:1034C000A00383F31188BFF36F8FBFF34F8FFEE725
:1034D000013B034A13600BB983F31188704700BFA7
:1034E0004001072000000000000000000000000074
:1034F000EFF30980BFF36F8F0D4B1A6820E9F00FCF
:1035000010602DE908404FF0A00080F3118801F011
:1035100071FC4FF0000080F31188BDE80840196885
:103520000868B0E8F00F80F30988BFF36F8F704729
:1035300010AF072008B54FF0A00383F31188BFF345
:103540006F8FBFF34F8F054B984718B14FF08052E4
:10355000034B1A60002383F3118808BD4D4A08000D
:1035600004ED00E0054B00221A6005490A60054998
:10357000054A116007221A60704700BF10E000E0A2
:1035800018E000E01F48010014E000E010B582B030
:10359000294B1A78D2B20192FF221A701B78DBB243
:1035A0008DF803309DF8033003F0A003234A137015
:1035B0000722234B1A609DF8033013F0800F12D0BE
:1035C000062300E00B469DF803205200D2B28DF88E
:1035D00003209DF80320591E12F0800FF2D1184AE3
:1035E0001360032B08D04FF0A00383F31188BFF3BF
:1035F0006F8FBFF34F8FFEE71B0203F4E063104AA7
:103600001360019BDBB20C4A13700E4B1A6842F434
:1036100070021A601A6842F070421A600A4B9847AA
:1036200000240A4B1C600A4B98470A4B98470A4BE8
:103630009847204602B010BD00E400E0E80E0720E5
:10364000EC0E072020ED00E0653508004001072062
:103650000D340800F54D0800CD330800EFF3058365
:103660000F2B0FD9104A9B5CDBB2104A12789A429A
:1036700008D94FF0A00383F31188BFF36F8FBFF316
:103680004F8FFEE70A4B1B6803F4E063094A126898
:10369000934208D94FF0A00383F31188BFF36F8FD3
:1036A000BFF34F8FFEE77047F0E300E0E80E07201E
:1036B0000CED00E0EC0E072010B4124B1A688242A9
:1036C0001AD35C681919884203D1416821445960B2
:1036D000184641684418A24212D10B4C2468A242F9
:1036E0000CD052680A4442601A681268026098421C
:1036F00018BF186010BC70471346DFE70260F6E79A
:103700000260F4E708AF0720F00E0720F8B5044682
:103710004C4B98474C4B1B68F3B14C4B1E682642F0
:1037200040F08680002C00F0868004F108039C4263
:1037300080F0818013F0070F05D023F007020832D4
:10374000934278D21346002B72D0414A1768BB428D
:103750006ED8404A146827E03F4A12F0070F1ED087
:10376000D11D21F0070102F520435B1A0A463948B2
:103770000260002141601344083B23F007033248F4
:10378000036059601960991A51601360334B1960D6
:103790002F4B19604FF000422C4B1A60BDE74FF4DD
:1037A0002043E4E722460C4661688B4202D9216837
:1037B0000029F7D1244909688C4239D0156821685D
:1037C00011606268D21A102A10D9E01810F0070FA1
:1037D00008D04FF0A00383F31188BFF36F8FBFF3BE
:1037E0004F8FFEE7426063601D4B98476268BF1AC7
:1037F00017490F60194909688F423CBF17490F608C
:1038000008351643666000232360164A13680133A7
:103810001360154B984785B115F0070F10D04FF086
:10382000A00383F31188BFF36F8FBFF34F8FFEE7C1
:103830000D4B984701E00C4B98470C4B98470025DF
:103840002846F8BD1D4A0800F00E0720F4AE0720F8
:10385000F8AE072008AF0720F40E0720FCAE0720C3
:10386000B936080000AF0720014C0800A95F080026
:10387000002833D010B5044650F8043C184A1268AA
:10388000134208D14FF0A00383F31188BFF36F8F69
:10389000BFF34F8FFEE750F8081C41B14FF0A00373
:1038A00083F31188BFF36F8FBFF34F8FFEE723EAD7
:1038B000020340F8043C0B4B98470B4A54F8043C75
:1038C00011680B441360A4F10800084B9847084A9C
:1038D000136801331360074B984710BD704700BF52
:1038E000F4AE07201D4A0800F8AE0720B9360800DC
:1038F00004AF0720014C080010B50446044B98475C
:10390000A46B044B9847B4FA84F0400910BD00BF83
:1039100075340800B934080070B504461646856B46
:10392000026C52B90368002B2AD18068184B984763
:103930000023A3600135A56370BD6EB94068154BC7
:1039400098476368226C13446360A268934219D35A
:10395000236863600020EDE7C0680E4B9847236C36
:103960005B42E2681A44E26021688A4202D2A2689D
:103970001344E360022E07D145B1013D0020D9E791
:103980000020D7E70020D5E70020D3E70020D1E7CB
:1039900075550800DD95080070B582B00190846C03
:1039A00064B1A26BE36B9A4211D34FF0A00383F38F
:1039B0001188BFF36F8FBFF34F8FFEE74FF0A00367
:1039C00083F31188BFF36F8FBFF34F8FFEE7A26BB6
:1039D000934203D80026304602B070BD94F845509B
:1039E0006DB2002201A92046104B98470646B5F15A
:1039F000FF3F0AD1636A002BEDD004F124000C4B89
:103A00009847002818BF0126E5E77F2D08D14FF021
:103A1000A00383F31188BFF36F8FBFF34F8FFEE7CF
:103A20006B1C5BB284F84530D5E700BF193908003C
:103A3000FD4F0800026C72B110B50346C46814440F
:103A4000C4608068844224BF1868D8600846D9687A
:103A5000014B984710BD7047DD9508002DE9F041F6
:103A60000546234B984795F8454064B2002C18DD75
:103A7000204EDFF88C80204F08E06B6A8BB105F197
:103A80002400B84758B9013C64B254B1AB6C002B68
:103A9000F3D02846B0470028F5D0C047F3E7C04729
:103AA000F1E7FF2385F84530144B9847104B9847B2
:103AB00095F8444064B2002C12DD2B6983B105F106
:103AC00010070D4EDFF8388004E0013C64B23CB1D1
:103AD0002B692BB13846B0470028F6D0C047F4E731
:103AE000FF2385F84430054B9847BDE8F08100BFBF
:103AF0007534080099390800FD4F0800B9340800F2
:103B0000BD52080038B590B10446C26B32B14FF0D7
:103B1000FF33B3FBF2F3026C934211D24FF0A003D8
:103B200083F31188BFF36F8FBFF34F8FFEE74FF022
:103B3000A00383F31188BFF36F8FBFF34F8FFEE7AE
:103B40000D46184B98472268216CE36B03FB01F389
:103B5000D018A0600020A06362605B1A1344E36089
:103B6000FF2384F8443084F8453095B9236963B164
:103B700004F110000C4B984738B14FF080520B4BBA
:103B80001A60BFF34F8FBFF36F8F094B9847012027
:103B900038BD04F11000074DA84704F12400A847E0
:103BA000F3E700BF75340800FD4F080004ED00E0A6
:103BB000B934080055330800F8B518B306464FF07D
:103BC000FF30B0FBF6F088421CD301FB06F010F189
:103BD000550F17D817460D4654300F4B98470446DB
:103BE00070B100F15403002D08BF03460360C663A3
:103BF00005640121094B984784F850700023A364A1
:103C00002046F8BD4FF0A00383F31188BFF36F8FF8
:103C1000BFF34F8FFEE700BF0D370800053B0800DC
:103C200008B1884208D24FF0A00383F31188BFF394
:103C30006F8FBFF34F8FFEE710B50C4602220021B5
:103C4000034B9847034600B18463184610BD00BF7C
:103C5000B93B08002DE9F04F85B0019298B10446B8
:103C6000D1B1022B24D01E460F466C4B984758BB4F
:103C7000019B8BB34FF0A00383F31188BFF36F8FC9
:103C8000BFF34F8FFEE74FF0A00383F31188BFF31C
:103C90006F8FBFF34F8FFEE7026C002AE1D04FF029
:103CA000A00383F31188BFF36F8FBFF34F8FFEE73D
:103CB000E26B012AD7D04FF0A00383F31188BFF342
:103CC0006F8FBFF34F8FFEE70025DFF87C81DFF8B1
:103CD0007CA1DFF8549135E00025F6E7A56B32466C
:103CE000394620464E4B9847A36C002B00F083804A
:103CF000022E00D15DB920464A4B984738B14FF0AB
:103D00008052494B1A60BFF34F8FBFF36F8F474B01
:103D10009847012005B0BDE8F08F0028F7D04FF09C
:103D20008052414B1A60BFF34F8FBFF36F8FEEE7A6
:103D30003E4B98470020EDE720463D4B98473D4BD2
:103D400098470125C047A26BE36B9A42C6D3022E67
:103D500047D0019B002BEBD00DB902A8D047334BC5
:103D60009847354B9847C04794F844305BB2B3F15D
:103D7000FF3F04BF002384F8443094F845305BB221
:103D8000B3F1FF3F04BF002384F84530274B984729
:103D900001A902A8294B9847E0B9C047D4F838B028
:103DA000E56B224B9847AB45C6D1019904F1100051
:103DB000234B984720461E4B98471E4B9847002898
:103DC000BFD14FF08053C9F80030BFF34F8FBFF31E
:103DD0006F8FB6E72046164B9847164B9847002042
:103DE00098E7A56B0222394620460D4B9847A36CF5
:103DF000002B7FF47FAF636A002B8ED004F1240088
:103E0000104B9847002882D04FF08052064B1A6022
:103E1000BFF34F8FBFF36F8F79E700BF8D5408005A
:103E2000193908009939080004ED00E0B934080098
:103E30005D3A0800014C08001D4A08002D52080098
:103E4000F54E0800FD4F08007534080015520800B3
:103E500038B5024600210120064B9847044638B188
:103E6000002181600160C1600B460A46024DA847EF
:103E7000204638BDB93B0800553C080060B170B51C
:103E80000446036C8BB14FF0A00383F31188BFF39A
:103E90006F8FBFF34F8FFEE74FF0A00383F31188BE
:103EA000BFF36F8FBFF34F8FFEE7036823B30E4658
:103EB0002B4B9847EFF311854FF0A00383F3118844
:103EC000BFF36F8FBFF34F8FA26BE36B9A423BD26E
:103ED00094F845305BB20132A263B3F1FF3F22D1C7
:103EE000A36CABB120461F4B984778B386B3012033
:103EF000306085F3118870BD8368002BD7D04FF0F8
:103F0000A00383F31188BFF36F8FBFF34F8FFEE7DA
:103F1000636AFBB104F12400134B9847E0B1EEB1A2
:103F200001203060E5E77F2B08D14FF0A00383F339
:103F30001188BFF36F8FBFF34F8FFEE701335BB282
:103F400084F845300120D4E70020D2E70120D0E7F3
:103F50000120CEE70120CCE70120CAE70120C8E715
:103F60005D36080099390800FD4F08002DE9F0473B
:103F700084B0019280B10446B9B10E46504B9847C7
:103F8000F8B9019B2BB34FF0A00383F31188BFF363
:103F90006F8FBFF34F8FFEE74FF0A00383F31188BD
:103FA000BFF36F8FBFF34F8FFEE7036C002BE4D09E
:103FB0004FF0A00383F31188BFF36F8FBFF34F8FD0
:103FC000FEE70027DFF82481DFF824A1DFF8FC906A
:103FD00029E00027F6E7314620463A4B9847013D55
:103FE000A563236963B104F11000374B984738B1DA
:103FF0004FF08052354B1A60BFF34F8FBFF36F8F76
:10400000334B9847012004B0BDE8F087304B984708
:104010000020F8E702A8D0470EE020462D4B984735
:104020002D4B98470127C047A56B002DD3D1019B8D
:10403000002BEBD0002FEDD0254B9847274B98470E
:10404000C04794F844305BB2B3F1FF3F04BF002394
:1040500084F8443094F845305BB2B3F1FF3F04BFBD
:10406000002384F845301A4B984701A902A81C4B3D
:104070009847C8B920461B4B98470028CDD00199D6
:1040800004F12400184B98472046124B9847124BD6
:1040900098470028C6D14FF08053C9F80030BFF3CD
:1040A0004F8FBFF36F8FBDE720460A4B98470A4BEF
:1040B000984720460B4B98470028B3D00020A2E732
:1040C0008D540800353A0800FD4F080004ED00E06B
:1040D000B93408005D3A0800014C08001D4A080088
:1040E0002D520800F9380800F54E08007534080014
:1040F000155208002DE9F04385B0019158B10446EE
:10410000036C8BB14FF0A00383F31188BFF36F8F63
:10411000BFF34F8FFEE74FF0A00383F31188BFF387
:104120006F8FBFF34F8FFEE75B4B984750B9019BF2
:1041300083B14FF0A00383F31188BFF36F8FBFF3F8
:104140004F8FFEE700252F46544EDFF88491DFF8AD
:10415000588148E000252F46F6E7013BA36323681A
:1041600013B94F4B9847A060236963B104F1100065
:104170004C4B984738B14FF080524B4B1A60BFF30D
:104180004F8FBFF36F8F494B98470125284605B0E5
:10419000BDE8F08345B14FF0A00383F31188BFF36E
:1041A0006F8FBFF34F8FFEE7404B9847EEE702A8B3
:1041B000C84721E0B047A0683D4B984705463B4BB8
:1041C000984740E020463B4B98473B4B984709E0D7
:1041D0002046384B9847384B98472046374B9847EE
:1041E000002845D10127B047A36B002BB5D1019B17
:1041F000002BCFD0002FDAD02C4B9847304B98476C
:10420000B04794F844305BB2B3F1FF3F04BF0023E2
:1042100084F8443094F845305BB2B3F1FF3F04BFFB
:10422000002384F84530214B984701A902A8254B6B
:1042300098470028CCD12046204B98470028C1D071
:104240002368002BB6D0019904F124001E4B984737
:104250002046184B9847184B98470028C2D14FF07A
:104260008053C8F80030BFF34F8FBFF36F8FB9E7AB
:10427000002D8BD0094B9847636A53B1236B1968A3
:10428000C1F10501A068114B9847084B98470025DC
:104290007CE70021F6E700BF8D5408007534080064
:1042A000B9580800FD4F080004ED00E0B9340800DB
:1042B000AD5408005D3A0800014C0800F9380800C8
:1042C0001D4A08002D520800F54E08003D56080012
:1042D000155208002DE9F04385B0019280B10446E3
:1042E000B9B10D46504B9847F8B9019B23B34FF035
:1042F000A00383F31188BFF36F8FBFF34F8FFEE7E7
:104300004FF0A00383F31188BFF36F8FBFF34F8F7C
:10431000FEE7036C002BE4D04FF0A00383F3118879
:10432000BFF36F8FBFF34F8FFEE700263F4FDFF8DD
:104330002891DFF8048129E00026F7E7E66829469E
:1043400020463B4B9847E660636A63B104F1240062
:10435000384B984738B14FF08052374B1A60BFF353
:104360004F8FBFF36F8F354B9847012005B0BDE8E5
:10437000F083324B98470020F8E702A8C8470EE0C8
:1043800020462F4B98472F4B98470126B847A36BE1
:10439000002BD3D1019B002BEBD0002EEDD0274B6F
:1043A0009847294B9847B84794F844305BB2B3F12B
:1043B000FF3F04BF002384F8443094F845305BB2DB
:1043C000B3F1FF3F04BF002384F845301B4B9847EF
:1043D00001A902A81D4B9847C8B920461C4B984715
:1043E0000028CDD0019904F124001A4B98472046AB
:1043F000134B9847134B98470028C6D14FF0805372
:10440000C8F80030BFF34F8FBFF36F8FBDE7204672
:104410000B4B98470B4B984720460D4B984700286D
:10442000B3D00020A2E700BF8D5408007534080007
:10443000353A0800FD4F080004ED00E0B9340800EB
:104440005D3A0800014C08001D4A08002D52080082
:10445000F9380800F54E08001552080058B170B43C
:104460000446C1B1144B5B6898420DD0124800233A
:104470001A46064618E04FF0A00383F31188BFF3F5
:104480006F8FBFF34F8FFEE700220B4B03EBC2038E
:104490000BB119605C6070BC70470132082AF7D01C
:1044A00008304568AC42F0D0002BF6D156F83250B7
:1044B000002D08BF0346F0E784BA072070B5044614
:1044C0000D461646114B984794F844305BB2B3F151
:1044D000FF3F04BF002384F8443094F845305BB2BA
:1044E000B3F1FF3F04BF002384F84530084B9847E1
:1044F000A36B1BB12046074B984770BD3246294637
:1045000004F12400044B9847F4E700BF7534080019
:10451000B93408005D3A0800A14F0800074B1B683A
:104520001B6833B1054B1B68DB681A68044B1A60C3
:1045300070474FF0FF32024B1A60704714AF0720EC
:10454000C8AF072070B504460E46244B1D68244BA7
:1045500018680430234B984748B9214B1A68224900
:104560000B68D06A0122824023EA02030B60B4F197
:10457000FF3F13D02C441A4B1B685C60A54224D823
:104580001A4B1868164B19680431194B9847194B88
:104590001B689C423CBF174B1C6070BD002EE9D0CD
:1045A000154A51680E4B1868816018688C68C460A1
:1045B0008C681868043060601868043088601B6874
:1045C0005A6113680133136070BD0C4B1868044BBB
:1045D00019680431064B984770BD00BF14B007201E
:1045E00010AF0720A533080098AF072014AF0720AD
:1045F00071330800C8AF0720ECAF072018AF0720C1
:1046000080B5184DDFF87880DFF8789001E0164B20
:1046100098472B68C3B1154F154EC047FB68DC683F
:10462000201DB047134A1368013B13602B68013B00
:104630002B60114B9847206BDFF84CA0D0472046E9
:10464000D0472B68002BE8D10C4B1B68012BDED91F
:104650004FF08053C9F80030BFF34F8FBFF36F8F17
:10466000D5E700BF8CAF0720795F080000B00720B6
:10467000A533080088AF0720B93408001CAF072015
:104680007534080004ED00E07138080010B50446E8
:10469000094B98472046094B9847172808D82044CB
:1046A00004F11802202300F8013B9042FBD11820AE
:1046B00000232354204410BDED970800A99808005A
:1046C0002DE9F04F83B000900F4601930C9DDDF86B
:1046D00034A0960030466E4B984788B380466C20D5
:1046E0006B4B9847044640B3C0F830803246A52152
:1046F0004046684B9847D4F8309027B33B7884F80D
:1047000034303B785BB13B4604F1340218375978BA
:1047100002F8011F13F8011F09B1BB42F7D10023B2
:1047200084F84C30042D12D94FF0A00383F3118884
:10473000BFF36F8FBFF34F8FFEE74046564B98474E
:104740004FF0FF308FE0002384F83430EAE7E56271
:10475000A5650027E76504F104084046DFF884B149
:10476000D84704F11800D8472461C5F10505A561B3
:1047700064622766676684F86870043E4E44019A56
:10478000009926F00700454B98472060BAF1000FCA
:1047900001D0CAF80040424B9847424A136801339F
:1047A0001360414B1B68002B60D13F4B1C601368AA
:1047B000012B1FD13D4E30463D4DA84706F1140058
:1047C000A84706F12800A84706F13C00A84706F1D3
:1047D0005000A847374F3846A847374E3046A847BD
:1047E0003648A8473648A8473648A847364B1F6082
:1047F000364B1E60364A1368013313602365E36A43
:104800003449086801229A4002430A60274A03EBB0
:10481000830302EB83035B68A3609968E160996896
:10482000C1F80480C3F80880E06A83001918890081
:10483000551865615158013103449B00D150264BF6
:104840009847264B1B68F3B1174B1B68DA6AE36A7B
:104850009A421AD24FF08052214B1A60BFF34F8F09
:10486000BFF36F8F012003B0BDE8F08F1B4B1B68B7
:10487000002BBFD10C4B1B68DA6AE36A9A429CBFDB
:10488000094B1C60B6E70120EDE70120EBE700BF14
:104890000D370800C9960800713808002D3408004B
:1048A0007534080088AF072010AF07201CAF072021
:1048B000553308009CAF0720B0AF0720D4AF0720C6
:1048C00000B00720ECAF072014AF072018AF072077
:1048D00094AF072098AF0720B9340800E8AF07204D
:1048E00004ED00E06B330800F8B5E0B104461C4B62
:1048F0001B6898422AD01B4B984765691A4B1F6862
:104900001A4B1E681A4B9847BD4221D0B54221D0A0
:10491000184B9D4210D0184B9D421FD0002D0CBF4C
:1049200004200120F8BD4FF0A00383F31188BFF3EA
:104930006F8FBFF34F8FFEE7A36A6BB994F86830AF
:10494000DBB2012B0CBF02200320F8BD0020F8BD14
:104950000220F8BD0220F8BD0220F8BD0420F8BDF9
:1049600010AF07207534080014AF072018AF0720D8
:10497000B9340800ECAF072000B0072010B582B0B2
:104980001B4B0193002300934FF4967219491A4868
:104990001A4CA047012806D0B0F1FF3F1ED0184B9B
:1049A0001B6802B010BD174B98470128F4D14FF097
:1049B000A00383F31188BFF36F8FBFF34F8F4FF0C6
:1049C000FF32114B1A600122104B1A600022104B6B
:1049D0001A60104B9847104B9847E0E74FF0A00340
:1049E00083F31188BFF36F8FBFF34F8FFEE700BFD4
:1049F000C4AF0720F4D1080001460800C1460800F2
:104A0000440107202D5C0800C8AF0720E8AF07204D
:104A100014B00720996208008D350800024A136817
:104A200001331360704700BF90AF0720014B186837
:104A3000704700BF14B0072008B5024B9847024BDF
:104A4000186808BD5D36080014B007202DE9F84F3E
:104A50005F4B1B68002B40F0B3805E4B1C68013439
:104A60001C60C4B95C4B1B681B6843B14FF0A003CA
:104A700083F31188BFF36F8FBFF34F8FFEE7564A62
:104A80001168564B186810601960554A1368013355
:104A90001360544B9847544B1B689C4212D2002021
:104AA000524B1B68DB6A03EB83039B00504AD358CD
:104AB000022B28BF01204F4B1B68002B18BF012081
:104AC000BDE8F88F0020444E0546DFF830B14FF0C6
:104AD000010E474ADFF8148136E04FF0FF32424BB7
:104AE0001A60DDE7404B1F60DAE7DF6ADBF800A001
:104AF0000EFA07F949EA0A09CBF8009007EB870795
:104B000002EB87077F689F60B968D960B968C1F810
:104B100004C0C7F808C0D3F82C904FEA890707EB08
:104B2000090C02EB8C0AC3F814A052F82CC00CF14B
:104B3000010C4F4442F827C0D8F800C0DF6ADCF807
:104B40002C309F4228BF012033681B68002BC4D043
:104B50003368DB68DB685F68BC42C3D3D3F814906A
:104B60009F68D968B960DF689968796003F1040CBF
:104B7000D9F80470674504BFDF68C9F804705D6147
:104B8000D9F80070013FC9F80070D3F82890B9F146
:104B9000000FAAD0DF69196AB9601F6AD969796004
:104BA00003F1180AD9F80470574504BF1F6AC9F801
:104BB00004709D62D9F80070013FC9F8007094E755
:104BC0000D4A1368013313600020BDE8F88F00BF61
:104BD00090AF072014B0072014AF072018AF0720AC
:104BE000CCAF07201D450800C8AF072010AF072035
:104BF0001CAF072018B00720D0AF072098AF0720C0
:104C0000594B1B6843B94FF0A00383F31188BFF3DE
:104C10006F8FBFF34F8FFEE72DE9F047534B984757
:104C2000514B1A68013A1A601B68002B40F09780BC
:104C30004F4B1B682BB900244E4B98472046BDE8CC
:104C4000F08700234C4D1C464C4801214C4ADFF8AC
:104C500048A1DFF83CE12F68002F5FD0EB68DB68EC
:104C6000D3F828C0DF691E6ABE601F6ADE697E60F5
:104C700003F11808DCF80470474504BF1F6ACCF83C
:104C800004709C62DCF80070013FCCF80070D3F82F
:104C900014C09F68DE68BE60DF689E687E6003F1B6
:104CA0000408DCF80470474504BFDF68CCF80470E2
:104CB0005C61DCF80070013FCCF80070DF6AD0F86E
:104CC000009001FA07FC4CEA090CC0F800C007EBA1
:104CD000870702EB87077F689F60BE68DE60BE685B
:104CE000C6F80480C7F80880D3F82C804FEA8807FC
:104CF00007EB080C02EB8C09C3F8149052F82CC097
:104D00000CF1010C474442F827C0DAF80070FF6A42
:104D1000DE6ABE429FD3CEF800109CE70BB1194B60
:104D20009847194B1C686CB1184F194E012501E0CA
:104D3000013C04D0B8470028FAD03560F8E70022DB
:104D4000114B1A60124B1B685BB14FF08052114B34
:104D50001A60BFF34F8FBFF36F8F01246CE70024FD
:104D60006AE7002468E700BF90AF072075340800A9
:104D700088AF0720B9340800D4AF072098AF0720C8
:104D80001CAF07201D450800D0AF07204D4A080082
:104D900018B0072004ED00E010AF072010B5A8B14F
:104DA00004460F4B1B6843B14FF0A00383F31188F7
:104DB000BFF36F8FBFF34F8FFEE70A4B9847002179
:104DC0002046094B9847094B984738B94FF0805215
:104DD000074B1A60BFF34F8FBFF36F8F10BD00BF3B
:104DE00090AF07201D4A080045450800014C080007
:104DF00004ED00E0364B1B681BB10122354B1A60F5
:104E0000704710B50022334B1A60334B9847334B31
:104E100018601B68324A11688B4207D92F4B1868FB
:104E2000304B1A68136E5B1A034413662B4B1A68D7
:104E30002B4B1A602B4B1B681B6B1A68B2F1A53FFA
:104E400003D15A68B2F1A53F1BD0264B18681968E8
:104E50003431254B9847254B1B68B3FA83F3DBB2FB
:104E6000C3F11F0303EB8302920021498A588AB9D8
:104E70004FF0A00383F31188BFF36F8FBFF34F8F01
:104E8000FEE79A68B2F1A53FDFD1DB68B3F1A53F39
:104E9000DBD1E0E7164A9900C81802EB80004468AD
:104EA00064684460194402460832944209D003EB16
:104EB00083030F4A02EB83035B68DA68094B1A60CD
:104EC00010BD60680A4A02EB81025060EFE700BF44
:104ED00090AF072018B00720A962080084AF072010
:104EE00080AF072010AF07207D5F080098AF072034
:104EF0001CAF072040B94FF0A00383F31188BFF324
:104F00006F8FBFF34F8FFEE710B50C46044B196847
:104F10001831044B984701212046034B984710BD98
:104F200010AF0720713308004545080038B560B15F
:104F300003461848006888B94FF0A00383F311882E
:104F4000BFF36F8FBFF34F8FFEE74FF0A00383F3E4
:104F50001188BFF36F8FBFF34F8FFEE710460E4AE5
:104F6000146841F00041A16159681468E161146856
:104F70008D6825628D68146818346C601468183464
:104F80008C60126893621A6801321A600121034B27
:104F9000984738BD90AF072010AF0720454508005F
:104FA000F0B170B50C460346114620465C68114AC4
:104FB0001568EC611568A6682E62A6681568183534
:104FC000756015681835A560126893621A68013219
:104FD0001A60002918BF4FF0FF30074B984770BD8B
:104FE0004FF0A00383F31188BFF36F8FBFF34F8F90
:104FF000FEE700BF10AF072045450800C368DB6827
:10500000002B53D030B49A6AD969186A8860196A3B
:10501000D869486003F118005168814204BF196AD9
:105020005160002199621168013911602A4A1268A1
:10503000002A44D15A699968D8688860D968986804
:105040004860181D5168814204BFD9685160002131
:105050005961116801391160DA6A204C2568012113
:105060009140294321601E4902EB820201EB82023A
:1050700052689A609468DC60946860609060DC6A52
:10508000A200101980000D185D61085801302244FB
:1050900092008850134A1168DA6ACB6A9A4283BF39
:1050A0000120114B1860002030BC70474FF0A00366
:1050B00083F31188BFF36F8FBFF34F8FFEE70B4A67
:1050C0005168D9618C681C628C68606088609A62E3
:1050D000116801311160DDE790AF072098AF07201C
:1050E0001CAF072010AF072018B00720D4AF07204F
:1050F000334B1B6843B94FF0A00383F31188BFF310
:105100006F8FBFF34F8FFEE741F000410160C3682E
:10511000002B4CD030B40269416884688C6081688F
:1051200044684C605168884204BF81685160002126
:1051300001611168013911605A699968D8688860FD
:10514000D96898684860181D5168814204BFD968C1
:10515000516000215961116801391160DA6A194CF6
:1051600025680121914029432160174902EB820201
:1051700001EB820252689A609468DC609468606017
:105180009060DC6AA200101980000D185D6108585B
:1051900001302244920088500C4A1168DA6ACB6AC6
:1051A0009A4202D901220A4B1A6030BC70474FF074
:1051B000A00383F31188BFF36F8FBFF34F8FFEE718
:1051C00090AF072098AF07201CAF072010AF072033
:1051D00018B0072040B94FF0A00383F31188BFF344
:1051E0006F8FBFF34F8FFEE710B50446054B98470E
:1051F000054B1B682360054B1B686360044B984795
:1052000010BD00BF75340800CCAF072014B00720D4
:10521000B9340800034B1B680360034B1B684360F1
:10522000704700BFCCAF072014B00720D0B170B5D5
:10523000054601B30C461C4B98471C4B1A6869681D
:105240002368B3F1FF3F2DD0194800682E688642CD
:1052500001D08A4218D2521A9A421CD300232360EA
:10526000012414E04FF0A00383F31188BFF36F8F84
:10527000BFF34F8FFEE74FF0A00383F31188BFF316
:105280006F8FBFF34F8FFEE7002323600124094B8C
:105290009847204670BD9B1A23602846064B9847C6
:1052A0000024F4E70024F2E77534080014B0072066
:1052B000CCAF0720B9340800155208000122014B79
:1052C0001A60704718B0072070B50C4616460546A0
:1052D000D0B1256005F134026260EA6A22612A6B6E
:1052E000E2612A6DA260AA6D62612A6EA261052B3D
:1052F00019D0174A1268954209D02373032B09D09D
:10530000B6B90023238470BD114A1568E1E7002374
:105310002373F5E70F4B9847AB6A0BB10223237356
:105320000D4B9847ECE728460C4B98472073E7E76E
:10533000286B0378A52B08D1431C191A13F8012BED
:10534000A52AFAD08908218470BD0021FAE700BFA0
:1053500010AF07201D4A0800014C0800E94808006A
:105360002DE9F04F83B00B684BB34B685B684B6023
:1053700001F10808434504BFCB684B6001920C461D
:105380004B68D3F80CB0054600274FF0010ADFF850
:10539000349063685B686360984504BFE36863604A
:1053A0006368DE68019B524629463046C84701378C
:1053B0002435B345EDD1384603B0BDE8F08F002762
:1053C000F9E700BFC95208002DE9F04706460C4630
:1053D0001746244B9847244B1B68A34240D8234BC5
:1053E00003F15005A3F1140800244FF0010ADFF87F
:1053F000849004EBC4005246294606EB8000C8475F
:105400000444143D4545F4D1194B196804EBC4001C
:10541000022206EB8000174DA8470444164B19687A
:1054200004EBC400022206EB8000A847044404EB0E
:10543000C4000422114906EB8000A847044404EB91
:10544000C40003220E4906EB8000A847044417B1AC
:105450000C4B984738600C4B98472046BDE8F087C6
:105460000024F8E71D4A080088AF07201CAF07207A
:1054700014AF07206153080018AF072000B00720C1
:10548000ECAF0720A9620800014C0800054B1B681F
:1054900033B1054B1B68002B0CBF02200020704766
:1054A00001207047E8AF072090AF0720002857D0B1
:1054B00070B50446C26A2B490968C96A8A4246D255
:1054C0008169002905DB27490968C96AC1F105011D
:1054D000816102EB8202244901EB820261699142FF
:1054E00005D0204A1268D26AE262012070BD251DF3
:1054F00028461E4B984738B91D490B68E06A0122BF
:10550000824023EA02030B60164B1B68DB6AE362EE
:1055100017490E68012000FA03F232430A60124A6A
:1055200003EB830302EB83035B68A3609968E1608C
:1055300099684D609D60E56AAB005919890056185D
:105540006661515801442B449B00D15070BD054AFF
:105550001268806DD36A98422CBF0020012070BD74
:105560000020704710AF07201CAF0720A5330800AC
:1055700098AF0720002852D070B504462B4B1B680B
:10558000984208D04FF0A00383F31188BFF36F8FC8
:10559000BFF34F8FFEE7C36D43B94FF0A00383F312
:1055A0001188BFF36F8FBFF34F8FFEE7013BC365D9
:1055B000C16A826D914234D0002B34D1051D28463A
:1055C0001B4B984738B91B490B68E06A012282409F
:1055D00023EA02030B60A36DE362C3F10502A2613B
:1055E00014490E68012000FA03F232430A60124A9D
:1055F00003EB830302EB83035B68A3609968E160BC
:1056000099684D609D60E56AAB005919890056188C
:105610006661515801442B449B00D15070BD00205D
:105620007047002070BD002070BD00BF10AF072084
:10563000A533080098AF07201CAF072000285ED0D4
:1056400038B50446C06D40B94FF0A00383F311880C
:10565000BFF36F8FBFF34F8FFEE7A26D8A4238BF53
:105660000A46E16A914201D0012800D038BD2448A1
:105670000068844208D14FF0A00383F31188BFF380
:105680006F8FBFF34F8FFEE7E262A0690028A4BFCF
:10569000C2F10502A26101EB81011A4A02EB81010C
:1056A00062698A42E2D1251D2846174B984738B9CE
:1056B00016490B68E06A0122824023EA02030B606C
:1056C000E36A1249086801229A4002430A600D4ABF
:1056D00003EB830302EB83035B68A3609968E160DB
:1056E00099684D609D60E06A83001918890055181B
:1056F00065615158013103449B00D150B6E77047B2
:1057000010AF07201CAF0720A533080098AF072073
:105710002DE9F04F85B00446002303702A4B1D6825
:10572000186800EBC0008000284B984703900028C1
:1057300047D0064600222946254B98478146002837
:105740003CD00027DFF898B0DFF898A024E04FF0B5
:1057500052080DE04FF042080AE04FF0530807E00E
:105760004FF0440804E04FF0000801E04FF0580803
:1057700069682046D84704462B69AA6801922A8C9A
:10578000009242461349D0472046134B98470444A1
:1057900001372436B94511D03546337B042BE2D886
:1057A00001A252F823F000BF6D5708004F570800C0
:1057B000555708005B570800615708000398074BCE
:1057C000984705B0BDE8F08F88AF07200D37080077
:1057D000C9530800E4D10800A998080071380800EE
:1057E0008D460800A19708002DE9F04F85B00446CA
:1057F00000230370204B1D68186800EBC000800078
:105800001E4B98470190002832D003AA294605462E
:105810001B4B984780461B4A039BA2FB03235B0953
:10582000039313B308B30027DFF868A0DFF868B06C
:10583000DFF868900AE0AA695946C8472046124B2B
:105840009847044401372435B8450ED0AE69039B10
:10585000B6FBF3F669682046D0470446002EEAD02E
:105860003346AA690949C847E8E70198084B9847B1
:1058700005B0BDE8F08F00BF88AF07200D370800E6
:10588000C95308001F85EB51A9980800CCD1080026
:10589000713808008D460800D8D10800A19708008B
:1058A000044B1A6890691A681B68DB6AC3F1050328
:1058B0009361704710AF0720054B1B6823B1044B61
:1058C0001A68D36D0133D365014B1868704700BF68
:1058D00010AF072008B54160006191420CD8D21A80
:1058E00083699A4201D3012008BD011D094B186844
:1058F000094B9847002008BD9A4201D2994206D22E
:10590000011D064B1868044B9847002008BD012074
:1059100008BD00BF20B00720713308001CB007206D
:10592000F8B504460D461746074E04E0A3691D442A
:10593000236A20469847A1692B463A4629442046C7
:10594000B0470028F2D1F8BDD558080070B505461B
:105950000E460D4B1B68DB68DC68201D0B4B98471F
:1059600094F8283013F0040F07D123F0010384F8D2
:105970002830236A2046984770BD32462946204683
:10598000034B9847F5E700BF1CB00720A53308007C
:10599000215908002DE9F0418046144B98470446F0
:1059A000134B1B68984207D30023C8F80030104BF4
:1059B0001C602046BDE8F0810E4B1B681A685AB186
:1059C0004FF0FF370C4E0B4DDB6839461868B04777
:1059D0002B681A68002AF7D1084A10680549086040
:1059E00013600123C8F80030E1E700BF2D4A08002A
:1059F0004CB007201CB007204D59080020B00720EC
:105A00002DE9F04F87B05F4F5F4E604DDFF8A491F6
:105A1000DFF8A4813B681A6892B1DB68D3F800A074
:105A20005B4B984702A85B4B98470446029A42BBDF
:105A3000504515D3B04721465046574B98471EE076
:105A4000534B984702A8534B98470446029BC3B94F
:105A5000524B1B681A68B2FA82F252094FF0000AE0
:105A6000AAEB040128684E4B9847B04738B94FF06D
:105A70008053C9F80030BFF34F8FBFF36F8F494C8D
:105A800008E0B047FBE705990498039B9847029B01
:105A9000002B08DA002202A92868A0470028B9D004
:105AA000029B002BEFDBDDF810A0DAF8143013B105
:105AB0000AF10400C04701A8364B98478346029B71
:105AC000013B082BE6D8DFE803F005052D344E0531
:105AD000052D34009AF8283043F001038AF8283065
